:020000041008E2
:4000000000780408F90208100D00000061030810610308106103081061030810000000000000000000000000000000005D0308105D030810000000005D0308105D0308104C
:400040005D0308105D0308105D0308105D0308105D0308105D0308105D0308105D0308105D0308105D0308105D0308105D0308105D0308105D0308105D0308105D03081000
:400080005D0308105D0308105D0308105D0308105D0308105D0308105D0308105D0308105D0308105D0308105D0308105D0308105D030810CD0508105D0308105D0308104E
:4000C0005D0308105D0308105D0308105D0308105D0308105D0308105D0308105D0308105D0308105D0308105D0308105D0308105D0308105D0308105D0308105D03081080
:400100005D0308105D0308105D0308105D0308105D0308105D0308105D0308105D0308105D0308105D0308105D0308105D0308105D0308105D0308105D0308105D0308103F
:400140005D0308105D0308105D0308105D0308105D0308105D0308105D0308105D0308105D0308105D0308105D0308105D0308105D0308105D0308105D0308105D030810FF
:400180005D0308105D0308105D0308105D0308105D0308105D0308105D0308105D0308105D0308105D0308105D0308105D0308105D0308105D0308105D0308105D030810BF
:4001C0005D0308105D0308105D0308105D0308105D0308105D0308105D0308105D0308105D0308105D0308105D0308105D0308105D0308105D0308105D0308105D0308107F
:400200005D0308105D0308105D0308105D0308105D0308105D0308105D0308105D0308105D0308105D0308105D0308105D0308105D0308105D0308105D0308105D0308103E
:400240005D0308105D0308105D0308105D0308105D0308105D0308105D0308105D0308105D0308105D0308105D0308105D0308105D0308105D0308105D0308105D030810FE
:400280005D0308105D0308105D03081010B5054C237833B9044B13B10448AFF300800123237010BDA447020800000000CC2A0810084B10B51BB108490848AFF3008008483A
:4002C000036803B910BD074B002BFBD0BDE81040184700BF00000000A8470208CC2A0810BC420208000000007047EFF3108072B6704780F310887047FFF7F6FF72B6114C66
:40030000114DAC4209DA21686268A368043BA2BFC858D050FAE70C34F3E70C490C4A00209142BCBF41F8040BFAE70A480A490860BFF34F8F00F036F900F010F900F01EF858
:40034000FEE70000D02A0810E82A0810A4470208284B02080040020808ED00E0FEE7FEE700B504207146084202D0EFF3098001E0EFF30880043002F057F8FEE700B583B05D
:4003800062B602F0BFF80D4B00934FF48E731A460B490C4801F0E4FD00F04CF900F0E6FB00F0ACFB0028FBD100F056F900F06AFA00F04EFA00F0DAFBF2E700BFEC4A02087A
:4003C000C849020800006440704700BF5C4AD2F8803303F00F0303F1D00152F8212002F00702032A04D0042A05D092B9554914E0554A116811E003F1C002514951F8222090
:4004000002F01F02112A06D0132A04D04FF4FA4103E04E4901E04FF400418BBB484BD3F8902502F00100D3F88825C2F30172D3F8883513F0405F07D0414BD3F88835C3F373
:400440000173012B02D102E0012300E0002303B108B9032A46D13A48D0F88025C2F31103D0F88425C2F30C02D0F88005C0F300600130B1FBF2F202FB03F2B2FBF0F131E0A9
:40048000012B2FD12E4BD3F8402602F00100D3F80026C2F30172D3F8003613F0405F07D0274BD3F80036C3F30173012B02D102E0012300E0002303B108B9032A12D120484E
:4004C000D0F8002602F07F02D0F80036C3F30423D0F80006C0F3044002FB01F2B2FBF3F2B2FBF0F1164BD3F88033C3F3011321FA03F215494A601648D0F89030C3F3072364
:4005000001330069000E0130B2FBF0F08860B2FBF3F3CB600B6103F5742202F23F220D48A0FB0202C2F387420A7503F2E7330A4AA2FB03239B098B61DB03CB61704700BF36
:400540000000264000127A008C42020800366E010000214083DE1B43D34D621008B5104BD3F8802122F0404242F08042C3F88021D3F8802142F00042C3F88021D3F880214A
:4005800022F00102C3F88021FFF71EFFFFF71EFF00F024F800F02AF801F08CFE08BD00BF0000264008B5FFF7A0FE074AD2F8883043F47003C2F88830BFF34F8FBFF36F8FA1
:4005C000FFF797FE08BD00BF00ED00E008B5024801F0FEF908BD00BFEC47020808B500221146042000F0FAFF08BD00BF10B501F078FF0446044801F0ADF8044801F00EF90B
:40060000204601F072FF10BDC0470208CC25081008B5074B1B7833B900F0F8F800F028F90122034B1A7000F039F800F059FB08BD4049020810B5FFF7EBFF044610B900F02C
:4006400095FA044600F05AFA0028FBD100F0A2F900F0EAF9204610BD70B50E4D0026344614E0630904330C4A52F8233004F01F02D34013F0010F07D0284600F047F8064633
:400680002946204600F090F81C350134092CE8D9304670BDCC260810C849020870B500230AE0124A191D02EB8100002444604FF0FF3042F821000133002BF2D00C4C0A2340
:4006C0000FE06668A27E094B2B4400211976012A05D1206918B1228BF17901F050FF1C342B465D1E002BECD170BD00BFC8490208CC26081030B40B884A889C1A0025CD805A
:400700000079844200DDCC8030BC70472DE9F84307468468466890F81A900025A8460BE04A462146304600F095F9804621463046FFF7E0FF0A3401353B8B9D42F0D3404681
:40074000BDE8F883F0B50C8B8D684F680A69012324E010EA030403D17E88B979314402E07988BE79891BEE88B14201D3002100E01946A14202D01678013E1670A14201D03D
:4007800014783CB920EA0300084309B9F97900E0012111705B000A350132744604F1FF3E002CD6D1F0BD00BF38B504468A7E154B03441D7E012A04D12846FFF7C3FF0546BF
:4007C00004E040F22641104801F01EFE0D4B23441D76620904F01F04012303FA04F445B90432084B03EB8202536823EA0404546038BD0432034B03EB820253681C435460F4
:4008000038BD00BFC84902081026081010B50E4C4FF48E720021204601F0B1FE4FF60E6323804FF41063638041F66A03A38008236384042384F824308C22044904F126003A
:4008400001F092FE10BD00BFC8490208402608100123002006E0111D044B03EB81035B68184313465A1E002BF5D17047C84902080023024AD380024A13607047C8490208B4
:400880006C49020870B5002635463F4B1B68032B06D101F026FE01223C4BDA8001F025FE3A4BDC88E4B2631E052B23D8DFE803F003070C14191E0125334B1D601AE00022F1
:4008C000314B1A60012515E0FFF7B4FE00222E4B1A60012635460DE002222B4B1A60012508E00022284B1A60012503E00322264B1A6000258DB101F0F4FD244BDB88DBB2AD
:400900009C4207D1214AD3886FEA43436FEA53439BB2D38001F0E9FD00251B4B1B68012BB3D0022B2ED1194A92F81631DBB292F81721D2B2092B25D8C3EBC3008100144887
:400940000144098B8A421DD21049088980B2B1F8181189B2884215D0C3EBC30399000C4B19448D6802EB8202540001F0BAFD074B1A8992B2A3F818212A5B92B2A3F81A213C
:4009800001F0B3FD304670BD6C490208C8490208CC260810704700BFC9B2062902D083180021197130F8121000EB42035980024400231372704700BF70B506460D46012338
:4009C00005E0224629463046FFF7E6FF23465C1E002BF6D170BD00BF70B5084DC3001A1A940022462C44A66801EB81014C002A44917E3019FFF7E0FF70BD00BFCC260810F3
:400A000038B50546C0EBC0029300064A13441B8B04E021462846FFF7DFFF23465C1E002BF7D138BDCC26081010B50A2303E02046FFF7E6FF23465C1E002BF8D110BD00BF56
:400A400000FA03F3C2F5807001FB00F102FB0310000A70472DE9F04106460D461746012342E035F8140005EB44035988884207D3431A2A194FF0000E82F808E0012201E048
:400A80000B1A002292B996F805E073450ED92B191B7A327A934205D3224639462846FFF77BFF20E02A19013313721CE096F804E0734504D996F805E0734514D29AB9FBB28B
:400AC000062B10D005EB040898F804E0082301224EEA0121FFF7B4FFC0F30F2205EB44035A8088F8040023465C1E002BB9D10020BDE8F08100230B73704700BF024BD86839
:400B000000F08000704700BFC849020810B50F4BDB6813F4803F0ED109280ED8430904330A4A52F8233000F01F02D34013F0010F05D1012404E0112402E0012400E00024CC
:400B40000CB900F075FC204610BD00BFC849020808B5054BDB6813F4803F03D100F0B8FB002008BD112008BDC8490208124BDB6813F0800F1AD110B500244FF0FF3312E056
:400B80002046FFF7C3FF034660B9082C03D801220A4B1A7002E00022084B1A70FFF7D8FF034606E00134092CEAD902E0112318467047184610BD00BFC849020870490208A7
:400BC00030B583B00025074C08E02179002300930E22206801F094FB08340135092DF4D903B030BDE427081010B51C4A53780133DBB253705078FFF789FF044650B9174B48
:400C00005B78DBB2092B02D10022144B1A70FFF79FFF1FE0114B5B78DBB2092B11D1104B1A8901321A81DA6822F08002DA60DA6822F07F42DA60DA6842EA0064DC60002480
:400C400008E0074BDA6822F07F42DA60DA6842EA0062DA60002CC8D110BD00BF70490208C849020810B50146124BB3F90030002B0DDB5A0903F01F03012404FA03F3203277
:400C80000D4840F82230BFF34F8FBFF36F8F094C204600F019FCB4F90030002B08DB590903F01F03012202FA03F3034A42F8213010BD00BF0026081000E100E010B5002492
:400CC00009E0C4EBC4029300044A134459682046FFF710FF0134092CF3D910BDCC26081008B5FFF7EBFFFFF76BFF00F08FF9002008BD00BF70B5002514E0C5EBC5029300C4
:400D00000A4AD658002404E006EBC40000F02CFB0134C5EBC5029300044A13441B7E9C42F2D30135092DE8D970BD00BFCC26081010B50B4A136823F4F8531360094C022336
:400D40006360A36A23F0F00343F06003A362012001F04EFBA36A23F0F003A36210BD00BF70003140800332400F4B1B78C3EBC3039A000E4B1A4453680D4AD2F8D02091B26C
:400D8000188801238340013B994206D2094B1B680949097823F811207047064A12680649097822F81130704771490208CC26081000003640E44A02083428081010B5204B44
:400DC0001B78C3EBC3039A001E4B1A44127E013A1D4B1B78DBB29A421AD91B4A13780133DBB2137016480378C3EBC3039900154B19448C68137803EB830359002144134B83
:400E000019600078117800F09DFA00F0E3F910BD00220D4B1A700E4AD36823F48033D3600C4B1B78012B02D1FFF7DEFE10BD084BDA6822F08002DA601A8901321A8110BD5B
:400E400071490208CC26081072490208E44A0208C84902087049020810B50C4B1B78C3EBC3039A000A4B9B580A4A147803EBC404094B4FF483721A601B68FFF775FF2046D5
:400E800000F072FAFFF79AFF10BD00BF71490208CC26081072490208F000364001390843014B1860704700BF000236400F4B1B6823F4F8730E4A92F824100E4AB2FBF1F22E
:400EC0000D498A4204D843F02003084A136070470A498A4204D843F03003044A1360704743F04003014A1360704700BFAC420208C849020880F0FA02001BB70000366E01A9
:400F0000014A024B1A60704700008301000436400023154A1360154902F5927211600432136006212C3A1160012211490A6090390A60104A4FF48371116012680E4A136023
:400F400003220E4B1A604FF4FA6300E0013B094A126812F0040F01D1002BF7D113B90822064B1A60704700BF8C0136400101010080023640F0003640F80036404003364054
:400F80001B4B4FF483721A601B681A4BB3F90030002B08DB590903F01F03012202FA03F3154A42F821300023144A136030321360043213602C3A13605021983A11600121B0
:400FC000643A11600C3A136002220D4B1A604FF4FA6300E0013B0B4AD2F8842012F0070F01D0002BF6D140F20132074B1A607047F00036400026081000E100E08002364094
:40100000F8003640000036404003364010B5FFF771FEFFF78DFE4FF480323B4B1A603B490B6843F080530B600023394A136002F5E07213600C32136060321360A2F5CE72A9
:40104000136002F582721360083A136031480360A2F5807213604FF0487402F5A87214602D4CA26A22F0F002A262A4F58134A4F58874226822F4F85242F48062226004F5A5
:40108000A02404F50974226842F4805222600124224A14600A6842F080520A604FF0807204390A6040F64134A1F58E710C6001F584710B600260FFF723FF194B93F8243066
:4010C000013BFF2B09D81749D1F8002822F47F421B029BB21343C1F80038FFF7E7FE124B1B6843F0004343F48053104A13600F220F4B1A600022A3F588731A600A2203F570
:4011000090731A6010BD00BF04023640A8023640F40036408402364080033240A0023640C849020800000140AC420208000036400003364010B5044601F0D3F906490B68C6
:4011400023F07F02054B1B7823445B7A13430B6001F0CBF910BD00BF000436403428081010B401228A40531E40B10F2904D9A2F10A03B3FBF0F301E0B3FBF0F30BB901201C
:4011800000E018465DF8044B704700BF08B5094B1B78C3EBC3039A00074B1A44536859891B7B1804053B012B01D840F00070FFF775FE08BD71490208CC26081008B5027B0B
:4011C00001884089FFF7CCFF80B2014B186008BD1403364008B50D4BB3F90030002B0DDB5A0903F01F03012101FA03F32032084941F82230BFF34F8FBFF36F8F0122054B24
:401200001A60FFF785FEFFF7BBFE08BD0026081000E100E08001364008B5064AD36843F4803343F08003D360172001F0E1F8FFF7D1FF08BDC8490208F8B5054601F051F95C
:4012400006462F682C79072C04D94FF464711F4801F0DAF8A400BA6A0F23A34022EA0301062202FA04F30B43BB622C682D79072D04D940F24521154801F0C6F804F13F43BB
:4012800003F54E03DB0903F1806303F544331B01032D0BD81A68ED001F21A94022EA01010B2202FA05F50D431D600BE0043D5A68ED001F21A94022EA01010B2202FA05F5C1
:4012C0000D435D60304601F010F9F8BD3828081070B5164E3378164CC3EBC3039A0022445068144D00232B703378C3EBC3039A00224491682B7803EB83035A000A440E4B33
:401300001A60FFF717FF3378C3EBC3039A00A358287803EBC000094B1860FFF78DFF0848FFF7A0FCFFF778FF70BD00BF71490208CC26081072490208E44A0208E84A020895
:40134000590E081008B5C0EBC0008300044AD05800EBC100034B1860FFF76EFF08BD00BFCC260810E84A0208F8B5064601F0B9F8074634683579072D04D940F245212248E9
:4013800001F042F804F13F4303F54E03DB0903F1806303F544331B01032D08D81A68ED001F2101FA05F522EA05051D6008E0043D5A68ED001F2101FA05F522EA05055D60D5
:4013C00035683479072C04D94FF464710E4801F01BF8A400AA6A0F23A34022EA03010E2202FA04F30B43AB6235683479072C04D940F24731044801F007F80123A3406B60B4
:40140000384601F072F8F8BD3828081008B5064B1B78012B06D1054B1868FFF7A5FF0022014B1A7008BD00BF73490208E84A020870B5104DC0EBC00293002B445C68C0B2F3
:401440000D4E3070FFF7E2FF3378C3EBC3039A00AA580A4B1A600A4BDA6822F07F02DA603178DA680A43DA602046FFF7A7FEFFF78DFE70BDCC26081071490208E84A020881
:40148000C849020838B50C4B9A680C4B9A420ED10D46044619B9FC21094800F0B5FF04F11003064A52F8230042F8235038BD1030044B53F8200038BD00ED00E000400208CB
:4014C000782808100000081070B338B504460D464368072B03D93621154800F095FFB4F900306268002B08DB5201D2B203F1604303F5614383F8002305E003F00F035201E4
:40150000D2B20C49CA540C4B9A680C4B9A420DD11DB94521064800F077FF2946B4F90000FFF7B0FF002038BD05487047002038BD7828081014ED00E000ED00E000400208BB
:401540000100560038B50369002B0DDA0D4604460B0C1B0423B140F2A721044800F054FFA9B26160002038BD014838BDBC28081001008A0038B50368002B01DA002300E022
:40158000094B73B90D460446C2600B0C1B0423B140F28E21054800F037FFA9B2A160002038BD014838BD00BF01008A00BC28081038B504460D4619B99921064800F024FF22
:4015C0002369002B03DAE3682B60002038BD024838BD00BFFC28081001008A000F2840D8F8B515460E46044682B979B90F2804D940F29D11214800F007FF600100F18040E0
:4016000000F50C101E4B18600020F8BD5DB366B316F01F0F2BD10F2C04D940F29D11174800F0F2FE640104F1804404F50C14144F3C607E60BD60F2080021284600F09FFF0B
:4016400000212046FFF77EFF3A4652F8040B0021FFF790FF68B900213868FFF773FF50B9F8BD084870470748F8BD0648F8BD0548F8BD0548F8BD0448F8BD00BF3C2908109A
:401680007449020803018A0001018A002DE9F0411B4B1B68DC68236883422CD90D464609A0EB4610012303FA00F819B900F019FF074600E00027124B18680368002B01DA68
:4016C000002300E00F4B83B9626852F8263018EA030F05D023EA080342F82630002400E0094C0021FFF72EFF00E0084C25B9384600F0FBFE00E0064C2046BDE8F08100BFD3
:401700007449020801008A00020188000301880004018A000B4B1B68DB681A6882420CD94109A0EB4110012202FA00F05B6853F82130184203D00448704704487047044857
:40174000704700BF744902080101880004018A0000018800024B1B680BB9014B18607047804902082DE9F8430446884691461E46089F072803D9B421244800F045FE244B6F
:401780001B682C2000FB04F01C18F5B21D50C6F307236360360CA6600F2D04D940F29D111C4800F031FE6D0105F1804505F50C15256165680F2D04D94FF4DC71154800F02C
:4017C00023FE154B03EB45156561A668330C1B0423B14FF4EB710F4800F016FE330C1B0423B140F2D7110B4800F00EFEB3B243EA0646AE60C4F81C90C4F820800023A361AE
:4018000017B1B7F90030A381BDE8F8837C290810804902083C29081000102340F0B58FB0044618B950212C4800F0EEFDA369072B03D95421284800F0E7FDE36A1BB9562112
:40184000254800F0E1FDE368072B03D95721224800F0DAFD236A072B03D958211E4800F0D3FD236B1BB959211B4800F0CDFD07AE04F114050FCD0FC62F6802AD26460FCEF5
:401880000FC533682B60079B1933ADF83030089B0D93A26AE16A0CAD00953B460A98FFF761FF00210091069B0A460598FFF75AFF216B2846FFF708FEBDF93030002B08DB31
:4018C000590903F01F03012202FA03F3034A42F821300FB0F0BD00BF7C29081000E100E0F8B507460E461D4614461AB9FC21224800F08AFD072F03D9FD211F4800F084FDF7
:40190000072E03D9FE211C4800F07EFD1B4B1B682C2202FB073002FB06367368012202FA03F31B04476802FA07F70269EAB1B169E9B91268002A01DA002200E0104AC2B934
:401940002288134323600369DC600123B361756204693B0C1B0423B140F28E21094800F053FDBAB2A2600020F8BD0748F8BD0748F8BD0648F8BD00BF7C2908108049020877
:4019800001008A003C29081004028A0007028A0070B504460E461546072804D940F25F11084800F031FD084B1B682C2202FB0434E369AB4204D9236A43F82560002070BDB9
:4019C000024870BD7C290810804902080A028A0070B582B000230193044620B94FF4D971264800F011FD236923B940F2B311234800F00AFD636923B94FF4DA711F4800F0D3
:401A000003FD236A23B940F2B5111C4800F0FCFC6369DD682A0C1CD012041A601B6820690369002B15DA01A9FFF7C2FD60B9019803681E0CDBB2E269934206D2226A52F8A3
:401A4000233013B1984700E0002631462069FFF779FDADB275B16369ADB21D601B68636A1BB198470023636202E0A36A03B198470023A36163691B6802B070BD7C2908105A
:401A800010B4D0F8003303F00F03072B06D900230DE0D0F84043CC54013300E000239342F7D306E0D0F8404321F8134001339342F8D35DF8044B704710B51446D0F8083312
:401AC000C3F308039A4200D31C462246FFF7D8FF204610BD10B4D0F8003203F00F03072B06D900230DE0CC5CC0F84042013300E000239342F7D306E031F81340C0F84042F4
:401B000001339342F8D35DF8044B704710B51446036813F4006F01D0802200E04022D0F80832C3F30803D31AA34200D81C462246FFF7D0FF204610BD02E0C0F84012013A6B
:401B4000002AFAD1704700BF10B51446036813F4006F01D0802200E04022D0F80832C3F30803D31AA34200D81C462246FFF7E4FF204610BD4B6843F020034B60D0F804334F
:401B800043F48033C0F80433D0F8043323F48033C0F80433D0F804330023C0F8C83FC0F8883F70474B6813F0200F0BD0036823F00043036000238366C366036843F0004383
:401BC000036003680B78DBB2062B03D10023C0F8883F06E00023C0F8C83F036E23F4204303664B6823F010034B600B7E83B10B78DBB2062B05D00A69CB689A4203D0022274
:401C000002E0012200E000224B6813434B600FE00B78DBB2062B05D04A69CB689A4203D0082202E0042200E000224B6813434B6000230B70704700BF4A7A1AB10B7A5340AC
:401C4000DB4300E0FF23D0F8102322F47F025B0403F47F031343C0F81033704738B504460D4601230B764B7A43B3D0F840335B080122C0F8C02FD0F8C02F0A7A934202D09E
:401C80004A7A93420FD16A7A934201D100232B761023C4F8403FD4F8403F40F25113C4F8483F01220BE040F2AE512C4800F0ACFB40F24113C4F8883E022200E00122D4F885
:401CC000043243F48033C4F80432D4F8043223F48033C4F80432D4F80432E266012A3CD16B6843F010036B60636E13F0100F16D006232B702B7E3BB16A6A29690A44EA617D
:401D0000AB6A5B1A2B6206E02A6B69690A44EA616B6B5B1A2B620123C4F8883F38BD02232B702B7E0BB1AB6A00E06B6B2B62236813F4006F01D0802300E0402323B940F2EF
:401D40005E21064800F060FBD4F8043323F0FF03C4F804330123C4F8C83F38BDBC29081038B505460C460A6A42B1C969FFF7CEFE236A1B1A2362E3691844E061236A23B9E9
:401D80008022FF212846FFF7DFFE38BD38B50546802906D9A1F18003802B0ED8A1F181040CE0036E43F40043036609B14C1E00E000240023C5F8C83F00E03F242B6813F482
:401DC000006F01D0802300E040239C4204D340F25E21064800F018FBD5F8041321F0FF03E1B21943C5F8041338BD00BFBC29081038B505460C460B78023B032B00F2888029
:401E0000DFE803F002025B73D0F840338A7A012A0FD10A78D2B2022A07D10122C2661A02CA6003220A70002204E0CA681343012200E00122002A6BD0226A934207D2227E9F
:401E40000AB1236100E06361E360012306E0237E0BB1236900E06369E3600223EB66012B56D1237E5BB1626A21690A44E261E36A994201D25B1A00E0002323620AE0226B8E
:401E800061690A44E261A36B994201D25B1A00E000232362637A13B9236A7F2B02D80423237038BD2B6E43F400532B66216A2846FFF76CFF0523237038BDD0F840230B6A47
:401EC0006BB10123C366CB691A700B6A013B0B62CB690133CB61CB680133CB6038BD0223C3660023C0F8C83F38BDD0F80423D2B20132C969FFF7E0FD216A091A2162E36935
:401F00001844E0612846FFF741FFE3680133E36038BD00BF70B505460C46164611F0800F04D04FF407710D4800F06EFA737A9C4204D140F21D21094800F066FA3472D5F8DC
:401F4000103323F0FF036400E4B21C43C5F8104331462846FFF770FE70BD00BF002A0810F8B50F461D46069C16462AB121B94FF41A71074800F048FAAE4204D240F2692140
:401F8000034800F041FA6762A662E562F8BD00BF002A081070B506460D46144611F0800F04D040F28D21084800F02EFA237A9D4204D140F28E21044800F026FA6572214647
:401FC0003046FFF739FE70BD002A081000287DD070B5054600297BD0002A7BD00B7913B13E4B984278D116460C4691F90130002B03DA4F213A4800F007FA94F90230002BCF
:4020000003DA5021364800F0FFF96278A3789A4203D15121324800F0F7F92378012B03D952212F4800F0F0F9E378012B03D953212B4800F0E9F92378012B02D14FF480326A
:4020400000E00022237913B14FF4807300E00023134343F400632B60224B2B6640F20713C5F800330023C5F80433237833B97372324661782846FFF74DFF09E03246617852
:402080002846FFF747FF3246A1782846FFF782FF154BC5F800324023C5F804320020C5F8C80EC5F8880EC5F8C80FC5F8880FC5F8080F40F25113C5F8483F70603070E378F4
:4020C000B372B062F0623061706170BD07487047064870BD054870BD044870BD00006940002A081000080040070101000100AA0070B504460E46D0F88C3E13F0010F05D030
:4021000001230B70C0F8803ED0F8803ED4F84C5F40F201131D420CD031462046FFF72AFD40F20113C4F8403FD4F8403F45F010050BE03378DBB2052B07D115F0100F04D0D9
:402140000123C4F8C43FC4F8C83FD4F8CC3F13F0010F08D031462046FFF74AFE0123C4F8C03FD4F8C03F15F0100F0AD031462046FFF718FD1023C4F8403FD4F8403FD4F8C7
:402180004C5F15F0400F0DD031462046FFF766FD0123C4F8803ED4F8803E4023C4F8403FD4F8403FD4F88C3F13F0010F08D031462046FFF7D5FD0123C4F8803FD4F8803FAB
:4021C00070BD00BF1F4B98422DD00CD840282ED003D8E8B1102828D02FE0802829D0B0F5807F28D029E0184B984228D006D8B0F1204F0DD0154B984212D01EE0144B98421C
:402200000AD00133984209D0023B984215D101E0002070470F4870470F4870470F4870474FF4A0007047074870470D4870470D4870470D487047034870470C4870474FF4EA
:40224000A400704706005200010000F0090000A0040000F0010052000200520003005200010050000200500005005200FF00520008B50C4B1B69002B12DB0B4B1868FFF75A
:40228000A1FF0122094BC3F88C24084BD3F80C34002BFAD1054BD3F88C34002BF5D108BD034808BD2000234084490208000025400200500000B583B05523ADF8003000233E
:4022C00001930C496846FFF7FFF8BDF90030002B08DB590903F01F03012202FA03F3064A42F82130022205490120FFF751FB03B05DF804FB0143020800E100E021440208A5
:402300002DE9F04104460D46174698469DF81860072903D9D121344800F076F837F00F0303D0D221304800F06FF8B8F1010F03D9D3212D4800F068F836F01F0303D0D4216D
:40234000294800F061F822680123AB4022EA030308F0010808FA05F843EA08032360A36AA9000F228A4023EA020207F00F0303FA01F71743A762072D04D940F245211B480E
:4023800000F042F836F01F0304D040F24621174800F03AF804F13F4404F54E04E40904F1806404F544342401032D0DD82268ED001F23AB4022EA030306F01F0606FA05F5BE
:4023C0001D432560BDE8F081043D6268ED001F23AB4022EA030306F01F0606FA05F51D436560BDE8F08100BF442A0810842A081008B5034B1B7800FB03F000F069F808BDAE
:40240000A042020801BEFEE738B50D46044C18220146204600F0BBF8A5610020FFF7F2FF10470208FEE700BF08B50268254BDA6142681A6282685A62C2689A620269DA6275
:4024400042691A6382695A63C2699A631E4A916AD963D16A1964516A5964516B9964926BDA64F1EE103A13F0900F27D0026A154B1A65426A5A65826A9A65C26ADA65026B66
:402480001A66426B5A66826B9A66C26BDA66026C1A67426C5A67826C9A67C26CDA67026DC3F88020426DC3F88420826DC3F88820C26DC3F88C20026EC3F89020FFF7B2FFD7
:4024C00008BD00BF1047020800ED00E0000000000230800803D001300238FCD100BF00BF7047EFF3108072B6704780F31088704708B502490248FFF7FBFD08BDEC4A0208D8
:402500000000644008B5114B1B785BB9104A11491148FFF75BFD11491148FEF7D5FF01220A4B1A700E4BB3F90030002B08DB590903F01F03012202FA03F30A4A42F82130B0
:40254000054A136843F00043136008BDC4490208EC4A0208C42A081000006440F12408100826081000E100E010B5431E0A44914204D011F8014B03F8014FF8E710BD024401
:402580000346934202D003F8011BFAE7704710B5034642B111F8014B03F8014B013A002CF7D11A4400E010BD934202D003F8014BFAE710BDF8B500BFF8BC08BC9E4670478A
:4025C000F8B500BFF8BC08BC9E467047030000000100000001000000000000000503600004000000010000000000000001000000060460000800000020490208CD0508101A
:4026000031000000070000002C0000000700000047656E6572617465645F536F757263655C50536F43365C43617053656E73655F50726F63657373696E672E63000000006E
:402640001000640028280A031E20100000001000640028280A031E20100000001000640028280A031E20100000001000640028280A031E20100000001000640028280A030D
:402680001E20100000001000640028280A031E20100000001000640028280A031E20100000001000640028280A031E20100000001000640028280A031E2010000000100040
:4026C000640028280A031E2010000000E4270810EE4902087A4A020800000000684902080128000001000101EC270810FC490208844A020800000000644902080128000080
:4027000001000101F42708100A4A02088E4A020800000000604902080128000001000101FC270810184A0208984A0208000000005C49020801280000010001010428081092
:40274000264A0208A24A0208000000005849020801280000010001010C280810344A0208AC4A02080000000054490208012800000100010114280810424A0208B64A020877
:40278000000000005049020801280000010001011C280810504A0208C04A0208000000004C4902080128000001000101242808105E4A0208CA4A020800000000484902089C
:4027C00001280000010001012C2808106C4A0208D44A020800000000444902080128000001000101800432400000000080043240010000008004324002000000000532403A
:40280000020000008004324004000000800432400500000080043240060000008004324007000000000532400000000000053240010000000000000047656E65726174658E
:40284000645F536F757263655C50536F43365C70646C5C647269766572732F7065726970686572616C2F6770696F2F63795F6770696F2E680000000047656E657261746533
:40288000645F536F757263655C50536F43365C70646C5C647269766572735C7065726970686572616C5C737973696E745C63795F737973696E742E630000000047656E6527
:4028C00072617465645F536F757263655C50536F43365C70646C5C647269766572735C7065726970686572616C5C6970635C63795F6970635F6472762E68000047656E6567
:4029000072617465645F536F757263655C50536F43365C70646C5C647269766572735C7065726970686572616C5C6970635C63795F6970635F6472762E63000047656E652B
:4029400072617465645F536F757263655C50536F43365C70646C5C647269766572732F7065726970686572616C2F6970632F63795F6970635F6472762E68000047656E656D
:4029800072617465645F536F757263655C50536F43365C70646C5C647269766572735C7065726970686572616C5C6970635C63795F6970635F706970652E630047656E6549
:4029C00072617465645F536F757263655C50536F43365C70646C5C647269766572735C7065726970686572616C5C7363625C63795F7363625F636F6D6D6F6E2E68000000B0
:402A000047656E6572617465645F536F757263655C50536F43365C70646C5C647269766572735C7065726970686572616C5C7363625C63795F7363625F657A6932632E63A1
:402A40000000000047656E6572617465645F536F757263655C50536F43365C70646C5C647269766572735C7065726970686572616C5C6770696F5C63795F6770696F2E63AF
:402A80000000000047656E6572617465645F536F757263655C50536F43365C70646C5C647269766572735C7065726970686572616C5C6770696F5C63795F6770696F2E686A
:402AC0000000000000080001000000000000000000000810004002088C020000F02A08108C42020884040000A4470208840300000048E80100127A0000093D0000127A0040
:402B000000127A0008000000401F00000000A00F2000000002FF0000B10208108D0208100000000080B2C300B0B13E210B4A116041F61E7104321160A2F584720621C2F80A
:402B4000181523F07F43C2F81C35D2F81C35044BD3F81C35002BFADA704700BF040126400000264008B54FF26003404AD3589BB2A2F580229268013B032B76D8DFE803F074
:402B8000021F3C59032A02D10822394B9A60394A13691069C0F307221B0E581C02FB0000354B03FB00F0354B1B68354AA2FB03239B09B0FBF3F08230FFF7B4FF08BD032A97
:402BC00002D108222A4B9A602A4A13691069C0F307221B0E581C02FB0000274B03FB00F0264B1B68264AA2FB03239B09B0FBF3F08230FFF797FF08BD032A02D108221C4B3D
:402C00009A601C4A13691069C0F307221B0E581C02FB0000184B03FB00F0184B1B68184AA2FB03239B09B0FBF3F08230FFF77AFF08BD032A02D108220D4B9A600D4A136906
:402C40001069C0F307221B0E581C02FB00000A4B03FB00F0094B1B68094AA2FB03239B09B0FBF3F08230FFF75DFF08BD00002540A00023400000214040420F009042020804
:402C8000D34D621008B54378FF2B0ED100F03AF9064BDB685A68136843F001031360136813F0010FFBD100F055F908BD80002340F8B505460E46264B1B69002B1FDB00209D
:402CC00000F040F9234B98421BD00023224A0121184600F01FF918B1204C15E0013400E00024002000F02EF91A4B984202D01C4B9C42F3D91A4B9C4205D9184C04E0174CD9
:402D000002E0164C00E0002404BB00F0FBF80746144A0121144800F00DF968B925B93046FFF700FF114C08E00F4B1B69002BFBDB00F018F9044600E0084C0121002000F04B
:402D4000F1F80028F9D1384600F004F92046F8BDA000234001018800B042020805005200EF490200844902082000234001005000394B1B68002BFBDA30B4374BDA6842F04C
:402D80000102DA60DB6813F0020F20D0324DEB689CB232490A69120A120402F47F02D1F890301B0A42EA03632343EB600B6923F47F4343F410630B61D1F8903023F47F4322
:402DC00043F41063C1F890300B69D1F89030224B00225A605B68224A136943F004031361012801D030BF07E020BF1E4B1B7803B120BF01221B4B1A70184BD3F8803003F0EF
:402E00000303022BE7D0144B1B68002BFBDA124BDB6813F0020F15D010490B6923F47F420D48C3681B0C1B0203F47F4313430B61D1F8903023F47F42C3681B0E42EA032342
:402E4000C1F89030044BDA6822F00102DA6000225A6030BC704700BFE00023400000214000ED00E0944902081E4A136943F004031361012801D030BF07E020BF1A4B1B782A
:402E800003B120BF0122184B1A70184BD3F8803003F00303022BE7D0154B1B68002BFBDA144BD3F80C31C3B941F61E72124B1A60062203F582631A603E22A3F214431A600B
:402EC000442203F583631A600C4B1B68002BFBDA4FF0AA32074BC3F80C210022044B5A60704700BF00ED00E09449020800002140E000234000002540080126401C05264091
:402F00000000000001B40248844601BC604700BFE324081001B40248844601BC604700BFE118081001B40248844601BC604700BF8D16081001B40248844601BC604700BFF6
:402F40007515081001B40248844601BC604700BF1517081001B40248844601BC604700BFEB24081001B40248844601BC604700BF71220810000000000000000000000000D5
:402F80000000000000000000000000000000000000000000000000000000000000000000000000000000000000000000000000000000000000000000000000000000000011
:402FC00000000000000000000000000000000000000000000000000000000000000000000000000000000000000000000000000000000000000000000000000000000000D1
:0200000490303A
:02000000778205
:0200000490501A
:0C0000000005E20721002101E2179882B0
:00000001FF