:020000041008E2
:4000000000780408F90208100D00000061030810610308106103081061030810000000000000000000000000000000005D0308105D030810000000005D0308105D0308104C
:400040005D0308105D0308105D0308105D0308105D0308105D0308105D0308105D0308105D0308105D0308105D0308105D0308105D0308105D0308105D0308105D03081000
:400080005D0308105D0308105D0308105D0308105D0308105D0308105D0308105D0308105D0308105D0308105D0308105D0308105D0308105D0308105D0308105D030810C0
:4000C0005D0308105D0308105D0308105D0308105D0308105D0308105D0308105D0308105D0308105D0308105D0308105D0308105D0308105D0308105D0308105D03081080
:400100005D0308105D0308105D0308105D0308105D0308105D0308105D0308105D0308105D0308105D0308105D0308105D0308105D0308105D0308105D0308105D0308103F
:400140005D0308105D0308105D0308105D0308105D0308105D0308105D0308105D0308105D0308105D0308105D0308105D0308105D0308105D0308105D0308105D030810FF
:400180005D0308105D0308105D0308105D0308105D0308105D0308105D0308105D0308105D0308105D0308105D0308105D0308105D0308105D0308105D0308105D030810BF
:4001C0005D0308105D0308105D0308105D0308105D0308105D0308105D0308105D0308105D0308105D0308105D0308105D0308105D0308105D0308105D0308105D0308107F
:400200005D0308105D0308105D0308105D0308105D0308105D0308105D0308105D0308105D0308105D0308105D0308105D0308105D0308105D0308105D0308105D0308103E
:400240005D0308105D0308105D0308105D0308105D0308105D0308105D0308105D0308105D0308105D0308105D0308105D0308105D0308105D0308105D0308105D030810FE
:400280005D0308105D0308105D03081010B5054C237833B9044B13B10448AFF300800123237010BD5C48020800000000EC400810084B10B51BB108490848AFF3008008484B
:4002C000036803B910BD074B002BFBD0BDE81040184700BF0000000060480208EC40081024430208000000007047EFF3108072B6704780F310887047FFF7F6FF72B6114C0E
:40030000114DAC4209DA21686268A368043BA2BFC858D050FAE70C34F3E70C490C4A00209142BCBF41F8040BFAE70A480A490860BFF34F8F00F094F900F06EF900F01EF89C
:40034000FEE70000F0400810084108105C480208284C02080040020808ED00E0FEE7FEE700B504207146084202D0EFF3098001E0EFF30880043002F033FBFEE710B5ADF6D7
:40038000080D62B62D4C2E4A2E49204601F0D4FF236843F00043236001F0BEF82A4B00934FF48E731A462949294801F093FE00F09DF900F01DFC00F0E3FB28B900F0A8F973
:4003C00000F0ACFA00F014FC4FF40062002102A802F075FB1D4BB3F8B2200292B3F8BC200392B3F8C6200492B3F8D0200592B3F8DA200692B3F8E4200792B3F8EE200892CF
:40040000B3F8F8200992B3F802210A92B3F80C310B9302A90F4B186802F010FA002407E00C4B1B6853F824100B4802F051FB0134092CF5DD00200DF6080D10BD0000664011
:40044000EC4B020810400810B04B02088C4A0208000064408C420208403A081038B514460D4601B122B940F22C51044802F0A8FA22462946024801F003FC38BD483A08108A
:4004800000006640704700BF5C4AD2F8803303F00F0303F1D00152F8212002F00702032A04D0042A05D092B9554914E0554A116811E003F1C002514951F8222002F01F02D5
:4004C000112A06D0132A04D04FF4FA4103E04E4901E04FF400418BBB484BD3F8902502F00100D3F88825C2F30172D3F8883513F0405F07D0414BD3F88835C3F30173012B26
:4005000002D102E0012300E0002303B108B9032A46D13A48D0F88025C2F31103D0F88425C2F30C02D0F88005C0F300600130B1FBF2F202FB03F2B2FBF0F131E0012B2FD15C
:400540002E4BD3F8402602F00100D3F80026C2F30172D3F8003613F0405F07D0274BD3F80036C3F30173012B02D102E0012300E0002303B108B9032A12D12048D0F80026CB
:4005800002F07F02D0F80036C3F30423D0F80006C0F3044002FB01F2B2FBF3F2B2FBF0F1164BD3F88033C3F3011321FA03F215494A601648D0F89030C3F3072301330069F4
:4005C000000E0130B2FBF0F08860B2FBF3F3CB600B6103F5742202F23F220D48A0FB0202C2F387420A7503F2E7330A4AA2FB03239B098B61DB03CB61704700BF00002640AD
:4006000000127A009042020800366E010000214083DE1B43D34D621008B5104BD3F8802122F0404242F08042C3F88021D3F8802142F00042C3F88021D3F8802122F00102D6
:40064000C3F88021FFF71EFFFFF71EFF00F022F800F028F802F0CCF808BD00BF0000264008B5FFF742FE074AD2F8883043F47003C2F88830BFF34F8FBFF36F8FFFF739FEEF
:4006800008BD00BF00ED00E008B5012001F094FA08BD00BF08B500221146042001F01AF808BD00BF10B5064801F0D0F802F0F5F90446044801F036F9204602F0F2F910BDB5
:4006C00078480208883A081008B5074B1B7833B900F0F8F800F018F90122034B1A7000F039F800F03FFB08BDF849020810B5FFF7EBFF044610B900F07BFA044600F040FA00
:400700000028FBD100F092F900F0DAF9204610BD70B50E4D0026344614E0630904330C4A52F8233004F01F02D34013F0010F07D0284600F047F806462946204600F090F862
:400740001C350134092CE8D9304670BD903B08108C4A020870B500230AE0124A191D02EB8100002444604FF0FF3042F821000133002BF2D00C4C0A230FE06668A27E094BFD
:400780002B4400211976012A05D1206918B1228BF17902F094F91C342B465D1E002BECD170BD00BF8C4A0208903B081030B40B884A889C1A0025CD800079844200DDCC8085
:4007C00030BC70472DE9F84307468468466890F81A900025A8460BE04A462146304600F085F9804621463046FFF7E0FF0A3401353B8B9D42F0D34046BDE8F883F0B50C8BDD
:400800008D684F680A69012324E010EA030403D17E88B979314402E07988BE79891BEE88B14201D3002100E01946A14202D01678013E1670A14201D014783CB920EA03004A
:40084000084309B9F97900E0012111705B000A350132744604F1FF3E002CD6D1F0BD00BF38B504468A7E154B03441D7E012A04D12846FFF7C3FF054604E040F226411048B7
:4008800002F09EF80D4B23441D76620904F01F04012303FA04F445B90432084B03EB8202536823EA0404546038BD0432034B03EB820253681C43546038BD00BF8C4A0208F9
:4008C000D43A081010B50E4C4FF48E720021204602F0F5F84FF65C4323804FF41063638041F66A03A3800A236384042384F824308C22044904F1260002F0D6F810BD00BFB6
:400900008C4A0208043B08100023024AD380024A136070478C4A0208244A020870B5002635463F4B1B68032B06D102F0B6F801223C4BDA8002F0B5F83A4BDC88E4B2631ED5
:40094000052B23D8DFE803F003070C14191E0125334B1D601AE00022314B1A60012515E0FFF7C4FE00222E4B1A60012635460DE002222B4B1A60012508E00022284B1A6056
:40098000012503E00322264B1A6000258DB102F084F8244BDB88DBB29C4207D1214AD3886FEA43436FEA53439BB2D38002F079F800251B4B1B68012BB3D0022B2ED1194A55
:4009C00092F81631DBB292F81721D2B2092B25D8C3EBC300810014480144098B8A421DD21049088980B2B1F8181189B2884215D0C3EBC30399000C4B19448D6802EB820241
:400A0000540002F04AF8074B1A8992B2A3F818212A5B92B2A3F81A2102F043F8304670BD244A02088C4A0208903B0810704700BFC9B2062902D083180021197130F81210F5
:400A400000EB42035980024400231372704700BF70B506460D46012305E0224629463046FFF7E6FF23465C1E002BF6D170BD00BF70B5084DC3001A1A940022462C44A66868
:400A800001EB81014C002A44917E3019FFF7E0FF70BD00BF903B081038B50546C0EBC0029300064A13441B8B04E021462846FFF7DFFF23465C1E002BF7D138BD903B081052
:400AC00010B50A2303E02046FFF7E6FF23465C1E002BF8D110BD00BF00FA03F3C2F5807001FB00F102FB0310000A70472DE9F04107460D461646012338E035F8140005EB78
:400B000044035988884207D3421A2B194FF0000E83F808E0012301E00A1A00238BB97B799A420ED92B191B7A3A7A934205D3224631462846FFF77CFF17E02A190133137267
:400B400013E0F3B2062B10D005EB040898F804E0082301224EEA0121FFF7BEFFC0F30F2205EB44035A8088F8040023465C1E002BC3D10020BDE8F08100230B73704700BF99
:400B8000024BD86800F08000704700BF8C4A020810B50F4BDB6813F4803F0ED109280ED8430904330A4A52F8233000F01F02D34013F0010F05D1012404E0112402E00124FE
:400BC00000E000240CB900F073FC204610BD00BF8C4A020808B5054BDB6813F4803F03D100F0B6FB002008BD112008BD8C4A0208124BDB6813F0800F1AD110B500244FF070
:400C0000FF3312E02046FFF7C3FF034660B9082C03D801220A4B1A7002E00022084B1A70FFF7D8FF034606E00134092CEAD902E0112318467047184610BD00BF8C4A020800
:400C4000284A020830B583B00025074C08E02179002300930E22206801F02EFE08340135092DF4D903B030BDA83C081010B51C4A53780133DBB253705078FFF789FF044640
:400C800050B9174B5B78DBB2092B02D10022144B1A70FFF79FFF1FE0114B5B78DBB2092B11D1104B1A8901321A81DA6822F08002DA60DA6822F07F42DA60DA6842EA0064F5
:400CC000DC60002408E0074BDA6822F07F42DA60DA6842EA0062DA60002CC8D110BD00BF284A02088C4A020810B50146124BB3F90030002B0DDB5A0903F01F03012404FA61
:400D000003F320320D4840F82230BFF34F8FBFF36F8F094C204600F053FCB4F90030002B08DB590903F01F03012202FA03F3034A42F8213010BD00BFBC3A081000E100E0A8
:400D400010B5002409E0C4EBC4029300044A134459682046FFF710FF0134092CF3D910BD903B081008B5FFF7EBFFFFF76BFF00F08DF9002008BD00BF70B5002514E0C5EBDD
:400D8000C50293000A4AD658002404E006EBC40000F02AFB0134C5EBC5029300044A13441B7E9C42F2D30135092DE8D970BD00BF903B081010B50B4A536823F0F853536083
:400DC000094C80236360A36A23F0704343F0C043A362012001F0E8FDA36A23F07043A36210BD00BF70003140800332400F4B1B78C3EBC3039A000E4B1A4453680D4AD2F86B
:400E0000D02091B2188801238340013B994206D2094B1B680949097823F811207047064A12680649097822F811307047294A0208903B081000003640A84B0208F83C081091
:400E400010B5204B1B78C3EBC3039A001E4B1A44127E013A1D4B1B78DBB29A421AD91B4A13780133DBB2137016480378C3EBC3039900154B19448C68137803EB8303590095
:400E80002144134B19600078117800F09BFA00F0E1F910BD00220D4B1A700E4AD36823F48033D3600C4B1B78012B02D1FFF7DEFE10BD084BDA6822F08002DA601A89013284
:400EC0001A8110BD294A0208903B08102A4A0208A84B02088C4A0208284A020810B50C4B1B78C3EBC3039A000A4B9B580A4A147803EBC404094B4FF483721A601B68FFF739
:400F000075FF204600F070FAFFF79AFF10BD00BF294A0208903B08102A4A0208F000364001390843014B1860704700BF000236400F4B1B6823F4F8730E4A92F824100E4A1A
:400F4000B2FBF1F20D498A4204D843F02003084A136070470A498A4204D843F03003044A1360704743F04003014A1360704700BFB04202088C4A020880F0FA02001BB70074
:400F800000366E01014A024B1A60704700008301000436400023164A136002F5927213600432136006212C3A11604FF48071083A11600121903A1160A2F580724FF48371B6
:400FC000116012680B4A136003220B4B1A604FF4FA6300E0013B094A126812F0040F01D1002BF7D113B90822034B1A60704700BF8C013640F800364040033640F000364022
:401000001B4B4FF483721A601B681A4BB3F90030002B08DB590903F01F03012202FA03F3154A42F821300023144A136030321360043213602C3A13605021983A116001212F
:40104000643A11600C3A136002220D4B1A604FF4FA6300E0013B0B4AD2F8842012F0070F01D0002BF6D140F20132074B1A607047F0003640BC3A081000E100E08002364043
:40108000F8003640000036404003364010B5FFF773FEFFF78FFE4FF480323B4B1A603B490B6843F080530B600023394A136002F5E07213600C32136060321360A2F5CE7225
:4010C000136002F582721360083A136031480360A2F5807213604FF0487402F5A87214602D4CA26A22F07042A262A4F58134A4F58874626822F0F85242F08062626004F5ED
:40110000A02404F50974226842F4805222604FF48074224A14600A6842F080520A604FF0807204390A6040F64134A1F58E710C6001F584710B600260FFF724FF184B93F827
:401140002430013BFF2B09D81649D1F8002822F47F421B029BB21343C1F80038FFF7E8FE114B1B6843F0004343F480530F4A13600F220F4B1A600022A3F588731A600A2295
:4011800003F590731A6010BD04023640A8023640F40036408402364080033240A00236408C4A020800000140B0420208000036400003364010B5044601F06FFC06490B68A5
:4011C00023F07F02054B1B7823445B7A13430B6001F067FC10BD00BF00043640F83C081010B401228A40531E40B10F2904D9A2F10A03B3FBF0F301E0B3FBF0F30BB9012025
:4012000000E018465DF8044B704700BF08B5094B1B78C3EBC3039A00074B1A44536859891B7B1804053B012B01D840F00070FFF777FE08BD294A0208903B081008B5027BF6
:4012400001884089FFF7CCFF80B2014B186008BD1403364008B50D4BB3F90030002B0DDB5A0903F01F03012101FA03F32032084941F82230BFF34F8FBFF36F8F0122054BA3
:401280001A60FFF787FEFFF7BBFE08BDBC3A081000E100E08001364008B5064AD36843F4803343F08003D360172001F07DFBFFF7D1FF08BD8C4A0208F8B5054601F0EDFB08
:4012C00006462F682C79072C04D94FF464711F4801F076FBA400BA6A0F23A34022EA0301062202FA04F30B43BB622C682D79072D04D940F24521154801F062FB04F13F43FD
:4013000003F54E03DB0903F1806303F544331B01032D0BD81A68ED001F21A94022EA01010B2202FA05F50D431D600BE0043D5A68ED001F21A94022EA01010B2202FA05F540
:401340000D435D60304601F0ACFBF8BDFC3C081070B5164E3378164CC3EBC3039A0022445068144D00232B703378C3EBC3039A00224491682B7803EB83035A000A440E4B3C
:401380001A60FFF717FF3378C3EBC3039A00A358287803EBC000094B1860FFF78DFF0848FFF7A2FCFFF778FF70BD00BF294A0208903B08102A4A0208A84B0208AC4B02083E
:4013C000DD0E081008B5C0EBC0008300044AD05800EBC100034B1860FFF76EFF08BD00BF903B0810AC4B0208F8B5064601F055FB074634683579072D04D940F245212248A8
:4014000001F0DEFA04F13F4303F54E03DB0903F1806303F544331B01032D08D81A68ED001F2101FA05F522EA05051D6008E0043D5A68ED001F2101FA05F522EA05055D60B6
:4014400035683479072C04D94FF464710E4801F0B7FAA400AA6A0F23A34022EA03010E2202FA04F30B43AB6235683479072C04D940F24731044801F0A3FA0123A3406B60F7
:40148000384601F00EFBF8BDFC3C081008B5064B1B78012B06D1054B1868FFF7A5FF0022014B1A7008BD00BF2B4A0208AC4B020870B5104DC0EBC00293002B445C68C0B27E
:4014C0000D4E3070FFF7E2FF3378C3EBC3039A00AA580A4B1A600A4BDA6822F07F02DA603178DA680A43DA602046FFF7A7FEFFF78DFE70BD903B0810294A0208AC4B0208AA
:401500008C4A020808B50249024800F0ABFE08BDB04B02080000644008B5114B1B785BB9104A1149114800F00BFE1149114800F047F801220A4B1A700E4BB3F90030002B68
:4015400008DB590903F01F03012202FA03F30A4A42F82130054A136843F00043136008BD2C4A0208B04B02083C3D08100000644005150810CC3A081000E100E038B50C4B96
:401580009A680C4B9A420ED10D46044619B9FC21094801F015FA04F11003064A52F8230042F8235038BD1030044B53F8200038BD00ED00E000400208443D0810000008101C
:4015C00070B338B504460D464368072B03D93621154801F0F5F9B4F900306268002B08DB5201D2B203F1604303F5614383F8002305E003F00F035201D2B20C49CA540C4B0A
:401600009A680C4B9A420DD11DB94521064801F0D7F92946B4F90000FFF7B0FF002038BD05487047002038BD443D081014ED00E000ED00E0004002080100560038B503691C
:40164000002B0DDA0D4604460B0C1B0423B140F2B321044801F0B4F9A9B26160002038BD014838BD883D081001008A0038B50368002B01DA002300E0094B73B90D4604466C
:40168000C2600B0C1B0423B140F29A21054801F097F9A9B2A160002038BD014838BD00BF01008A00883D081038B504460D4619B99921064801F084F92369002B03DAE368BC
:4016C0002B60002038BD024838BD00BFC83D081001008A000F2840D8F8B515460E46044682B979B90F2804D940F2A911214801F067F9600100F1804000F50C101E4B186084
:401700000020F8BD5DB366B316F01F0F2BD10F2C04D940F2A911174801F052F9640104F1804404F50C14144F3C607E60BD60F2080021284601F0C3F900212046FFF77EFF7B
:401740003A4652F8040B0021FFF790FF68B900213868FFF773FF50B9F8BD084870470748F8BD0648F8BD0548F8BD0548F8BD0448F8BD00BF083E0810304A020803018A00A0
:4017800001018A002DE9F0411B4B1B68DC68236883422CD90D464609A0EB4610012303FA00F819B901F079F9074600E00027124B18680368002B01DA002300E00F4B83B9C8
:4017C000626852F8263018EA030F05D023EA080342F82630002400E0094C0021FFF72EFF00E0084C25B9384601F05BF900E0064C2046BDE8F08100BF304A020801008A0000
:40180000020188000301880004018A000B4B1B68DB681A6882420CD94109A0EB4110012202FA00F05B6853F82130184203D004487047044870470448704700BF304A0208AE
:401840000101880004018A0000018800024B1B680BB9014B186070473C4A02082DE9F8430446884691461E46089F2A4B1B681BB9B421294801F0A4F8072C03D9B5212648EA
:4018800001F09EF8234B1B682C2000FB04F01C18F5B21D50C6F307236360360CA6600F2D04D940F2A9111D4801F08AF86D0105F1804505F50C15256165680F2D04D94FF46F
:4018C000E271164801F07CF8154B03EB45156561A668330C1B0423B14FF4F1710F4801F06FF8330C1B0423B140F2E3110B4801F067F8B3B243EA0646AE60C4F81C90C4F8C5
:4019000020800023A36117B1B7F90030A381BDE8F88300BF3C4A0208483E0810083E081000102340F0B58FB0044618B950212C4801F046F8A369072B03D95421284801F033
:401940003FF8E36A1BB95621254801F039F8E368072B03D95721224801F032F8236A072B03D958211E4801F02BF8236B1BB959211B4801F025F807AE04F114050FCD0FC664
:401980002F6802AD26460FCE0FC533682B60079B1933ADF83030089B0D93A26AE16A0CAD00953B460A98FFF759FF00210091069B0A460598FFF752FF216B2846FFF700FEDD
:4019C000BDF93030002B08DB590903F01F03012202FA03F3034A42F821300FB0F0BD00BF483E081000E100E0F8B506460F461D4614461AB9FD21264800F0E2FF254B1B68A7
:401A00001BB9FE21224800F0DBFF072E03D9FF211F4800F0D5FF072F04D94FF480711C4800F0CEFF1B4B1B682C2101FB063001FB07314B68012202FA03F31B04466802FA8E
:401A400006F60269EAB18F69EFB91268002A01DA002200E0104AC2B92288134323600369DC6001238B614D620469330C1B0423B140F29A21094800F0A3FFB2B2A26000208F
:401A8000F8BD0748F8BD0748F8BD0648F8BD00BF483E08103C4A020801008A00083E081004028A0007028A00F8B505460F461646124B1B6823B940F26111114800F080FF9C
:401AC000072D04D94FF4B1710D4800F079FF0B4B1B682C2404FB0534236A23B94FF4B371074800F06DFFE369B34204D9236A43F826700020F8BD0348F8BD00BF3C4A020837
:401B0000483E08100A028A0070B582B000230193044620B94FF4EA71264800F051FF236923B940F2D511234800F04AFF636923B94FF4EB711F4800F043FF236A23B940F255
:401B4000D7111C4800F03CFF6369DD682A0C1CD012041A601B6820690369002B15DA01A9FFF7A2FD60B9019803681E0CDBB2E269934206D2226A52F8233013B1984700E0E2
:401B8000002631462069FFF759FDADB275B16369ADB21D601B68636A1BB198470023636202E0A36A03B198470023A36163691B6802B070BD483E081010B504460B4B1B6846
:401BC00023B94FF4DA710A4800F0FAFE072C04D940F2B511064800F0F3FE044B1B682C2000FB0430FFF790FF10BD00BF3C4A0208483E081010B4D0F8003303F00F03072B88
:401C000006D900230DE0D0F84043CC54013300E000239342F7D306E0D0F8404321F8134001339342F8D35DF8044B704710B51446D0F80833C3F308039A4200D31C4622464C
:401C4000FFF7D8FF204610BD10B4D0F8003203F00F03072B06D900230DE0CC5CC0F84042013300E000239342F7D306E031F81340C0F8404201339342F8D35DF8044B70477D
:401C800010B51446036813F4006F01D0802200E04022D0F80832C3F30803D31AA34200D81C462246FFF7D0FF204610BD02E0C0F84012013A002AFAD1704700BF10B514468F
:401CC000036813F4006F01D0802200E04022D0F80832C3F30803D31AA34200D81C462246FFF7E4FF204610BD4B6843F020034B60D0F8043343F48033C0F80433D0F8043380
:401D000023F48033C0F80433D0F804330023C0F8C83FC0F8883F70474B6813F0200F0BD0036823F00043036000238366C366036843F00043036003680B78DBB2062B03D1F6
:401D40000023C0F8883F06E00023C0F8C83F036E23F4204303664B6823F010034B600B7E83B10B78DBB2062B05D00A69CB689A4203D0022202E0012200E000224B681343C5
:401D80004B600FE00B78DBB2062B05D04A69CB689A4203D0082202E0042200E000224B6813434B6000230B70704700BF4A7A1AB10B7A5340DB4300E0FF23D0F8102322F40A
:401DC0007F025B0403F47F031343C0F81033704738B504460D4601230B764B7A43B3D0F840335B080122C0F8C02FD0F8C02F0A7A934202D04A7A93420FD16A7A934201D14A
:401E000000232B761023C4F8403FD4F8403F40F25113C4F8483F01220BE040F2AE512C4800F0CEFD40F24113C4F8883E022200E00122D4F8043243F48033C4F80432D4F805
:401E4000043223F48033C4F80432D4F80432E266012A3CD16B6843F010036B60636E13F0100F16D006232B702B7E3BB16A6A29690A44EA61AB6A5B1A2B6206E02A6B696975
:401E80000A44EA616B6B5B1A2B620123C4F8883F38BD02232B702B7E0BB1AB6A00E06B6B2B62236813F4006F01D0802300E0402323B940F25E21064800F082FDD4F8043393
:401EC00023F0FF03C4F804330123C4F8C83F38BD883E081038B505460C460A6A42B1C969FFF7CEFE236A1B1A2362E3691844E061236A23B98022FF212846FFF7DFFE38BDAA
:401F000038B50546802906D9A1F18003802B0ED8A1F181040CE0036E43F40043036609B14C1E00E000240023C5F8C83F00E03F242B6813F4006F01D0802300E040239C42F4
:401F400004D340F25E21064800F03AFDD5F8041321F0FF03E1B21943C5F8041338BD00BF883E081038B505460C460B78023B032B00F28880DFE803F002025B73D0F84033DF
:401F80008A7A012A0FD10A78D2B2022A07D10122C2661A02CA6003220A70002204E0CA681343012200E00122002A6BD0226A934207D2227E0AB1236100E06361E36001239B
:401FC00006E0237E0BB1236900E06369E3600223EB66012B56D1237E5BB1626A21690A44E261E36A994201D25B1A00E0002323620AE0226B61690A44E261A36B994201D240
:402000005B1A00E000232362637A13B9236A7F2B02D80423237038BD2B6E43F400532B66216A2846FFF76CFF0523237038BDD0F840230B6A6BB10123C366CB691A700B6A40
:40204000013B0B62CB690133CB61CB680133CB6038BD0223C3660023C0F8C83F38BDD0F80423D2B20132C969FFF7E0FD216A091A2162E3691844E0612846FFF741FFE368C3
:402080000133E36038BD00BF70B505460C46164611F0800F04D04FF407710D4800F090FC737A9C4204D140F21D21094800F088FC3472D5F8103323F0FF036400E4B21C43EE
:4020C000C5F8104331462846FFF770FE70BD00BFCC3E0810F8B50F461D46069C16462AB121B94FF41A71074800F06AFCAE4204D240F26921034800F063FC6762A662E562BA
:40210000F8BD00BFCC3E081070B506460D46144611F0800F04D040F28D21084800F050FC237A9D4204D140F28E21044800F048FC657221463046FFF739FE70BDCC3E081039
:4021400000287DD070B5054600297BD0002A7BD00B7913B13E4B984278D116460C4691F90130002B03DA4F213A4800F029FC94F90230002B03DA5021364800F021FC627888
:40218000A3789A4203D15121324800F019FC2378012B03D952212F4800F012FCE378012B03D953212B4800F00BFC2378012B02D14FF4803200E00022237913B14FF4807370
:4021C00000E00023134343F400632B60224B2B6640F20713C5F800330023C5F80433237833B97372324661782846FFF74DFF09E0324661782846FFF747FF3246A1782846C0
:40220000FFF782FF154BC5F800324023C5F804320020C5F8C80EC5F8880EC5F8C80FC5F8880FC5F8080F40F25113C5F8483F70603070E378B372B062F0623061706170BD03
:4022400007487047064870BD054870BD044870BD00006940CC3E081000080040070101000100AA0070B504460E46D0F88C3E13F0010F05D001230B70C0F8803ED0F8803E4B
:40228000D4F84C5F40F201131D420CD031462046FFF72AFD40F20113C4F8403FD4F8403F45F010050BE03378DBB2052B07D115F0100F04D00123C4F8C43FC4F8C83FD4F881
:4022C000CC3F13F0010F08D031462046FFF74AFE0123C4F8C03FD4F8C03F15F0100F0AD031462046FFF718FD1023C4F8403FD4F8403FD4F84C5F15F0400F0DD031462046FF
:40230000FFF766FD0123C4F8803ED4F8803E4023C4F8403FD4F8403FD4F88C3F13F0010F08D031462046FFF7D5FD0123C4F8803FD4F8803F70BD00BF002800F0A98170B58F
:402340000546002900F0A6819E4B984200F0A48116460C460B78022B03D942219A4800F02FFB637B023BDBB2062B03D94321964800F026FBA37B3BB1022B05D0032B03D04C
:402380004421914800F01CFB94F82130012B03D945218D4800F014FB94F82830012B03D94621894800F00CFB2378012B06D86368083B082B94BF0023012307E0A37F2BB139
:4023C0006368013B062B94BF002301231BB148217D4800F0F5FAA368053B042B03D94921794800F0EDFA6369FF2B03D94A21764800F0E6FAA369FF2B03D94B21724800F0E7
:40240000DFFAA37C6BB1237833B9A368092B05D1A37B2BB1012304E0012302E0012300E000231BB14D21684800F0CAFA636B23F4366323F00D031BB14F21634800F0C0FAED
:40244000E36B23F4EE6323F003031BB150215E4800F0B6FA2378022B01D1A37F13B163685A1E00E00022237F13B14FF4803100E00021A068082802D84FF4006300E000232F
:40248000194302F00F030B4343F000732B60236B2A6812F4006F01D0802200E04022934203D36521484800F08BFAA36B2A6812F4006F01D0802200E04022934203D36621C1
:4024C000414800F07DFA636A2A6812F4006F01D0802200E04022934203D367213A4800F06FFA23781B0603F040732B64637F0BB1402200E00022A17C11B14FF4806300E07D
:4025000000231343227C12B14FF4807200E000221343627C12B14FF4007200E000221A43E36A013B1B0403F470231343627B013A02F007021343A27B120102F030021343E4
:40254000AB64237B13B14FF4807200E00022E17B21B92378022B03D1012302E0012300E0002313B14FF4007300E000231A43A368013B03F00F031343C5F80033227DA3699D
:402580001B0403F47F031343C5F81033E26AD5F8003303F00F0303339A4201D3102A03D97D21094800F00CFAE37F23B12378012B03D0002302E0002300E0012333B14FF4D8
:4025C000807204E000006940503F08100022637B013B03F007031A43A37B1B0103F0300313436B64237B13B14FF4807200E00022A368013B03F00F0313432278012A02D1C7
:402600004FF4803200E000221343C5F8003294F83030C5F8043394F8203013B14FF0007100E0002194F82120012A02D14FF0807300E000230B4394F82820012A02D14FF4CA
:40264000803200E00022134394F8242013432B6594F83830C5F80432636B23F4926323F002031B051B0DC5F8C83FE36B23F08C035B055B0DC5F8883F86B1002070603060C2
:40268000B060F0603062F0623063054B736370BD04487047034870BD024870BD002070BDEFCDAB000160AA0000F17043B3F5801F01D2580A704700F16C43B3F5004F03D2FC
:4026C0005B0A43F48030704700F16A40B0F5004F03D2400A40F4003070474FF0FF30704710B50446FFF7E0FFB0F1FF3F04D0C4F308041CB1002010BD002010BD012010BDFA
:402700001F4B98422DD00CD840282ED003D8E8B1102828D02FE0802829D0B0F5807F28D029E0184B984228D006D8B0F1204F0DD0154B984212D01EE0144B98420AD00133B4
:40274000984209D0023B984215D101E0002070470F4870470F4870470F4870474FF4A0007047074870470D4870470D4870470D487047034870470C4870474FF4A400704758
:4027800006005200010000F0090000A0040000F0010052000200520003005200010050000200500005005200FF00520008B50C4B1B69002B12DB0B4B1868FFF7A1FF0122AD
:4027C000094BC3F88C24084BD3F80C34002BFAD1054BD3F88C34002BF5D108BD034808BD20002340404A0208000025400200500000B583B05523ADF80030002301930C4916
:402800006846FEF7DDFEBDF90030002B08DB590903F01F03012202FA03F3064A42F82130022205490120FFF73FF903B05DF804FBA543020800E100E07943020838B5054646
:402840000C46FFF74DFF28B334B3FDF71DFE134B134A1A6000225A609D60DC60114A13691169C1F307221B0E591C02FB01110E4B03FB01F10D4B1B680D4AA2FB03239B09EC
:40288000B1FBF3F101F5195108314FF4807001F0CFF838BD074838BD064838BD404A02080001000500002140C0EA210194420208D34D6210060052002DE9F04104460D4613
:4028C000174698469DF81860072903D9D121344800F076F837F00F0303D0D221304800F06FF8B8F1010F03D9D3212D4800F068F836F01F0303D0D421294800F061F8226848
:402900000123AB4022EA030308F0010808FA05F843EA08032360A36AA9000F228A4023EA020207F00F0303FA01F71743A762072D04D940F245211B4800F042F836F01F031A
:4029400004D040F24621174800F03AF804F13F4404F54E04E40904F1806404F544342401032D0DD82268ED001F23AB4022EA030306F01F0606FA05F51D432560BDE8F0816F
:40298000043D6268ED001F23AB4022EA030306F01F0606FA05F51D436560BDE8F08100BF903F0810D03F081008B5034B1B7800FB03F000F069F808BDA442020801BEFEE78D
:4029C00038B50D46044C18220146204600F098F8A5610020FFF7F2FFC8470208FEE700BF08B50268254BDA6142681A6282685A62C2689A620269DA6242691A6382695A63DB
:402A0000C2699A631E4A916AD963D16A1964516A5964516B9964926BDA64F1EE103A13F0900F27D0026A154B1A65426A5A65826A9A65C26ADA65026B1A66426B5A66826B96
:402A40009A66C26BDA66026C1A67426C5A67826C9A67C26CDA67026DC3F88020426DC3F88420826DC3F88820C26DC3F88C20026EC3F89020FFF7B2FF08BD00BFC84702084E
:402A800000ED00E0000000000230800803D001300238FCD100BF00BF7047EFF3108072B6704780F31088704710B5431E0A44914204D011F8014B03F8014FF8E710BD02448F
:402AC0000346934202D003F8011BFAE7704700000FB40A4B13B51C6824B1A36913B9204600F062F805AB049AA1680193204600F06DF902B0BDE8104004B070471843020858
:402B000010B5034642B111F8014B03F8014B013A002CF7D11A4400E010BD934202D003F8014BFAE710BD0000014900F0A9B800BFBD360810002310B50446036043608360A2
:402B400081814366C281036143618361194608225C30FFF7B4FF054B6362054BA362054BE362054B2462236310BD00BF5D3308107F330810B7330810DB33081070B568238C
:402B80004D1E5D430E4605F1740100F097F8044640B1002180E842000C30A06005F16802FFF78DFF204670BD836910B5044633BB8364C3640365124B124A1B6882629842BC
:402BC00004BF0123836100F01FF86060204600F01BF8A060204600F017F80022E06004216068FFF7A7FF01220921A068FFF7A2FF02221221E068FFF79DFF0123A36110BD78
:402C000054400810292B0810F8B51C4B1E68B369074613B93046FFF7C7FF4836B4687368013B04D4B4F90C507DB16834F8E733680BB13668F2E704213846FFF79FFF3060AB
:402C40000028F6D10C233B60F8BD4FF6FF73E3810123A38165662560A560656025616561A5610822294604F15C00FFF728FF6563A563A564E5642046F8BD00BF5440081068
:402C80002DE9F8438046894600F14804002694B1A5686768013F0CD4AB89012B07D9B5F90E30013303D029464046C84706436835F0E72468EBE73046BDE8F88370B5CD1C94
:402CC00025F0030508350C2D38BF0C25002D064601DBA94202D90C23336046E000F0E0FD234B1C681A462146A1B10B685B1B0ED40B2B03D90B60CC18CD501EE08C420DBF5D
:402D000063684B686360136018BF0C4615E00C464968E9E7174C23681BB9304600F00EFB20602946304600F009FB431C18D0C41C24F00304A0420DD12560304600F0B1FDC9
:402D400004F10B00231D20F00700C31A0ED05A42E25070BD211A304600F0F0FA0130EBD10C233360304600F09CFD002070BD00BF844A0208804A02089368013B002B10B42F
:402D8000936009DA9469A34202DBCBB20A2B03D15DF8044B00F026BB1368581C10601970C8B25DF8044B7047F8B506460F461446D518AC4208D03A4614F8011B3046FFF757
:402DC000DBFF431CF5D100E00020F8BD2DE9F04F9DB00C4617460393064618B183690BB9FFF7E2FE7F4B9C4201D1746808E07E4B9C4201D1B46803E07C4B9C4208BFF4681F
:402E0000A38918070CD5236953B10023099320238DF8293030238DF82A30DFF8D4B144E02146304600F044FB0028EED04FF0FF30D5E0039A111D12680391002A80F28C80AE
:402E4000524243F002000792049098F800302E2B00F08480032298F80010654800F0D0FC48B14023CBEB000003FA00F0049B1843049008F1010898F800105E488DF828108F
:402E8000062208F1010700F0BBFC002800F09580594B002B40F08880039B073323F0070308330393099B53440993B846454615F8013B1BB9B8EB07090FD003E0252BF9D03D
:402EC000A846F3E74B463A4621463046FFF76CFF01307FD0099B4B44099398F80030002B78D000234FF0FF3204930793059206938DF853301A930127052229783F4800F029
:402F00007FFC05F10108049B38B13C4A801A07FA00F0184304904546EEE7D90644BF20228DF853201A0744BF2B228DF853202A782A2A3FF47EAF079A00210A20A846013544
:402F400098F80030303B092B03D800FB02320121F4E700293FF479AF079276E798F801302A2B0BD1039B1A1D1B680392002BB8BF4FF0FF3308F1020805936BE700230593D7
:402F800008F1010019460A258046013098F80020303A092A03D805FB01210123F4E7002B3FF458AF059155E703AB00932246144B04A93046AFF3008007E003AB0093224635
:402FC0000F4B04A9304600F093F8B0F1FF3F82467FF468AFA3895B063FF528AF09981DB0BDE8F08F584008107840081098400810BE400810C240081000000000B8400810CE
:40300000A92D08102DE9F04791461F460A698B68DDF820809342B8BF1346C9F8003091F8432006460C4612B10133C9F800302368990642BFD9F800300233C9F80030256857
:4030400015F0060510D104F1190A07E00123524639463046C04701301AD00135E368D9F800209B1A9D42F1DB94F843302268003318BF012392060FD5E1185A1C302081F850
:403080004300224494F8451082F84310023303E04FF0FF30BDE8F08704F1430239463046C0470130F4D02268D9F80050E36802F00602042A08BF5D1B2269A3680CBF25EA1F
:4030C000E57500259342C4BF9B1AED184FF000091A344D4509D00123224639463046C0470130D5D009F10109F3E70020BDE8F0872DE9F04317460A7E85B06E2A98460646A1
:403100000C460C9B01F1430E00F0AE8011D8632A22D009D8002A00F0BB80582A40F0CA8081F84520834955E0642A1ED0692A1CD0C0E0732A00F0B08009D86F2A2ED0702A52
:4031400040F0B8800A6842F020020A603EE0752A24D0782A3AD0ADE01A6801F14205111D1960136884F84230A8E021681A6811F0800F02D0111D196008E011F0400F02F13B
:403180000401196002D0B2F9003000E01368002B3CDA2D225B4284F8432037E021681A6811F0800F02D0111D196007E011F0400F02F10401196001D0138800E01368227E43
:4031C0005C496F2A14BF0A2208221BE078225A4984F845202268186812F0800F00F104051D6003D1550601D5038800E00368D00744BF42F0200222601BB9226822F0200220
:4032000022601022002084F8430001E049490A226568A560002D08DB206820F0040020602BB9002D7DD175460CE0002B79D07546B3FBF2F002FB1033CB5C05F8013D0346AE
:403240000028F5D1082A0BD12368DA0708D5236962689A42DEBF302305F8013C05F1FF35C5EB0E0323612EE008681A68496910F0800F03D0101D1860136808E010F0400FD3
:4032800002F104001860136801D0198000E0196000232361754616E01A68111D1960156862680021284600F0ABFA08B1401B6060636804E004F1420584F842200123236130
:4032C000002384F84330CDF800803B4603AA21463046FFF797FE013002D14FF0FF3026E023692A4639463046C0470130F5D023689B0710D5002504F1190907E001234A4692
:4033000039463046C0470130E7D00135E368039A9B1A9D42F2DBE068039B9842B8BF184605E00B7884F8423004F142058AE705B0BDE8F083C9400810DA40081038B5064C33
:40334000002305460846236000F056FB431C02D1236803B12B6038BD244C020810B50C46B1F90E1000F0ECFA0028ABBF636DA3891B1823F48053ACBF6365A38110BD2DE9C8
:40338000F0411F468B89DB0505460C46164605D502230022B1F90E1000F0BAF9A389B4F90E1023F48053A38132463B462846BDE8F04100F06BB810B50C46B1F90E1000F0DA
:4033C000A7F9431CA38915BF606523F4805343F48053A38118BFA38110BDB1F90E1000F0D5B80000F8B50F461446064618B183690BB9FFF7D9FB224B9C4201D1746808E018
:40340000204B9C4201D1B46803E01F4B9C4208BFF468A369A360A3891A0709D523693BB123682069181A63699842FDB20FDB08E02146304600F03CF80028F1D04FF0FF3090
:40344000F8BD2146304600F039F90028F6D1A368013BA36023685A1C22601F706269431C934204D0A389DB0707D50A2D05D12146304600F023F90028E0D12846F8BD00BFDF
:4034800058400810784008109840081038B5074C054608461146002222601A46FCF7DEFF431C02D1236803B12B6038BD244C0208324B70B51D6806460C4625B1AB6913B9B2
:4034C0002846FFF771FB2E4B9C4201D16C6808E02C4B9C4201D1AC6803E02B4B9C4208BFEC68B4F90C309AB215071DD4D00602D4092232603AE0510712D5616B41B104F1D3
:403500004403994202D0304600F0CCF900236363A38923F02403A3810023636023692360A38943F00803A38123694BB9A38903F42073B3F5007F03D02146304600F01EF952
:40354000A28912F0010305D00023A36063695B42A36103E0920758BF6369A36023695BB9B4F90C3003F0800080B230B143F04003A3814FF0FF3070BD002070BD184302085A
:4035800058400810784008109840081038B5064C002305460846236000F006FA431C02D1236803B12B6038BD244C02088A892DE9F041054610070C4659D44B68002B02DCCB
:4035C0000B6C002B17DDE66AAEB102F48052002392B22F682B600AB1606D15E0216A01232846B047411C0FD12B686BB11D2B01D0162B03D12F600020BDE8F081A38943F066
:403600004003A381BDE8F081A3895A0705D56368C01A636B0BB1236CC01A00230246E66A216A2846B047431CA38906D129681D293AD8214ACA40D60736D500226260D904FA
:403640002269226004D5421C01D12B6803B96065616B2F600029CED004F14403994202D0284600F01FF900206063BDE8F0810F69002FC0D093070E6808BF4B690F6018BF9E
:403680000023C7EB06088B6002E00744C0EB0808B8F1000FAFDD43463A46216AA66A2846B0470028F1DCA38943F04003A3814FF0FF30BDE8F08100BF0100402038B50B6947
:4036C00005460C46DBB118B183690BB9FFF76CFA0C4B9C4201D16C6808E00B4B9C4201D1AC6803E0094B9C4208BFEC68B4F90C302BB121462846BDE83840FFF757BF0020DC
:4037000038BD00BF58400810784008109840081038B5074C054608461146002222601A4600F05AF9431C02D1236803B12B6038BD244C020870B50E46B1F90E10002990B0D9
:4037400014461D4606DA00232B60B3891A060ED540230EE001AA00F005F90028F3DB029A02F47042A2F500535A425A412A604FF480630020236010B070BD00008B8973B5FE
:403780009E0705460C4610D401AB6A46FFF7D2FF009906462846FFF791FA68B9B4F90C309A0522D443F00203A38104F14703236023610123636118E00D4BAB62A3892060BA
:4037C00043F08003A381009B6361019B20614BB1B4F90E10284600F0D7F818B1A38943F00103A381A0893043A08102B070BD00BF292B081000000000000000000000000068
:4038000001F0FF01102A2BDB10F0070F08D010F8013B013A8B422DD010F0070F42B3F6D1F0B441EA012141EA014122F007047FF000070023F0E80256083C85EA010586EAE1
:40384000010685FA47F5A3FA87F586FA47F6A5FA87F68EB9EED1F0BC01F0FF0102F0070232B110F8013B013A83EA010313B1F8D10020704701387047002D06BF3546033827
:40388000073815F0010F07D1013015F4807F02BF013015F4C03F0130F0BC0138704700BF7047704738B50546002946D051F8043C0C1F002BB8BFE418FFF7F2FF1F4A13681B
:4038C000114613B96360146032E0A3420ED92268A018834204BF18685B68636004BF121822600C6024E0A24203D813465A68002AF9D118681918A1420BD121680144581865
:403900008242196014D1106852685A60014419600EE002D90C232B600AE021686018824204BF10685268626004BF091821605C602846BDE83840FFF7B4BF38BD844A0208F0
:4039400038B5074C054608461146002222601A4600F04AF8431C02D1236803B12B6038BD244C020838B5074C0023054608461146236000F021F8431C02D1236803B12B609B
:4039800038BD00BF244C020838B5064C002305460846236000F018F8431C02D1236803B12B6038BD244C0208024B58221A604FF0FF307047244C0208024B58221A604FF090
:4039C000FF307047244C0208024B58221A600020704700BF244C0208024B58221A604FF0FF307047244C0208024B58221A604FF0FF307047244C0208044A05491368002B14
:403A000008BF0B461844106018467047884A0208284C0208F8B500BFF8BC08BC9E467047F8B500BFF8BC08BC9E4670470000000001B40248844601BC604700BFF14402080A
:403A400025750D0A0000000047656E6572617465645F536F757263655C50536F43365C70646C5C647269766572732F7065726970686572616C2F7363622F63795F736362F4
:403A80005F756172742E68000300000001000000010000000000000005036000040000000100000000000000010000000604600008000000D849020889060810310000006D
:403AC000070000002E000000070000002C0000000700000047656E6572617465645F536F757263655C50536F43365C43617053656E73655F50726F63657373696E672E6396
:403B0000000000001000C409C8C80A031E20100000001000C409C8C80A031E20100000001000C409C8C80A031E20100000001000C409C8C80A031E20100000001000C40988
:403B4000C8C80A031E20100000001000C409C8C80A031E20100000001000C409C8C80A031E20100000001000C409C8C80A031E20100000001000C409C8C80A031E2010003A
:403B800000001000C409C8C80A031E2010000000A83C0810B24A02083E4B020800000000204A02080128000001000101B03C0810C04A0208484B0208000000001C4A0208E3
:403BC0000128000001000101B83C0810CE4A0208524B020800000000184A02080128000001000101C03C0810DC4A02085C4B020800000000144A02080128000001000101A3
:403C0000C83C0810EA4A0208664B020800000000104A02080128000001000101D03C0810F84A0208704B0208000000000C4A02080128000001000101D83C0810064B020897
:403C40007A4B020800000000084A02080128000001000101E03C0810144B0208844B020800000000044A02080128000001000101E83C0810224B02088E4B0208000000005D
:403C8000004A02080128000001000101F03C0810304B0208984B020800000000FC49020801280000010001018004324000000000800432400100000080043240020000006E
:403CC00000053240020000008004324004000000800432400500000080043240060000008004324007000000000532400000000000053240010000000000000047656E65EF
:403D000072617465645F536F757263655C50536F43365C70646C5C647269766572732F7065726970686572616C2F6770696F2F63795F6770696F2E680000000000080001D4
:403D40000000000047656E6572617465645F536F757263655C50536F43365C70646C5C647269766572735C7065726970686572616C5C737973696E745C63795F7379736919
:403D80006E742E630000000047656E6572617465645F536F757263655C50536F43365C70646C5C647269766572735C7065726970686572616C5C6970635C63795F69706360
:403DC0005F6472762E68000047656E6572617465645F536F757263655C50536F43365C70646C5C647269766572735C7065726970686572616C5C6970635C63795F69706352
:403E00005F6472762E63000047656E6572617465645F536F757263655C50536F43365C70646C5C647269766572732F7065726970686572616C2F6970632F63795F6970639D
:403E40005F6472762E68000047656E6572617465645F536F757263655C50536F43365C70646C5C647269766572735C7065726970686572616C5C6970635C63795F697063D1
:403E80005F706970652E630047656E6572617465645F536F757263655C50536F43365C70646C5C647269766572735C7065726970686572616C5C7363625C63795F7363623C
:403EC0005F636F6D6D6F6E2E6800000047656E6572617465645F536F757263655C50536F43365C70646C5C647269766572735C7065726970686572616C5C7363625C6379B3
:403F00005F7363625F657A6932632E630000000047656E6572617465645F536F757263655C50536F43365C70646C5C647269766572735C7065726970686572616C5C736326
:403F4000625C63795F7363625F756172742E680047656E6572617465645F536F757263655C50536F43365C70646C5C647269766572735C7065726970686572616C5C736368
:403F8000625C63795F7363625F756172742E630047656E6572617465645F536F757263655C50536F43365C70646C5C647269766572735C7065726970686572616C5C67702C
:403FC000696F5C63795F6770696F2E630000000047656E6572617465645F536F757263655C50536F43365C70646C5C647269766572735C7065726970686572616C5C67701A
:40400000696F5C63795F6770696F2E6800000000000000000C0000000800000000020000000000000000000000000000000000000000000000000000000000000B000000AB
:404040000000000000000000000000000000000043000000B842020800000000000000000000000000000000000000000000000000000000000000000000000000000000F9
:404080000000000000000000000000000000000000000000000000000000000000000000000000000000000000000000000000000000000000000000232D302B2000686C61
:4040C0004C006566674546470030313233343536373839414243444546003031323334353637383961626364656600000000000000000810004002088C0200001041081013
:404100008C4202083C0500005C480208CC030000000000140048E80100127A0000093D0000127A0000127A0008000000401F00000000A00F2000000002FF00000000000083
:404140005840081078400810984008100000000000000000000000000000000050400810000000000000000000000000000000000000000000000000000000000000000027
:4041800000000000000000000000000000000000000000000000000000000000B8420208B10208108D0208100000000080B2C200E8B10F4B1B68002BFBDA3E210D4B1960EF
:4041C00041F61E7104331960A3F584730621C3F8181522F07F42C3F81C25D3F81C350022034B5A60044BD3F81C35002BFADA7047E0002340040126400000264008B54378E9
:40420000FF2B0ED100F0FAF9064BDB685A68136843F001031360136813F0010FFBD100F00DFA08BD8000234038B54FF260034B4AD3589CB200F0E2F90546494B9A68631E52
:40424000032B00F28780DFE803F002234465032A06D10822434B9A60414B9B68032BFBD03F4A13691069C0F307221B0E581C02FB00003D4B03FB00F03C4B1B683C4AA2FBBA
:4042800003239B09B0FBF3F08230FFF78FFF61E0032A06D10822334B9A60314B9B68032BFBD02F4A13691069C0F307221B0E581C02FB00002C4B03FB00F02C4B1B682C4A58
:4042C000A2FB03239B09B0FBF3F08230FFF76EFF40E0032A06D10822224B9A60204B9B68032BFBD01E4A13691069C0F307221B0E581C02FB00001C4B03FB00F01B4B1B6887
:404300001B4AA2FB03239B09B0FBF3F08230FFF74DFF1FE0032A06D10822124B9A60104B9B68032BFBD00E4A13691069C0F307221B0E581C02FB00000B4B03FB00F00B4BF7
:404340001B680B4AA2FB03239B09B0FBF3F08230FFF72CFF284600F071F938BD0000254000002140A000234040420F0094420208D34D6210F8B505460E462A4B1B69002BA4
:404380001FDB002000F032F9274B98421BD00023264A0121184600F041F918B1244C15E0013400E00024002000F020F91E4B984202D0204B9C42F3D91E4B9C4205D91C4C0D
:4043C00004E01B4C02E01A4C00E000243CBB00F015F90746184BD3F81C35002B11DA174A0121174800F022F968B93046FFF7DEFE5DB1134B1B69002BFBDB00F007F90446CE
:4044000004E00B4C02E00A4C00E00E4C0121002000F0E4F80028F9D1384600F00FF92046F8BD00BFA000234001018800B442020805005200EF49020000002640404A020867
:404440002000234001005000394B1B68002BFBDA30B4374BDA6842F00102DA60DB6813F0020F20D0324DEB689CB232490A69120A120402F47F02D1F890301B0A42EA03630C
:404480002343EB600B6923F47F4343F410630B61D1F8903023F47F4343F41063C1F890300B69D1F89030224B00225A605B68224A136943F004031361012801D030BF07E0F4
:4044C00020BF1E4B1B7803B120BF01221B4B1A70184BD3F8803003F00303022BE7D0144B1B68002BFBDA124BDB6813F0020F15D010490B6923F47F420D48C3681B0C1B029C
:4045000003F47F4313430B61D1F8903023F47F42C3681B0E42EA0323C1F89030044BDA6822F00102DA6000225A6030BC704700BFE00023400000214000ED00E0504A02084D
:404540001E4A136943F004031361012801D030BF07E020BF1A4B1B7803B120BF0122184B1A70184BD3F8803003F00303022BE7D0154B1B68002BFBDA144BD3F80C31C3B9DE
:4045800041F61E72124B1A60062203F582631A603E22A3F214431A60442203F583631A600C4B1B68002BFBDA4FF0AA32074BC3F80C210022044B5A60704700BF00ED00E0BD
:4045C000504A020800002140E000234000002540080126401C0526400000000001B40248844601BC604700BF8517081001B40248844601BC604700BF0D18081001B4024850
:40460000844601BC604700BF9B2A081001B40248844601BC604700BFAD27081001B40248844601BC604700BFE919081001B40248844601BC604700BF6D16081001B402484C
:40464000844601BC604700BFA32A08100000000000000000000000000000000000000000000000000000000000000000000000000000000000000000000000000000000068
:4046800000000000000000000000000000000000000000000000000000000000000000000000000000000000000000000000000000000000000000000000000000000000FA
:4046C00000000000000000000000000000000000000000000000000000000000000000000000000000000000000000000000000000000000000000000000000000000000BA
:404700000000000000000000000000000000000000000000000000000000000000000000000000000000000000000000000000000000000000000000000000000000000079
:404740000000000000000000000000000000000000000000000000000000000000000000000000000000000000000000000000000000000000000000000000000000000039
:4047800000000000000000000000000000000000000000000000000000000000000000000000000000000000000000000000000000000000000000000000000000000000F9
:4047C00000000000000000000000000000000000000000000000000000000000000000000000000000000000000000000000000000000000000000000000000000000000B9
:0200000490303A
:02000000A1BAA3
:0200000490501A
:0C0000000005E20721002101E21FC2BA46
:00000001FF