:020000041000EA
:4000000000400208310100100D000000950100100000000000000000000000000000000000000000000000000000000091010010000000000000000091010010910100109B
:400040009101001091010010910100109101001091010010910100109101001091010010910100109101001091010010910100109101001091010010910100109101001060
:400080009101001091010010910100109101001091010010910100109101001091010010910100109101001091010010910100109101001091010010910100109101001020
:4000C00010B5064C2378002B07D1054B002B02D0044800E000BF0123237010BD18150008000000006C610010084B10B5002B03D00749084800E000BF07480368002B00D172
:4001000010BD064B002BFBD09847F9E7000000001C1500086C61001048020008000000007047EFF3108072B6704780F310887047FFF7F6FF72B6104C104DAC4209DA216894
:400140006268A368043B02DBC858D050FAE70C34F3E70B490B4A0020521A02DD043A8850FCDC094809490860BFF34F8F00F012F900F01EF8FEE70000ECA7011004A801106F
:4001800018150008202200080000000808ED00E0FEE7FEE700B504207146084202D0EFF3098001E0EFF30880043002F0FBFAFEE710B562B6002000F0B9FB002803D10748CB
:4001C00000F05CF903E05021054802F0B7FA06F0A9F8002002F008FAF9E7C046000008106851001070B56249E0239B00CB580F2213401A00D0329200525807210A40032AF8
:4002000005D0042A06D0002A12D15A4814E05A4A106811E01A00C0329200554952581F210A40112A06D0132A04D0FA20C00103E0524801E080200002002B36D14C4BB2222B
:40024000D2009A5801211140B125ED005A59120F032422405B591B0F1C4207D0444C63591B0F03242340012B02D102E0012300E00023002B01D0002901D1032A4BD13C4B45
:40028000B022D2009D58AD03AD0B3D495958C904C90C9C58240E01231C40013403F0A4F96843210003F0A0F935E0012B33D1304BC822D2009A5801251540C024E4001A597D
:4002C000120F03210A401B591B0F194207D028490B591B0F03210B40012B02D102E0012300E00023002B01D0002D01D1032A12D11F4DC022D200AB587F210B40A958090AFC
:400300001F263140AC58240C3440584303F06CF9210003F069F9E0239B00154AD3581B0903221340D840144C6060164B1D692D0AFC32154001351969090E013103F054F918
:40034000A060290003F050F90500E06020610E4BC0180E4903F048F920750D4BE818FA21890003F041F9A061C003E06170BDC0460000264000127A00C000000800366E0141
:4003800084050000000021403F420F0040420F00E703000010B5234BB021C9005A58520052085A50E02080001A583024A2431A50802252045A501C491C4A9950A02189013D
:4003C00004329950FF211A4A995081315A58920092088020C00502435A505A588020000602435A505A58012082435A5000F0C2F9FFF7F8FE00F06EF800F076F801F0D8FAF6
:40040000B0235B055B78002B04D0B0235B055B78DBB200E02123212B03D1064B0022DA605A6010BD0000264001000200840500008C050000E00023408023024AD3580320A9
:40044000184070470000214010B5FFF76AFE084980228C58074B2340074C23438B508823034AD358DB06FAD5FFF75FFE10BDC04600002140FCFF00000100FA0570B505004A
:40048000FFF74FFE0400FFF7D7FF032801D1FFF7DBFF0A4AB0239B00D55080215058084B03400848034353508823044AD358DB06FAD52000FFF739FE70BDC04600002140A8
:4004C000FCFF00000300FA0510B5002000F08EFE10BDC04610B5034A8021042000F08EFB10BDC0463415000810B50748103000F08BFC02F0C2F90400044800F0F7FC20008C
:4005000002F0BFF910BDC0463415000874510010FEE7C0460323044A1360044A1360044A044B1A607047C046102031401420314001001180000E1F4130B587B0704A11681C
:4005400008230B4313606F4C03E0012002F0EAF8013C6B4B1B695B0701D4002CF5D1002C01D1694B00E00023002B02D00520FFF7CFFF664BA020C0001A5803218A430239F2
:400580000A431A50624990240A59624802400A510A691202120A8024640422430A610A6910400861E022920099580F208143995099582130814399509958802000060143A5
:4005C00099500021012000F08BFE0021022000F087FE0021032000F083FE0021042000F07FFE0021002000F07BFE01A84A4903000A0032CA32C312CA12C300F0B9FE0028D4
:4006000002D00420FFF784FF4049444A8B588020000603438B50424800F062FF002802D00420FFF775FF394C3E4BE1583E4A0A40E250E1583D4A0A40E250E25880252D068E
:400640002A43E250043BE158394A0A40E250E158384A0A40802149010A43E250E258802109020A43E250264A1168334B0B401360002002F009F9314AA3582B43A350A35885
:400680000125AB432B43A3503221012002F0A2F82B4B02212B4A99502B481A581D490A408024640022431A508022D20027489850985827481D50274C1859084018512648C8
:4006C00098509858402425481C50902424011D5923482840234D28431851234898509858002422481C50802000011C582140FE242402214319501E4999509B5807B030BDD0
:400700000000274020A1070002004A000000264000002140FF00FFFFB0510010087F0000400D030004050000FEFCFFFFFFFF00FFFFF0FFFFFF8FFFFFFFFCFFFF0C05000011
:40074000000001400C0C00000808000002FF0080180C00000408000001FF00804C0C0000FF0000FF00D3300040FF0080CC0C000000FF0080F0B58FB03221012002F02AF804
:4007800002F000F8002801D101F0ECFF002001F0DFFD022001F0ECFC524A516C524B0B40E82189010B435364536C1B0AFF2213403A2B07D14B4A516C4C4B0B40E82189015C
:4007C0000B43536401AC34220021200004F08CFC474E22000021300001F0BEF934220021200004F081FC22000121300001F0B4F9FFF7A2FE0F223F4B1A603F4A3F4B1A6012
:400800003F4D22002B00143383CB83C283CB83C283CB83C22100300001F008FB22002B00383343CB43C243CB43C243CB43C22100344801F0FBFA24220021200004F054FC5B
:40084000314BE3602100314801F0F0FA22002B005C3323CB23C223CB23C223CB23C221002B4801F0E3FA24220021200004F03CFC802301932100274801F0D8FA24220021E9
:40088000200004F031FCF72301932100224801F0CDFA24220021200004F026FC0723019321001E4801F0C2FA1D4D23002A0043CA43C343CA43C343CA43C32100194801F014
:4008C000B5FA22002B00243323CB23C223CB23C223CB23C22100144801F0A8FAFFF71AFE0FB0F0BD00002740FF00FFFFFFC5FFDF00003240000064400701010000026440D7
:40090000B05100108000324000866606800232400003324080033240800432400005324030520010000632408006324010B5054802F032F80122044B1A70002801D102F0DF
:400940003BF810BDE0000008C416000810B583089A00801AC000FF228240D44381400A40072B32D89B001949CB589F46184B196A0C4022431A6228E0154B596A0C40224334
:400980005A6222E0124B996A0C4022439A621CE00F4BD96A0C402243DA6216E00C4B196B0C4022431A6310E0094B596B0C4022435A630AE0064B996B0C4022439A6304E0A0
:4009C000034BD96B0C402243DA6310BD785200100000214083089A00801AC100FF228A40072B2BD89B001748C3589F46164B186A1040C84023E0144B586A1040C8401EE020
:400A0000114B986A1040C84019E00F4BD86A1040C84014E00C4B186B1040C8400FE00A4B586B1040C8400AE0074B986B1040C84005E0054BD86B1040C84000E00020C0B2B5
:400A40007047C046985200100000214070B504000D000B4B9A680B4B9A420BD1002903D1FC21094801F06AFE1034064BA400E058E55003E01034A400044BE05870BDC046D3
:400A800000ED00E000000008B852001000000010F0B583B0041E019150D04368032B03D93621294801F04AFE0023E05E002802DBA178FFF74BFF0023E25E6368002A12DBD1
:400AC0009008224EC0308000875903210A40D200FF25290091408F4399012B000B4093403B43835117E092B20F21114008398908063189001648844661444E680320024003
:400B0000D200FF2738009040864398013B000340934033434B600E4B9A680E4B9A420FD1019B002B03D14521074801F007FE0023E05E0199FFF78AFF002002E0064800E081
:400B4000002003B0F0BDC046B852001000E100E000ED00E0000000080100560070B504000D000369002B0ADA0B0C03D00549064801F0E4FD2D042D0C6560002000E0034865
:400B800070BDC046B3020000FC52001001008A0070B505000C000368002B01DA002300E0084B002B0BD1EA60230C03D00649074801F0C4FD2404240CAC60002000E0014817
:400BC00070BDC04601008A009A020000FC52001070B505000C1E03D19921064801F0AEFD2B69002B03DAEB682360002000E0024870BDC0463C53001001008A00F8B50400A7
:400C00000E0015000F283FD8002A10D100290ED10F2804D9AA21FF31214801F08FFD6401204B9C466444204B1C60002037E0002D2CD0002E2CD0F3062CD10F2C04D9AA2197
:400C4000FF31174801F07AFD6401164B9C466444154F3C607E60BD60F2080021280004F043FA00212000FFF779FF3A0001CA0021FFF78EFF00280FD10B4B18680021FFF771
:400C80006DFF00280AD10AE0084808E0074806E0064804E0054802E0054800E00448F8BD7C53001000002340C816000803018A0001018A00F0B583B00D001C4B1B68DC688A
:400CC000236883422DD947097B01C01A012383401E00002903D101F0D0FD019001E000230193124B18680368002B01DA002300E00F4B002B0ED16368BF00DF193B683342C0
:400D000003D133433B60002400E00A4C0021FFF725FF00E0084C002D04D1019801F0B1FD00E0064C200003B0F0BDC046C816000801008A00020188000301880004018A00FC
:400D4000F0B583B00D001C4B1B68DC68236883422DD947097B01C01A012383401E00002903D101F08AFD019001E000230193124B18680368002B01DA002300E00F4B002BEB
:400D80000ED16368BF00DF193B68334203D0B3433B60002400E00A4C0021FFF7DFFE00E0084C002D04D1019801F06BFD00E0064C200003B0F0BDC046C816000801008A00B7
:400DC000020188000301880004018A000A4B1B68DA68136883420BD943095901401A0121814052689B009B580B4203D0034802E0034800E003487047C816000801018800FA
:400E000004018A0000018800034B1B68002B01D1014B18607047C046D4160008F0B5474680B404000F0090461E002B4B1B68002B03D1B421294801F081FC072C03D9B5215B
:400E4000264801F07BFC244B1B682C2060431C18FF22150035402560330A13406360330CA3600F2D04D9AA21FF311D4801F066FC6B011C4A94466344236165680F2D04D939
:400E8000E2214900164801F059FC6D01164B9C4665446561A668330C04D0F1214900104801F04CFC330C04D0E421FF310C4801F045FC3604330C1E43AE604346E361276209
:400EC0000023A361069B002B02D000229B5EA38104BC9046F0BDC046D4160008BC5300107C5300100000234000102340F0B58FB0041E03D150212E4801F020FC6368032B18
:400F000003D952212A4801F019FCE36A002B03D15621274801F012FCE368072B03D95721234801F00BFC236A072B03D95821204801F004FC236B002B03D159211C4801F0BC
:400F4000FDFB07AA1300210061C961C321C921C302AD290023001433C1CBC1C141CB41C10821535E0CAE3380079B1933B370089B0D930B9B0A980096A26AE16AFFF74EFF07
:400F80002B69E868002200920021FFF747FF216B3000FFF77DFD0023F25E002A05DB1F231A401E3B9340034A13600FB0F0BDC046BC53001000E100E0F8B504000F001600E3
:400FC0001D00002A03D1FD21284801F0B7FB284B1B68002B03D1FE21244801F0AFFB072C03D9FF21214801F0A9FB072F04D9802149001E4801F0A2FB1D4B1B682C21200014
:401000004843181879435918012213004C68A3401B044468A24014000269002A20D08F69002F1FD11268002A01DA002200E0114A002A19D132681204120C1343336003698B
:40104000DE6001238B614D620569230C03D00A490A4801F073FB2204120CAA60002004E0074802E0074800E00648F8BDBC530010D416000801008A009A0200007C53001033
:4010800004028A0007028A0070B504000D001600134B1B68002B04D16221FF31114801F04DFB072C04D9B12149000E4801F046FB0B4B1B682C2060431C18236A002B04D15F
:4010C000B3214900074801F039FBE369B34204D9236AB6009D51002000E0034870BDC046D4160008BC5300100A028A0070B504000D000B4B1B68002B04D19421FF310948A6
:4011000001F01CFB072C04D9CA214900054801F015FB034B1B682C2060431818856270BDD4160008BC53001070B582B0040000230193002804D1EA2149002B4801F0FEFA41
:401140002369002B04D1D621FF31274801F0F6FA6369002B04D1EB214900234801F0EEFA236A002B04D1D821FF311F4801F0E6FA6269D5682B0C1FD01B0413601368206955
:401180000369002B18DA01A9FFF722FD00280ED1019803681E0CFF221340E269934207D29B00226AD358002B02D0984700E0002631002069FFF7D2FC2D042D0C0FD063697E
:4011C0001D601B68636A002B03D098470023636203E0A36A002B00D098470023A36163691B6802B070BDC046BC53001010B504000B4B1B68002B04D1DA214900094801F0F1
:401200009DFA072C04D9B621FF31064801F096FA034B1B682C2060431818FFF785FF10BDD4160008BC53001010B50400114B1B68002B03D11049114801F080FA072C03D916
:401240000F490E4801F07AFA0A4B1B682C20604318180C23C25E002A0ADB1F231A401E3B9340802207498B50BFF34F8FBFF36F8F002010BDD41600082D020000BC53001004
:401280002E02000000E100E010B504000F4B1B68002B03D10E490F4801F050FA072C03D90D490C4801F04AFA084B1B682C20604318180C23C25E002A05DB1F231A401E3B7E
:4012C0009340064A1360002010BDC046D41600084D020000BC5300104E02000000E100E004281DD8042904D94B1EFF3B9BB2132B18D8FF290CD91F2319400B4A0300C033B8
:401300009B009950D03080000423835000200AE007231940D0308000034BC150002002E0024800E0014870470000264001004A0010B50400042804D91621FF310A4801F0EA
:40134000FDF92300D0339B00084A985807231840042807D1C034A400A3581B30184080235B00184310BDC046FC5300100000264070B5041E04D1E221FF314C4801F0DEF91C
:40138000B023DB004A4AD358002B01DB002500E0484D002D00D086E0474B22689A4204D9F8214900414801F0C9F923689B03990BE3791B068022520413400B43B022D200C2
:4013C0003B498B50A2883D4B9A4204D9F821FF31364801F0B3F92289394B9A4204D9FC214900324801F0AAF9A388DB04D90C23891B04344A13400B43334A2D498B50A37A9F
:401400000F2B04D9FF214900284801F097F9E37A0F2B03D92A49254801F090F9A289274B9A4204D980218900204801F087F9A37A0F211940E27A1201FF2313400B43A28912
:40144000120222490A401343A27B1207C02189050A401343B122D20015498B50A379072B04D982218900114801F068F9228A144B9A4203D916490D4801F060F90C481549B5
:401480004658154B1E40A3791B02E022D2001340334343504658114B1E40238A1B04094A134033434350280070BDC046FC5300100000264003004A00FFFF0300FF1F000008
:4014C000FF0100000000FF018405000000FF1F00090200008C050000FFF8FFFFFFFF00FE70B505002D492E4A8B588020000603438B502C0003E0012001F014F9013CB223B6
:40150000DB00264AD3585B0701D4002CF3D12349B122D2008858234B03408020800503438B50002D02D00ED0002C0CD01B49B022D2008B588020000603438B5003E001208B
:4015400001F0F0F8013CB223DB00144AD358DB0701D4002CF3D1002D0ED0002C0CD10F4AB021C90053585B005B0853500C4953585B005B0853500BE0084B0221B222D200FA
:401580009950B121C9005A58C020800502435A50002C01D1044800E0002070BD000026408C050000FFFFFFCF02004A00F0B5474680B45B4B98426FD89A4274D8594B994247
:4015C00078D80124584B1C70FF2806D80E3404400F250F239C46072021E0544B984206D80F2630400F2500239C46002417E0030A0F2633404E4CA04208D80001F036304054
:401600001843FF2500239C46002408E00002F026360130401843474D00239C460024FF2A10D81201FF231A401443E022D202024316000F3B62461A439446F0273F032F4327
:4016400000203DE0394B9A4208D81204F0273F033A40104306002F43002031E0160A3604F0231B031E403043314B9A420AD81205F0231B041A4010430600FF273F042F439B
:4016800000201DE01206F0263605324010430600294F2F43002013E0002700239C460026002426480CE0002700239C4600260024224805E0002700239C46002600241F486A
:4016C00000282AD11E4B1B68002BFBDA164B5B78002B04D01B4B1C4AD358002B19DA1B4A1B4B1A601B4A1C4B1A60174BA322D20090469D58624695432C4342469C50174C7E
:401700001A59BA4332431A51074A51600D4A995000E0134800220A4B5A6004BC9046F0BD0F060000FFFFFF00D8160008FF040000FF0500000F0F000000000F0F01004A00D2
:40174000E00023401C050000000026401F1F0000080126403D3D0000040126401405000003004A0070B582B000220023009201932C4B1A702C4B1B68002BFBDA2B4B1A68F2
:401780002B4B9A4206D12B4B1A682B4B9A4203D0002502E0002500E00125A423DB00274AD4582402220A0023009201931E4B00225A60002D2DD0009A019B1A4329D00028B4
:4017C00015D1184B58680A000023002102F0A2F8009C019DEE07620832436B0880185941009A019B02F076F80090019115E0009A019B0800002102F08DF80A4B5A6854085D
:40180000002500196941002302F064F80090019103E000220023009201930098019902B070BDC046D8160008E0002340080126401F1F0000040126403D3D00000000264097
:40184000F0231B06C3180F4A934201D8580A18E0EC231B06C3180C4A934204D85B0A8020400218430DE0EA231B069C466044064B984204D8400A80229202104301E00120C7
:4018800040427047FFFF0F00FF7F000010B50400FFF7D6FF431C03D0E40503D0002002E0002000E0012010BD214B984230D00ED8402831D004D800281FD010282AD031E027
:4018C00080282BD080235B00984229D02AE0194B984229D007D8A0231B0698420DD0164B984212D01EE0154B98420AD0144B984209D0144B984215D101E0002016E0124808
:4019000014E0124812E0124810E0A020C0030DE007480BE00F4809E00F4807E00F4805E0034803E00E4801E0A420C0037047C04606005200010000F0090000A0040000F02A
:40194000050000F0030000F0010052000200520003005200010050000200500005005200FF00520010B50C4B1B69002B11DB0B4B1868FFF799FF0121094B0A4AD150084BDF
:40198000084AD358002BFAD1074BD358002BF6D100E0064810BDC04600002340E41600080C040000000025408C0400000200500010B5022202490020FFF766FB10BDC0460A
:4019C000A102000870B504000D00FFF75FFF002827D0002D27D0FEF705FC144B144A1A6000225A609C60DD60124B19691A69120AFF2313405A1C0B0E013353430E4C5C43E8
:401A00000E4B1868FA21890001F0EEFD0100200001F0EAFD0A4BC1188020400003F09CFB02E0084800E0074870BDC046E41600080001000500002140C0EA2101C400000827
:401A4000482600000600520010B5FFF78BFF10BD10B50400FFF71AFF00282AD0FEF7C2FB154BE02252051A601A68802149000A431A605C6000229A60DA60104B19691A690A
:401A8000120AFF2313405A1C0B0E013353430C4C5C430C4B1868FA21890001F0A5FD0100200001F0A1FD084BC118002003F054FB00E0064810BDC046E41600080000214095
:401AC00060F59000C4000008980800000600520070B504000D00FFF7D9FE00282ED0002D2ED0FEF77FFB174BC022D2041A601A68802149000A431A60832252005A609C6006
:401B0000DD60114B19691A69120AFF2313405A1C0B0E013353430D4C5C430D4B1868FA21890001F061FD0100200001F05DFDE1239B00C118002003F00FFB02E0054800E04A
:401B4000044870BDE416000800002140808D5B00C400000806005200F8B506000D001400002800D142E1002A00D141E1072903D93921A04800F0E2FD2368012B03D93A21E5
:401B80009C4800F0DBFD0F2362689A4303D03B21984800F0D3FD237A1F22934303D03C21944800F0CBFDE368032B03D93D21914800F0C4FD2369012B03D93E218D4800F064
:401BC000BDFD6369012B03D93F218A4800F0B6FDA369012B03D94021864800F0AFFDE369032B03D94121834800F0A8FD236A012B03D942217F4800F0A1FD636A012B03D969
:401C000043217C4800F09AFDA36A012B03D94421784800F093FDE36A032B03D94521754800F08CFD236B072B03D94621714800F085FD2768072D03D96F49704800F07EFDA0
:401C4000012F04D9BA2189006C4800F077FD002F03D10123AB40736002E00123AB40B3606768072D04D9E4218900644800F066FD0F233A009A4303D06149604800F05EFDCC
:401C8000AA00B36A0F210800904083430F4097401F43B762277A072D03D95A49574800F04DFD1F233A009A4303D05749534800F045FD564BF318DB09554A944663441B015C
:401CC000032D0BD81A68E8001F2181408A4311001F223A4082400A431A600BE0291F5A68C9001F208840824310001F223A408A4002435A60E768082D03D946493F4800F0C0
:401D00001DFD032F03D944493C4800F017FD6A00736A03210800904083430F4097401F4377622769082D03D93C49344800F006FD012F04D9CA21C900304800F0FFFCB36927
:401D400001221100A9408B431740AF401F43B7616769072D03D93249284800F0EFFC012F03D93049254800F0E9FCF26A01231900A9408C468A431F40AF401743F7626F00BA
:401D8000103703210800B84062461043326B8243A0691840A8400243E0690140B9400A433263706BFF2294469043276A1F40636A5A00022313403B43A26A91000427394071
:401DC0000B431F00E36AD900182319403B000B43226B520161460A401343AD00FE2292001540AB4003437363002002E00E4800E00D48F8BD84540010E7020000C454001016
:401E00009103000045020000460200000000CEBF00100304D4060000D50600004F060000D2030000D303000001005A0070B505000C00002848D0002948D0FF230A689A43A3
:401E400003D08D21224800F079FCFF2322699A4303D08E211E4800F071FCA3685B0D03D08F211B4800F06AFC63685B0A03D09021174800F063FCE3695B0F03D0912114489B
:401E800000F05CFC236A5B0F03D09221104800F055FC104BEB18DB090F4A944663441B0122682A60E268AA622269EA6262692A63A2686A626268AA61A2696A63E2691A60AB
:401EC000226A5A60002002E0044800E0034870BD845400100000CEBF0010030401005A000D4BF222D2019A580260F022D2019A5842600A4A9A588260094A9A58C260094A21
:401F00009A580261084A9A584261084A9A588261074A9B58C36170470000344004780000087800000C7800001078000014780000187800000D4BF022D201416899500C4A62
:401F4000816899500B4AC16899500B4A016999500A4A416999500A4A81699950094AC16999500168E83299507047C0460000344004780000087800000C7800001078000067
:401F8000147800001878000010B5074A074813580F24A34302210B43135004381358A3431943115010BDC0460000214004F0000010B5074A074813580F24A34303210B437B
:401FC000135004381358A3431943115010BDC0460000214004F000000449054A8858054B0340C020C00103438B5070470000214004F00000FF8FFFFF0449054A8858054BD7
:4020000003408020C00103438B5070470000214004F00000FF8FFFFF10B5002000F04EFCB0235B055B78002B04D0B0235B055B78DBB200E02123222B03D8002803D1013013
:4020400002E0012000E0002010BDC04610B50400002000F033FC00280AD114498A69144B1A40240680235B041C4014438C611BE0002C01D00F4A00E00F4A01210F48FEF7B2
:4020800087FD00280DD10D4B1B69002BFBDB0B4BDB681B0E1B06A0221206934203D0084802E0074800E0002010BDC04600F02540FFFFFFFE010100300100003000002340EA
:4020C0000400420070B50400022805D0052803D02349244800F032FBFFF79EFF00283CD000F0CBFB0600022C10D10120FFF7AEFF051E18D1FFF748FF1B494B6907229343C7
:40210000043A13434B61FFF767FF0CE016494B6907229343043A13434B61C82000F002FBFFF76AFF0025002D13D10F494B69072293431A000723234013434B61052C08D19D
:40214000C82000F0EFFAFFF733FF0020FFF77EFF0500300000F095FB00E0044D280070BD37060000045500100000264003004200F0B5474680B40400022805D0052803D0EE
:402180004849494800F0DAFA484B1B681B0279D400F073FB0700FFF73FFF002849D0022C12D10120FFF752FF051E0ED1FFF7ECFE3E483F4943581F2293431A000B23134326
:4021C0004350FFF709FF00E03A4D052C32D1384B364AD3581F221340E822D200B02149058A5C9A4218D1314E314D73591F2290469343143A13437351092000F093FAFFF791
:40220000FBFE735942469343083A13437351092000F088FAFFF7CCFE2448254943581F229343043A134343500020FFF70FFF050000E0204D002D21D1092000F073FA1B4E8D
:402240003368E022D20313433360726907239A431C401443746173698022D2051343736173698022120613437361E120800000F059FA33688022120413433360380000F032
:4022800000FB0BE0094B5B69072213409C4204D02000FFF717FF050000E00025280004BC9046F0BD7905000004550010000026401CFF00000300420010B50400012803D9D6
:4022C0000D490E4800F03AFA002C03D10C4B5869C00F00E00020012C0CD1094B9B695B0005D4074B9B69002B03DA012002E0012000E0002010BDC0469C0600000455001031
:402300000000264070B504000D00072803D90D490D4800F013FA0D4B9B690722134021009C420DD0094882690726B243344014438461002D04D0994202D9C82000F0F2F912
:4023400070BDC046FC0600000455001000002640F8B50500012804D9EA21C900294800F0EDF9FFF759FE002848D000F086FA0700002D17D1E823DB00B0225205D65CF6B284
:402380000120FFF763FE041E1FD1FFF7FDFD1E481E4943581F229343143A13434350FFF71BFE12E01A4BB0225205D65CF6B21648164943581F229343143A134343500920B5
:4023C00000F0B0F9FFF718FE0024002C12D10E490E4A8B581F20834306401E438E50012D08D1163800F09EF9FFF7E2FD0020FFF72DFE0400380000F044FA00E0054C20003C
:40240000F8BDC04604550010000026401CFF0000410700000300420070B5040000F02DFA002C05D01A4B1B681F2B03D9002502E0002500E00125002D25D0E368002B1FD062
:402440002368002B1ED0124B59680B00002203E0A34204D01A005B69002BF9D100E00025002D10D0002902D1094B5C6000E05461226100236361064A13680133136002E08D
:40248000002500E0002500F0FCF9280070BDC046F416000870B584B005000E00042803D929492A4800F04AF9731EDBB2012B07D9042E05D0082E03D02549244800F03EF9DA
:4024C000042E01D0012E1DD1224B5C68002013E023799D420FD1A368002B01D01E420AD1E36801A85A6842609B688360067023689847184B9C606469002C23D0164B984237
:40250000E6D11FE0134B9C68022E02D1002C00D02469002011E023799D420DD1A368002B01D01E4208D1E36801A85A6842609B6883600670236898472469002C02D0064B53
:402540009842E8D104B070BD950800000455001096080000F4160008FF00420070B50500012804D94E21FF311B4800F0E7F81B4B1B68002B05D001210020FFF78BFF040040
:4025800000E00024002C20D100F077F90600134B1B68002B03D004210020FFF77BFF104A136904218B431361012D01D030BF00E020BF300000F065F9084B1B68002B09D0BE
:4025C00008210020FFF766FF04E002210020FFF761FF044C200070BD04550010F416000800ED00E0FF00420070B50500012804D984218900384800F0A1F8384B1B68002BFC
:4026000005D001210120FFF745FF040000E00024002C59D100F031F90600304B1B68002B03D004210120FFF735FFE0232C4AD358DB0603D529480C30FFF752FCB0235B05DD
:402640005B78002B04D0B0235B055B78DBB200E02123212B03D1280002F076FD1FE02149214BCB581F221340E822D200B0204005825CD31A5A1E9341DBB20A68120207D4A2
:40268000012B05D1194BC158194B164AD15003E00021174B134AD150280002F04DFDE0230F4AD358DB0603D50C480C30FFF742FC300000F0E6F8094B1B68002B09D0082168
:4026C0000120FFF7E7FE04E002210120FFF7E2FE084C200070BDC04604550010F416000800000140000026401CFF000010180000307F0000FF00420010B500F0BEF8074B27
:402700005A6807490A40E824A40122435A605A68114059605B6800F0B4F810BD00002640FF00FC0F10B5034B1B78584300F09CF810BDC046D400000801BEFEE770B50D00BB
:40274000044C18220100200002F0D6FCA5610020FFF7F2FF980500080122014B9A60704700002540054B802212069A649B6C002B01DB002000E002487047C046000027402F
:4027800003004600054B8022120198585B68FF221A4202D08023DB021843704700002640FEE7C04610B50A4B0268DA6142681A6282685A62C2689A620269DA6242691A6366
:4027C00082695A63C2699A63FFF7EAFF10BDC04698050008F0B5002801D0192200E064228A42924152421C4BE8256D005C590327BC433A4014435C515C59184E34405C51C7
:40280000D03D5C59BC4322435A515A5916405E51002805D010290DD921290DD8012014E01D290BD93A290BD957290BD978290BD803200AE0002008E0022006E0002004E035
:40284000012002E0022000E00420054A13680F218B4303431360F0BD00002140FFFCFFFF00002540000000000230800803D001300238FCD1C046C0467047EFF3108072B620
:40288000704780F310887047042805D1094A116804230B4313600CE00006C0239B04184090239B00044AD050024A136804218B431360704710E000E00000214010B5040083
:4028C0000F2803D9E4210548FFF738FFA402044B9C46644423680F20184010BD445500100040244070B50378012B02D0082B40D045E00320FEF76AFA244B984241D000F0CF
:4029000051FE01283FD0022003F010FD0500FFF7B4FF1F4B186003F00DFD0400062817D0022D0AD1022005F06FFA032C01D0052C10D1002810D0174C13E0012005F064FADA
:40294000022C0BD000280BD1FFF708FE114C08E0002406E00F4C04E0002402E00D4C00E00C4C0C4B9C420FD1094B1868FFF789FF0AE0074B1868FFF784FF002404E0054C34
:4029800002E0044C00E0034C200070BD0101880020170008FF00420010B5002803D0044B5860002400E0034CFDF79EFD200010BD201700080100160000B58BB02822002118
:4029C000684602F091FB124B6A469381FB2313835383F83B13770133537710221D336946CA5420334B8401221B3BCA540948FFF713FD03F081FC06A803F0CCFC002804D110
:402A0000054B0193684603F099FC0BB000BDC046440F0000E8000008D4050008014B024AD050704778F0010000003C4010B50BF06FFF10BD10B5024B1B68984710BDC04644
:402A40003417000810B5002809D0FA23FF33994207D80A00044902F03EFB002002E0034800E0024810BDC0460708001601001600F0B55F4656464D464446F0B4B14CA5449F
:402A800081460E00904605930B00AF4A914204D942468A18AD498A4211D9AD4A934204D94246B218AB498A4209D9AB4A934200D823E14346F318A94A934200D922E1A84BDB
:402AC0005B695B0010D5A64B5B6907241C40022C25D10520FFF7F6FA0190A24B9842F8D003940123049324E09F4B9D4AD3581F221A40E823DB00B0214905CB5C9B1A5A1E01
:402B00009341DBB20493002B0FD10120FFF720FC944B9842F9D001900523039309E00394012304930023019303E005230393002301938E4B019A9A4204D1D621FF318C4824
:402B4000FFF7FCFDF0231B069C466644730A9A465C0200210320FEF7ADF80028F9D100250023029399E0B4421BD3BD4219D24A4652191078804606A84146C154594600299C
:402B80000DD1802149058846A044414609786846017001781278914201D001229346013505E080225205A218127806A8C2540134013304E0002100238B46844647466D4A40
:402BC0009342D0D959466046B846002962D0019B002B5FD1059B002B51D1C83300951D00B3465646A24680231B03F7187F023800FEF72EFF0400013D0120FFF793FDA42350
:402C0000DB0322001A409A4201D1002DEBD122000294009D5446B2465E46574B9A4205D1FEF712FF554B9842FAD00290029B002B19D1C83300971F00A34606A90098FEF760
:402C400047FF0400013F0120FFF76CFDA423DB0322001A409A4204D1002FEED102945C4601E002945C46444B029A9A4211D1FEF7EBFE424B9842FAD0029001200AE0802004
:402C800000035044400206A9FEF79CFE0290012000E0012001239C46E244029B019A134301D1454586D3002801D0FFF755FD00210320FEF745F80028F9D1019B002B25D174
:402CC000274B5B695B0009D5039B022B06D10220FFF7F8F90190234B9842F8D0204B1B681B0213D4049B002B10D10020FFF730FB01901C4B9842F8D008E000230193204B97
:402D0000029303E0002301931D4B0293019B002B0CD11C4B029999420AD0194B994207D0002901D1002004E0174802E0174800E0174887239B009D443CBC90469946A2465D
:402D4000AB46F0BDE4FDFFFFFFFFFF0F00001010FFFFFF1300800014FF070016000A001600002640040042001CFF00000300420084550010FF010000010050000200500032
:402D8000060052000200520013001600120016000100160010B500280AD0FA23FF33994208D8F93BFF3B0A000349FFF761FE02E0024800E0014810BD0708001601001600B7
:402DC00000207047B0235B05588880B27047C0460020704710B5FFF7A5FC10BDA023DB00024AD358032018407047C04600002640024B034AD058C00F7047C0461C050000D8
:402E00000000264010B5FEF7ADFC10BD70B504000D0016000320FDF7D9FF054B984205D0320029002000FEF7C1FB00E0014870BD0101880003004A0070B5431ADC171B19C0
:402E40006340934227D3164B164CE458A405A40D884208D9401A51084018110000F0C4FB201A0ED50AE0081A51084018110000F0BBFB00190C4B984202D802E0002000E07A
:402E80000A48084D06496B589B0A9B028205920D13436B5001E000240020201A70BDC0463C05000000002640FE030000FF03000010B5034B1A6880210902FFF7BDFF10BDE4
:402EC0000001000810B500F015FA0220FFF7A6FD094C236818680949FDF7DAFD23681B6800229A5E002A05DB1F231A401E3B9340034A136010BDC046241700082D2A001096
:402F000000E100E00420704710B5FFF7B6FC10BD10B5FFF7B6FC10BD10B5FFF71FFB10BD10B50021FFF7EEF910BDC04610B50020FEF7AAF910BDC04610B5FFF7F7FF074BF6
:402F40001B681B6800229A5E002A05DB1F231A401E3B9340024A136010BDC0462417000800E100E010B50020FEF75EF910BDC04610B5FFF7F7FF094B1B681B6800229A5EA0
:402F8000002A0ADB1F231A401E3B9340802204498B50BFF34F8FBFF36F8F10BD2417000800E100E010B5074B1960012201000020FEF76AF8002803D100220349FEF764F879
:402FC00010BDC04634170008352A001070B50B001500020000210120FDF7EEFF041E03D029000020FEF782F8200070BD70B50D000F4B184300040F4BD861FA24A40003E0B5
:40300000013C0120FFF78EFB0A4B1B6CDB0701D4002CF5D1002C08D0064B196C01220A431A64DB6A2B80002000E0034870BDC0460080FFFF00003C400400160010B500041B
:403040000E4B184001430E4BD961FA24A40003E0013C0120FFF766FB094B1B6CDB0701D4002CF5D1002C06D0054A116C01230B431364002000E0034810BDC0460000FF7F97
:4030800000003C4004001600F0B583B006000A24C02149017548FFF7D1FF002804D16B46991D7248FFF7A2FF002C01D0013C00E06F48002805D16B46DA88C0235B019A420E
:4030C000E6D1002825D16B46991D6A48FFF78EFF00281ED16B4606331B885B0519D40A248021C9006348FFF7A9FF002804D16B46991D6048FFF77AFF002C01D0013C00E0F8
:403100005B48002805D16B46DA888023DB009A42E6D1002804D16B46991D5748FFF766FF002844D16B4606331B883F229343B278012A15D1F178012904D88FB20222D21B6F
:4031400095B201E000250227402213439BB2302213436A46D380494BCB40494A136013E0F178002904D18FB20122D21B95B201E00025012740229343102213436A46D380A1
:40318000404BCB403E4A13606B469C1DD9883943D9803948FFF752FFF378DB1B03221340AA0092B213432380374A38498B50B0235B055B78002B04D0B0235B055B78DBB2E1
:4031C00000E02123212B4FD0314BB0225205D35A9BB2002B48D0002804D16B46991D2D48FFF704FF002824D16B469A1DDB8860218B4318001380B0256D05254C2B5B60315B
:403200000B405B08034324490B401380295BC901F020C00001400B43204919401180285BC0239B000340DB00194311801948FFF705FF002804D16B46991D1948FFF7D6FE59
:40324000002811D16B469A1DD988C023994311800F4BB0204005C05A302303409B00194311800F48FFF7EAFE03B0F0BD021E000004001600031E0000091E00000048E8013C
:40328000C00000080024F40064F0010000003C4016180000071E00007FF5FFFFFFE7FFFF061E000070B50C004000084901430848FFF7C4FE051E04D106490748FFF7BEFE3A
:4032C00005006001FFF72EFA280070BD01100000081E0000376800000F1E00000349044A8858102303438B507047C04600003C4070F00100F0B59DB013A9144B0A0018005B
:4033000070C870C270C870C270C870C20AAD28001A002432D0CAD0C0D0CAD0C0D0CAD0C001AC22004833C1CBC1C2C1CBC1C2C1CBC1C20748FEF77AFD29000648FEF776FD71
:4033400021000548FEF772FD1DB0F0BDC0550010000132408001324000023240F8B5051E00D1D4E06E4B5B689B0301D5FFF7C4F96C4C03E0013C0120FFF7D4F96A4B6B4AE4
:40338000D358002B01D0002CF4D1694B674AD358DB0704D5674BD358DB0700D5B9E0624B624AD358002B00D0B5E0FFF7A3FF5F4B6149624A99502A788021C9020A436049E4
:4033C0005A506049604A9950802252009B58DB0700D5A2E05D4B1B6F1B0709D45C4B18685C4B984206D9190000F0FEF8013802E0012000E000204D4B1B68002803D040037B
:40340000554A104300E055481843484B1860444B5B695B000ED501210320FEF773FF404B5B695B000CD53E4A93698021C9050B43936105E03D494A4A8858032303438B5094
:403440003A4C3B4AA658474B3343A3504020FFF769F9454BE358DB070BD42700424C01233B514020FFF75EF903233B514020FFF759F93E4F37403E4E3E432D4B2B4AD65074
:40348000FA24E40003E0013C0120FFF74BF9394B394AD358DB0601D4002CF4D1002C01D0002400E0354C002C23D12049344A8858082303438B500120FEF7FEFE002801D1F5
:4034C000304E3E43304B1E4001231E43184B174AD650144E03E0013E0120FFF723F9154B124AD358DB0701D4002EF4D1002E00D1224C002C03D12800FFF7C6FD0400002CBF
:403500000CD168782978FFF7CDFE040006E01F4C04E01F4C02E01E4C00E01E4C2000F8BD00002640F07E0E006CF0010000003C40A0F00100B4F0010006000001A4F00100D0
:40354000A8F0010001000100ACF0010000F03D40C800000800093D00041A0080040A0080C4F0010030000300B0F00100EFFFFEFF20000200104000000000324004001600F2
:4035800068F0010028000200FFFFFBFF010016000300160002001600014B18687047C046C000000810B5002405E02000FDF7C0FE032804D00134042CF7D9002000E0012002
:4035C00010BDC046A023DB00064AD35803221340012B03D0032B03D1012002E0012000E00020704700002640002243088B4274D303098B425FD3030A8B4244D3030B8B42CD
:4036000028D3030C8B420DD3FF22090212BA030C8B4202D31212090265D0030B8B4219D300E0090AC30B8B4201D3CB03C01A5241830B8B4201D38B03C01A5241430B8B421D
:4036400001D34B03C01A5241030B8B4201D30B03C01A5241C30A8B4201D3CB02C01A5241830A8B4201D38B02C01A5241430A8B4201D34B02C01A5241030A8B4201D30B025E
:40368000C01A5241CDD2C3098B4201D3CB01C01A524183098B4201D38B01C01A524143098B4201D34B01C01A524103098B4201D30B01C01A5241C3088B4201D3CB00C01A55
:4036C000524183088B4201D38B00C01A524143088B4201D34B00C01A5241411A00D20146524110467047FFE701B5002000F0F0F802BDC0460029F7D076E7704703460B4367
:403700007FD4002243088B4274D303098B425FD3030A8B4244D3030B8B4228D3030C8B420DD3FF22090212BA030C8B4202D31212090265D0030B8B4219D300E0090AC30B92
:403740008B4201D3CB03C01A5241830B8B4201D38B03C01A5241430B8B4201D34B03C01A5241030B8B4201D30B03C01A5241C30A8B4201D3CB02C01A5241830A8B4201D399
:403780008B02C01A5241430A8B4201D34B02C01A5241030A8B4201D30B02C01A5241CDD2C3098B4201D3CB01C01A524183098B4201D38B01C01A524143098B4201D34B019B
:4037C000C01A524103098B4201D30B01C01A5241C3088B4201D3CB00C01A524183088B4201D38B00C01A524143088B4201D34B00C01A5241411A00D20146524110467047B6
:403800005DE0CA0F00D04942031000D34042534000229C4603098B422DD3030A8B4212D3FC22890112BA030A8B420CD3890192118B4208D3890192118B4204D389013AD019
:40384000921100E08909C3098B4201D3CB01C01A524183098B4201D38B01C01A524143098B4201D34B01C01A524103098B4201D30B01C01A5241C3088B4201D3CB00C01A8A
:40388000524183088B4201D38B00C01A5241D9D243088B4201D34B00C01A5241411A00D20146634652415B10104601D34042002B00D54942704763465B1000D3404201B5DA
:4038C000002000F005F802BD0029F8D016E770477047C046002B11D1002A0FD1002900D1002802D00021C943081C07B4024802A14018029003BDC046D9FFFFFF03B46846AB
:4039000001B5029800F050F8019B9E4602B00CBC7047C046F0B54F464646C0B41604360C9946330005042C0C070C150C63437E436F4365431C0CAD1964199C46A64203D959
:4039400080235B02984647446346250CEF191D044B464A4343432D0C240464199918C91920000CBC90469946F0BDC04670B500220C4B04000D0001F05DFA002804D1200062
:40398000290001F0B5F970BD064B00222000290000F05AFE01F0ACF980231B069C466044F1E7C0460000E041F0B54D46564644465F46F0B4924683B004000D0099468B42C0
:4039C0002FD82CD04946504601F05CFA29000600200001F057FA331A9846203B9B4600D574E053465A4693401F005346424693401E00AF4229D826D05B46A41BBD41002B89
:403A000000DA79E0002200230092019301235A4693400193012342469340009319E08242D0D900220023009201930C9B002B01D01C605D600098019903B03CBC904699466C
:403A4000A246AB46F0BDA342D6D900220023009201934346002BE8D0FB0772081A4346467B080EE0AB4201D1A2420CD8A41A9D41012024196D410021013E24184D41002EF8
:403A800006D0AB42EED9013E24196D41002EF8D15B460098019900196941002B22DB2B005A46D3402A004446E2401C005B461500002B2CDB26009E40330026004746BE40FD
:403AC0003200801A994100900191AEE7424620239B1A5246DA40414613004A468A4017001F4382E7424620239B1A2A0046469A402300F3401343D5E74246202300219B1A48
:403B00000022009101920122DA40019282E74246202326009B1ADE402F00B446974066463B003343C9E7C046F0B556464D4644465F46F0B41D000E034C00CB0F87B00700F6
:403B400092468146360B640D98466AD06D4B9C4235D08022430F12041343F6001E43C3009946694B00279C460023644402932B0368001B0BED0F51469B46400D009500D1E8
:403B800078E0604B98426CD05B46DA004B0F802109040B4313439B465346D9005A4B9C46002360444246201A6A40924601901F430F2F00D9B0E05548BF00C059874637438A
:403BC00000D088E0002399460233082700260293CDE74346B34649460093029B009A9246022B00D0BFE1002153460122002689461A40444B002136030C0D2405360B264367
:403C0000434C1B0526401E437600D207760816434846310007B03CBC90469946A246AB46F0BD330003434FD0002E00D1BCE1300001F00AF903000B3B1C2B00DDADE11D22AD
:403C40000100D31A08393A008F408E40DA40B9461643304B00279C46002360444442029385E753465A4613432CD1002300219B46023397E70B4320D05B46002B00D19EE13C
:403C8000584601F0E1F803000B3B1C2B00DD8FE102005946083A91408B461D21CB1A5146D9400B0059460B4351469B469140194B9C4660444042002374E7002300219B4617
:403CC00001336FE703236DE70023994601330427002602934BE703230C27029347E70122D51A382D00DCB0E153461A4000210023002689467EE700238026994600223603DE
:403D0000004B77E7FF07000001FCFFFFEC600010FFFF0F80F30300005E4500D972E100D16DE1019B4D46013B01930023340002935B461E020B0E1E430B020393330C994625
:403D400033041B0C494620000093FFF74DFC009B370043430600494620009846FFF7CAFC2C0C09040C43A04509D9E419731EA74200D95CE1A04500D859E1023EE419434618
:403D8000E41A49462000FFF72FFC0300009A80465343494620009B46FFF7ACFC2A040904120C0A4393450DD94346D219013B974200D93AE1934500D837E102235B429C46C1
:403DC000D219E0445B46D21A4346360433439B460399180C0B0C1D00059309045B46090C0C001B041B0C4443049159436B4368431B190D0CEB189C4203D980246402A4465D
:403E000060441C0C09041B04090C20185D18824200D2DEE000D1D7E0161A029B9C465D1BAC459B415B42F61AB74200D106E149463000FFF7D9FB009B04004343494630002D
:403E40009846FFF757FC2E0C09040E43B04509D9F619631EB74200D9F3E0B04500D8F0E0023CF6194346F31A494618000293FFF7BBFB009B06004343494602989846FFF7EB
:403E800039FC2D0409042D0C0D43A84509D9ED19731EAF4200D9D6E0A84500D8D3E0023EED192404210043463143049E059A3000ED1A0B040C0C1B0C5843664353435443E5
:403EC0009A19030C9B189E4203D980225202944664441A0C00041B04000C14191B18A54250D34DD001231943964A019B94466344002B00DCF3E64A0709D00F220A40042A0D
:403F000005D00A1D8A42894149428B4411005A46D20108D55A468C4B1A4093468022D2009446019B6344894A934200DD5BE65A46C908500708435602514601225B058146E7
:403F4000360B5B0D0A4055E680231B031E4211D05A461A420ED15E461E433603360B2A0089467B4B46E6032B00D1E1E0012BBBD11A40BBE61E433603360B4246744B39E618
:403F8000002BB1D07D194A1EAF4252D91100A542A8D1039A9A42A5D1A6E703003E00283B9E400023994654E600F04EFF203041E603005246283B9A400021934677E6504617
:403FC00000F042FF20305EE6029B0026AB4200D323E7039E0299B44661448846B045B6415B467642F619B218013B0291974213D290424FD800D18EE0161A9B460DE7894510
:4040000000D28EE674084B46F60735005B081D434B46DB0702938BE69742EDD10399029CA142E5D93E1A9B46F7E69846CAE61E00A5E6AC423ED874D0110053E701214942C0
:4040400052E71C000EE71E002BE71F2D3CDC20230A0058465B1B9840EA4099400243481E81415E461143EE404B0709D00F230B40042B05D00B00191D99429B415B42F61844
:4040800033023CD55346012200211A40002601238946AFE502235B429C46039CE344A446029B63449846A045B6417642F6190293B218B1E603988A1E41008142B6417642D1
:4040C000F619AD19039161E71F225242D31A5A46DA401300202D29D040225846551BA8400143481E814107200B4318400026002809D00F2200261A401900042ABBD10B00F3
:4041000070077602360BDB0803439946012253461A4000236EE502998D42BBD89B4600267BE603989842C5D3110032E70020D7E780265B4636031E433603360B009A89467D
:40414000034B57E5FF030000FFFFFFFEFE070000FF070000F0B55F4656464D464446F0B40D0399464E002B0B87B00700924680469B46760DCC0F002E69D06D4B9E4235D074
:404180005B468022DD001204430F13432B439B46C3009846674B00279C460023664401934A4615035000D20F53462D0B400D914600D176E05E4A90426CD080225B0F120448
:4041C00013435C4AED0094461D4353460022DB00604449463618701C6140029017430F2F00D9AFE05448BF00C759BF465B461F4300D088E000239B46984602330827019331
:40420000CEE74946022A6AD0032A00D109E2012A00D0BBE111400022002300259046CCB200212D030A0D12052D0B1543434A1B0515401D436D00E4076D08254340462900F0
:4042400007B03CBC90469946A246AB46F0BD034352D05B46002B00D18AE1584600F0F4FD03000B3B1C2B00DD7BE11D22D31A3A0001005D46DA4008398D4013008F402B431A
:404280009B46B8462E4B00279C46002360444642019385E752462A432CD100250023022297E752462A4321D0002D00D154E1280000F0CAFD03000B3B1C2B00DD46E11D2188
:4042C000CB1A51460200D9405346083A954093400D431B4A944660444042002279E7012400220C40124B0025904699E70025002301226EE703226CE700239B4698460133B4
:40430000042701934CE703230C27019348E700238025984600242D03054B81E75D464346019A6FE75D4643462100019A6AE7C046FF07000001FCFFFF2C610010FFFF0F8036
:40434000F30300004246120C91461A0C9446424617044A461B041B0C5A43604690464A4642431000039262461C003F0C7A437C4342440192220C9246019A5244904506D9EF
:404380008246802040028046C24450460390100C049048462404240C1204121905922A0C2D042D0C68432C00824648467C4350438146200C8046574357444744BA4503D97D
:4043C000802040028046C144380C3F04B84648442404240C01900498A044404404905846000C814658460404200C8246070048465F434C46434360466043644683465046D2
:404400004443380C8446E4186444A34203D980235B029C46E34448463F04230C3F0C2404E419574668436F4384464D46504655434243380C814662444A445B44944503D96C
:40444000802040028446654403983F04834604983F0C8446E344C345804140428246100484460198674484466744A344BC46A345A4419946D44464428742BF41D4458041C8
:40448000E144A04699459B417F424042C8440743120CBA18A045A4415F423B0064422343D71843467D19DB0D6D021D435B465A02059B1A43531E9A415B46DB0D1A43434682
:4044C0005B021343EA0107D501225C0813402343EA07029E13436D08574AB218002A4BDD580709D00F201840042805D0181D98429B415B42ED180300E80104D54F4A1540E9
:404500008022D200B2184E48824200DDE7E60124DB08680718436D02530580462D0B5B0D0C407DE6802259461203114208D0154206D115432D0398462D0B4C46414B6FE6CB
:404540005D4615432D032D0B3E4B69E603005546283B9D400023BCE6504600F075FC2030A8E60300283B9F400023BB46984689E600F06AFC203073E60124A61A382E07DDA4
:4045800000220C4000230025904649E6029EA3E71F2E20DC20222C001800921BF040944093400443581E83411C43F540630709D00F232340042B05D023001C1D9C429241C5
:4045C0005242AD182B021FD5012400220C4001230025904624E61F202C004042821AD440202E1CD04022961BB5402B43581E83410720234318400025002809D00F2200259D
:404600001A401C00042AD8D1230068076D022D0B0124DB08034398460C40002300E60025E3E780220124120315432D0398462D0B0C40044BF4E5C046FF030000FFFFFFFE93
:40464000FE070000FF070000F0B557464E464546E0B40E001100F20F9246C500420F180337037400400A4E0F7F0A3043CF4E17435A00640D520DDB0FC900B24200D1E5E0E2
:4046800001267340A61AB446534500D1AFE0002E00DC0DE1002A3AD103000B4300D0E4E06B0709D00F232B40042B05D02B1DAB42AD416D427F191D003B0200D488E0BB4B6A
:4046C00001349C4200D110E13A00B94B51461A4001235007ED08520264050543120B640D0B400021280012030D0D120B64052D0515436208AF4CDB072C4014436400640806
:404700001C4321001CBC90469946A246F0BDA74B9C42C5D080231B0418436346382B00DDFDE01F2B00DD30E1624620239B1A02009A40664690460A009940F24046464B1E4F
:4047400099413243114363460200DA40691A8D429B410D00BA1A5B42D71A3B0235D57A02530A98464346002B00D1C4E0404600F06BFB0300083B1F2B00DDC5E020222900B4
:40478000D21A4746D1409F400A009D403A439C4200DDC0E01C1B631C1F2B00DDE4E0202114002800C91AD8408C408D400443DA40681E854117002543002471E74246634646
:4047C0001A4300D14CE2674645466B0700D069E7012351467807ED08FA080B40054373498C4238D012036405120B640D79E7002E00DC9AE0002A47D06C4A944200D14FE779
:404800008022120410436246382A00DC08E10143481E81410022C9B24919D219A942BF410D007F42BF183A0200D442E15F4A0134944200D14EE101205D4A69083A402840B6
:404840000843D507054357089A4629E706000E4300D017E714E72900114300D1F9E1802109030A431203120B3BE701235B429846C4446346002B72D1691A8D429B413F1A9F
:404880005B42FF1A0D0068E702000A4300D107E7012252429046C4446246002A00D0E6E06918A942B6413F187642F7190D00BAE7002E00D080E0621C5205520D012A00DC12
:4048C000F9E06A1A91464D45B6413A1A7642921B9046120200D499E04D1BA9428941C71B49427A1A90469A463CE752460123002513400022F5E6280000F0A6FA20300300D8
:40490000083B1F2B00DC39E72A002838824000259C4200DC3EE7264FE41A1740C0E60143481E81410022C9B210E7002E00D0F1E0621C94465205520D012A00DCA0E01B4A65
:40494000944500D1C5E06918A94292413F185242D2194908D5070D4357086446A0E6134B9C4200D0D9E69BE611001F3CE1400C00202B00D180E04021CB1A9A4015436A1E66
:4049800095410027254300241FE763460200203BDA406346202B71D0402366469B1B98400143481E814111430022CFE6FF070000FFFF7FFFFFFF0F80002C48D0CA4CA24292
:4049C00000D1A2E07442A1468024240427434C46382C00DDDBE01F2C00DD44E14E462024A41B3E00A640A246B0464C462E00E640B4464646644626435446A5406C1EA541AF
:404A000034002C434D46EF400D1B28E04A4643464D461A4300D0A5E6002300240025DEE61F2A5ADC66462022921B060096409146B04662460E00D640424616434A4691407C
:404A40004A1E9141020060463143C240E4E63C002C435AD0F443A146002C52D14D1BA9428941C71B49427F1A14009A4675E69E4A944200D0C7E613E600227FE700208FE70E
:404A8000002C00D0C8E03B002B4300D10FE103000B4300D104E66918A9429B413F185B42DF193B0200D41AE1904B0D001F406446F6E59A4689E63A002A43002C5CD1002A57
:404AC00075D102000A4300D1CAE007000D009A46E6E564460022002581E662460600203AD6406246B046202A00D1B7E040226646921B904001434246481E8141114300222C
:404B00008AE6794CA24200D061E707000D0014009A46C5E5002C41D13C002C4378D0F443A146002C20D0704CA24271D04C46382C00DDB2E01F2C00DDBCE02026341BA246A0
:404B40003C005646B4404E46A0462C00F440A446444666463443A4465446A54064466E1EB54125434C46E7406D188D4289413F184942CF19140056E6002A2FD102000A4391
:404B800000D184E007000D009A46574C88E53D436F1EBD41ECB200270D1B60E7524CA24236D0744280263604A1463743BEE702000A4300D174E56A1A90464545B6413A1AB1
:404BC0007642921B9446120200D4F7E54D1BA9428941C71B49427F1A9A4661E502000A433AD0ED087C072C438025FA082D032A4208D0C7082F4205D145072C003A009A4666
:404C0000C9080C43670FD200E5001743364C47E507000D00140043E53A002A4343D002000A4319D0ED087C072C438025FA082D032A4207D0C6082E4204D147073C0032000D
:404C4000C9080C43D700620FE50017439A46264C26E50022002544E5234C21E5002049E700230025BBE54C463E00203CE6404C46B446202C31D040244E46A61BB7403D43B8
:404C80006C1EA54164462C4300270D1BE7E6802200231203144C0025A1E53D436F1EBD410027EDB260E707000D000F4CF8E407000D00F5E44E463C00203EF440A0464C4640
:404CC000202C0ED040244E46A41BA7403D436F1EBD4144460027254346E70027CFE70D0073E50027F2E7C046FF070000FFFF7FFF0B0330B5134D1A0B4B005B0DC90F0024AA
:404D0000AB4211DD104CA34210DC8024640322430E4CE41A1F2C0CDD0D48C31ADA4013005C42002900D11C00200030BD094BCC18FAE7E040084CA44663449A4013000343FE
:404D4000EEE7C046FE0300001D0400003304000013040000FFFFFF7FEDFBFFFF70B5051E28D000F071F8154B154A1B1AD21A1F2A16DD2C00134A0025D21A94405A052403DD
:404D8000240B520D002124030B0D240B1B0523430D4C1205234013435B002800590870BD0B212C00081AC440954024035A05240B520DE7E700220024E4E7C0461E040000A8
:404DC0003304000013040000FFFF0F808446101C62468C46191C634600E0C0461FB500F001F9002801D40021C8421FBD10B500F055F84042013010BD10B500F0F3F8002898
:404E000001DB002010BD012010BDC04610B500F0E9F8002801DD002010BD012010BDC04610B500F07BF8002801DC002010BD012010BDC04610B500F071F8002801DA0020E9
:404E400010BD012010BDC0461C2101231B04984201D3000C10391B0A984201D3000A08391B09984201D30009043902A2105C40187047C04604030202010101010000000084
:404E80000000000010B5002903D1FFF7DDFF203002E0081CFFF7D8FF10BDC046F0B55F4656464D464446F0B41F035C00DB0F9A46194B0E034D00C90F8046360B6D0D8B468D
:404EC00091463F0B640D9D4219D0134B9C421BD00123A54206D018003CBC90469946A246AB46F0BDBE42F6D1C845F4D1D34510D0002DF0D1304303005A1E9341EBE73100C1
:404F000001230143E7D1E0E73A430123002AE2D1DEE70023DFE7C046FF070000F0B55F46444656464D46F0B41F033C0B2C4F0E034D00A3465C008446360B6D0DC90F9046F1
:404F4000640DDB0FBD422BD0254FBC422ED0002D0ED130430700814678427841002C17D15F463A4314D14B460020002B0AD006E0002C02D15846024301D099421AD0012359
:404F8000484218433CBC90469946A246AB46F0BD0028F2D058425841012240421043F1E737000743D0D002204042EBE75F461743CDD0F8E7A542E2DC05DB5E45DFD808D023
:404FC00000205E45DED248424841012340421843D8E7C445D3D80020C445F4D3D2E7C046FF070000F0B55F464D4644465646F0B41C03240BA4462F4C0F034D005E00C90F13
:4050000080463F0B6D0D8B469146760DDB0FA54220D0284CA64222D0002D12D1384344424441002E20D0002C0DD05C42634101245B421C4320003CBC90469946A246AB46E6
:40504000F0BD002E17D05B4519D05B465C4201231C43EFE7390002240143EBD1D9E7614602241143E6D1D7E761460A43DBD100240028DFD0E9E761460A43E4D1E5E7B542C1
:4050800003DD01225C421443D4E7B542CDDB6745DBD809D000246745CCD259464C426141012449420C43C5E7C845CED80024C845F3D3BFE7FF07000030B50024A24208D063
:4050C000035D651C0C5DA34201D0181B02E02C00F4E7002030BD002310B59A4203D0CC5CC4540133F9E710BD03008218934202D019700133FAE77047030030B5002A0DD047
:405100000C7801335D1E013A2C700131002CF5D19A189A4202D01C700133FAE730BD0000F8B5C046F8BC08BC9E467047F8B5C046F8BC08BC9E46704701B40248844601BC41
:40514000604700BF9504000801B40248844601BC604700BFC103000801B40248844601BC604700BFCD0200086D61696E5F636D30702E6300030000000100000001000000A3
:405180000000000005036000040000000100000000000000010000000604600008000000A4160008C90400100300180003000000F4010000280002010A0009000800000017
:4051C000EB00000010000000100000000002000000060A00000000000000000000000000000000000000000020000000000000000000000000006000000000000000000012
:40520000000000000000000000000000030000000000000000000000CC0000BA0000000000000000000000001313000000001D1D0700000000000000000000008666000092
:4052400000000000000000000000000014141400000000008000000000000000000000000000006000000000000000000000000000000000000000006C09001078090010FC
:4052800084090010900900109C090010A8090010B4090010C0090010EC090010F6090010000A00100A0A0010140A00101E0A0010280A0010320A001047656E65726174651B
:4052C000645F536F757263655C50536F43365C70646C5C647269766572735C7065726970686572616C5C737973696E745C63795F737973696E742E630000000047656E65BD
:4053000072617465645F536F757263655C50536F43365C70646C5C647269766572735C7065726970686572616C5C6970635C63795F6970635F6472762E68000047656E65FC
:4053400072617465645F536F757263655C50536F43365C70646C5C647269766572735C7065726970686572616C5C6970635C63795F6970635F6472762E63000047656E65C1
:4053800072617465645F536F757263655C50536F43365C70646C5C647269766572732F7065726970686572616C2F6970632F63795F6970635F6472762E68000047656E6503
:4053C00072617465645F536F757263655C50536F43365C70646C5C647269766572735C7065726970686572616C5C6970635C63795F6970635F706970652E630047656E65DF
:4054000072617465645F536F757263655C50536F43365C70646C5C647269766572735C7065726970686572616C5C737973636C6B5C63795F737973636C6B2E630000000070
:4054400047656E6572617465645F536F757263655C50536F43365C70646C5C647269766572735C7065726970686572616C5C737973636C6B5C63795F737973636C6B2E68AC
:405480000000000047656E6572617465645F536F757263655C50536F43365C70646C5C647269766572735C7065726970686572616C5C6770696F5C63795F6770696F2E6345
:4054C0000000000047656E6572617465645F536F757263655C50536F43365C70646C5C647269766572735C7065726970686572616C5C6770696F5C63795F6770696F2E6800
:405500000000000047656E6572617465645F536F757263655C50536F43365C70646C5C647269766572735C7065726970686572616C5C737973706D5C63795F737973706D3B
:405540002E63000047656E6572617465645F536F757263655C50536F43365C70646C5C647269766572735C7065726970686572616C5C70726F745C63795F70726F742E63C7
:405580000000000047656E6572617465645F536F757263655C50536F43365C70646C5C6D6964646C65776172655C626C655C63795F626C655F68616C5F7076742E63000058
:4055C00000000000000000000000000066666666000000000000FFFF000000001C1C1C1C1C1C1C1C00000000000000000000000066E6EE66000000000000FFFF0000000097
:405600001C1A1A1A1A1A000000000000000000000000000066E66666000000000000FFFF000000001A1A001C000000007C01000031010000090901120C00FF0380ABCDABE1
:40564000CD80409C1B04041BFFFFFFFF000000000410080007070400F216FBE0FBE01F60427EF56D720096BE2090000010502604060037D7F401FA00960064004B003200C0
:405680001E00140003040506020D110071EC0010D5EB001027F2001025ED0010D7ED0010D3F10010EBF10010ADF2001051EE0010B9EE001095F00010C3F00010FBF2001060
:4056C000C1F100108FF200108FF200108FF2001069F1001011F1001055F10010C5270110D12701108D370110753801108138011021ED00106FEC00106BF20010D5ED001038
:405700000FEE0010E3F1001005F20010F9F20010B5EE001011EF0010AFF00010E9F0001067F30010CBF10010F9F20010F9F20010F9F20010B9F10010F9F20010F9F2001044
:40574000F9F20010F9F20010F9F20010F9F20010F9F20010970801109F0801109B08011095080110730801106F0801108D0801108B080110670801106B080110A30801105A
:405780008F08011089080110A7080110A708011065080110930801101D1F0110D122011095200110411E0110A91101105D0E0110D518011071140110C90901102D0A011068
:4057C00029240110611C011009140110DD0D011061180110016C0010111D0110C924011055280110A1290110752A01109126011025250110DD270110052601102F2601105D
:405800003F26011041260110452601108FF20010312601103B260110392601108D3B011085350110F93A0110A93A0110453B01108D3801109937011031380110F538011047
:40584000A1D00010A73501109D350110A3350110A1350110A53501109F3501108FF200108FF200108FF2001069BF0010754E0110574E0110574E0110574E01108D4E01106A
:40588000398D0110574E0110298D0110418D0110318D01100F530110075301107152011069520110674E01104F4E0110454E01106B4E011061520110915201105F4E011010
:4058C00089520110E9520110574E0110995201108152011079520110574E0110954E01109D4E0110A54E01105B4E01105B4E0110754E0110574E0110574E0110574E0110EA
:405900008D4E0110398D0110574E0110298D0110418D0110318D01100F530110075301107152011069520110674E01104F4E0110454E01106B4E0110615201109152011061
:405940005F4E011089520110E9520110574E0110995201108152011079520110574E0110954E01109D4E0110A54E01105B4E01105B4E0110897601107D7601109576011071
:405980005B4E01105B4E0110297301106573011035730110597301104D73011041730110717301107D730110717601107178011075780110817801105978011065780110F1
:4059C0005B4E01105B4E01105B4E01105B4E01105B4E01105B4E01105B4E01105B4E01105B4E01105B4E01105B4E01105B4E01105B4E01105B4E01105B4E01105B4E011007
:405A00005B4E01105B4E01105B4E01105B4E01105B4E01105B4E01105B4E01105B4E01105B4E011089730110636A0110116901101169011011690110956A0110256A0110A0
:405A400011690110096A0110D56A01101F6A0110AF6A0110A56A01109368011011690110116901101169011017680110F36901103D680110756A01109B690110AB69011059
:405A80002569011011690110EB6A0110616901105369011011690110DF690110236B0110116901101169011011690110197601100D76011025760110A969011043690110CA
:405AC0009D720110D9720110A9720110CD720110C1720110B5720110E5720110F172011001760110117801101D78011029780110F9770110057801101169011011690110B7
:405B000011690110116901101169011011690110116901101169011011690110116901101169011011690110116901101169011011690110116901101169011011690110B5
:405B400011690110116901101169011011690110116901101169011011690110FD720110936D0110C16C0110C16C0110C16C0110D76D01103D6D0110C16C0110856D0110BC
:405B8000856D01102F6D0110ED6D0110DB6D01103D6C0110396C01101D6D0110D16B0110C36B0110C36B0110D56B0110B76D0110F16C0110056D0110C56C0110C16C0110A4
:405BC000216E0110DD6C0110C96C0110C16C0110216D01103D6E0110396E0110C16C0110C16C0110457501103975011051750110656E0110BF6B0110E3710110ED71011044
:405C0000F971011005720110ED710110ED710110117201101D7201102D7501101D77011029770110357701100577011011770110C16C0110C16C0110C16C0110C16C01106B
:405C4000C16C0110C16C0110C16C0110C16C0110C16C0110C16C0110C16C0110C16C0110C16C0110C16C0110C16C0110C16C0110C16C0110C16C0110C16C0110C16C011044
:405C8000C16C0110C16C0110C16C0110C16C0110C16C01102972011008000000060F0020200107021900000007070E05020220001C1202000103000E030600040040270780
:405CC00000000707010200020307030400000000000000000000000000000000000000000000000000080000636A0110116901101169011011690110956A0110256A011049
:405D000011690110096A0110D56A01101F6A0110AF6A0110A56A01109368011011690110116901101169011017680110F36901103D680110756A01109B690110AB69011096
:405D40002569011011690110EB6A0110616901105369011011690110DF690110236B0110116901101169011011690110936D0110C16C0110C16C0110C16C0110D76D0110A7
:405D80003D6D0110C16C0110856D0110856D01102F6D0110ED6D0110DB6D01103D6C0110396C01101D6D0110D16B0110C36B0110C36B0110D56B0110B76D0110F16C0110A9
:405DC000056D0110C56C0110C16C0110216E0110DD6C0110C96C0110C16C0110216D01103D6E0110396E0110C16C0110C16C011008000000060F0020200107021900000013
:405E000007070E05020220001C1202000103000E032000800000C00000000004000000A822000000000000040000F7FFFF7F00000030000000000000000000000000000002
:405E40000000000000000000000000000000000000000000F1700110357201109B7101105171011043720110C37101102171011051720110A77101104F71011055720110B4
:405E8000BF7101103971011043720110B77101102371011043720110AF7101106771011061720110CB7101106D71011071720110D371011011690110C16C01105B4E011076
:405EC00011690110C16C01105B4E011011690110C16C01105B4E011011690110C16C01105B4E011011690110C16C01105B4E011011690110C16C01105B4E01101169011088
:405F0000C16C01105B4E011011690110C16C01105B4E01107B71011089720110DB71011011690110C16C01105B4E011011690110C16C01105B4E011011690110C16C0110B1
:405F40005B4E011011690110C16C01105B4E011011690110C16C01105B4E011099730110757501101D750110977301106975011015750110BF730110C175011025750110CC
:405F8000957301105D7501100D75011011690110C16C01105B4E011011690110C16C01105B4E011011690110C16C01105B4E011011690110C16C01105B4E011011690110BB
:405FC000C16C01105B4E0110C17601107D77011000000000CF76011091770110CD390110DD760110BB770110FD390110A17601104177011081360110AF7601105F77011012
:406000009D36011030303031423830303031303230333034303530363037303830393041304230433044304530463130313131323133313431353136313731383139314136
:406040003142314331443145314632303231323232333234323532363237323832393241324232433244324532463330333133323333333433353336333733383339334196
:4060800033423343334433454142000026002B00300036003C0043004B0055005F006A00770086009600A800BD00D400EE000B012B014F017801A601DA01130254029D029D
:4060C000EE024A03B1032404A5043605D9058F065C0742084409650AAA0B160DAF0E79107C12BD1445171C1A4B1DDE20183D0010E63B0010EC3C0010DC3B0010EC3C001025
:40610000F63C0010EC3C0010DC3B0010E63B0010E63B0010F63C0010DC3B0010D23B0010D23B0010D23B0010483F0010444300100442001004420010024200101C430010FF
:406140001C4300100E430010024200101C4300100E4300101C430010024200102443001024430010244300102445001000000000F8B5074600256846058078683C1D304986
:406180002E46002807D06268002A06D0800702D1207A800701D00D464FE0FCF793FEFCF7E7FEFCF7AFFE00F035F900283DD1788C0006C00F00F0ACF905460004000C34D1B6
:4061C0002049084600F0ECFE0004000C2DD12289A17A20681C4C002806D02060A280E68021810021FEF780FF684601F035FD054616486B460078E2888000001DC1B21B884D
:40620000A088D418A04206D3C01A801A80B201F0D3F9044600E00E4C00F076FD002C04D100F086FB0B480121817000F001F9002D03D001F0A9FB074806702846F8BD000006
:4062400001001600E96300103817000874170008FFFF00000401000810B5094CA07801280AD06078012806D12078002803D101F066FB0020607010BD01F03EF810BD000012
:406280000401000810B5FCF7A9FD032801D100F02DFE00F0F5F901F061FD00F0B3FE02490020887010BD000004010008004870473817000870B5044600208A0703D08A0776
:4062C000920F891A091D084B89B2DA889E885518B54206D81D68AA182260DA885118D98070BD024870BD00003817000803001600004870474417000810B501F04BFC10BDAF
:406300000649002808D006498180052101700021417002218170002108467047010016009503000010B5FFF797FF10BD10B501F03BFC10BD10B501F049FC10BD38B5054694
:40634000002069460880002D09D0284601F04AFD0446684601F074FC002C02D015E00C4838BD01F02BFC2846FFF702FF04000CD1284601F0BFFC040007D1FCF72FFD0328E7
:4063800003D100F079FD00F0C7FD204638BD00000100160038B50446002069460880002C08D06189090A05D1617A102902D8E179102901D90A4838BDA0816946204601F04F
:4063C000DDFC05466946A08909884018A081002D04D1102221460348FEF77DFE284638BD01001600441700087047000010B5084900200978002909D005F0A8FF044605F019
:406400006BFE201A80B281004018C00810BD00000C01000810B5FCF76DFF442202490348FEF759FE002010BD305600105417000810B5FCF781FD10BD10B51A46034C01F03A
:4064400001FA002800D00024204610BDFFFF000010B501F007FB10BD10B501F065FA10BD010010B5044806D0044A01201070002007F0C2FE002010BDFFFF00000C010008BF
:4064800070B50024034D20462C7007F0E3FE2C70204670BD0C01000801480078704700000C01000870B5591C89B24C080B4D64000021451906E028685054000A5618891CFD
:4064C000707089B2A142F6D3D80705D0D0182038D15CC47FD454C17770BD000000103C4030B50A4C002100195B1E07E054186478555C240225430560891C89B29942F5DB0C
:40650000994201D1515C016030BD000000103C40F8B50746FF2000F0F3F9164EFF2070701548164900684018406B0024410F301D0125022901D0457000E0447005700D48B2
:40654000801C4470384612F05BFC070010D112F099FC3070012000F0D3F912F09DFC68460470447013F002F86846457012F0FEFF3846F8BD0D0100080801000840F03D4021
:40658000F0B50021094D5B1E08E0441924685718260A7E705454001D891C89B29942F4DB994202D1401900685054F0BD00103C4070B500210A4E5B1E09E0541864782502DE
:4065C000545C2C4385192C60001D891C89B29942F3DB994202D1515C8019016070BD000000103C40F0B50599091FCFB200217E1E0AE054186478555C24022543144C041907
:406600002560001D891C89B2B142F2DBFC0710D01C78515C24020E4A0C4381180C609C785D782102001D294384182160001DD9780BE059781A7809021143054A84182160E9
:40664000D978001D9B780902194380180160F0BD00103C4038B509480024447012F01CFC69460C704C70684612F080FF012069464870684612F07AFF002038BD0F010008DC
:4066800010B501F09BFA0A480078012805D1FCF789FF012809D013F04DF805490020891E0870062000F02CF910BD13F02DF8F4E70F01000810B50B460B281BD00ADC01280E
:4066C00011D0032813D0062803D11146184612F0CBFE10BD112811D01228FAD11146184612F034FB10BD0020FFF712FF10BDFFF7B1FF10BD04480078107010BD114618465D
:4067000012F034FB10BD000011010008F8B5184D184E28688019846AE00719D001F08AFA0127012811D1002001F056FB052000F0E7F81149FF204870881C4078002804D15A
:4067400028688019416B39434163286880198762E0050CD50848801C0078052802D1042000F0CEF8FF202968013089198862F8BD0801000840F03D400D01000805490028A2
:4067800005D005494A784270097801700021084670470000010016001101000838B504000C4816D06178012913D801F007FA607812F092FE207000280AD16946087068461C
:4067C00000F090F869460878012801D104202070002038BD0100160010B5094900280CD00278082A09D24278042A06D205494A700078087012F050FB0021084610BD000034
:40680000010016001101000810B504460448032C05D801F0D3F9204612F06AFE002010BDFFFF160010B50400054808D06178012905D801F0C3F9204612F098FE002010BDCC
:406840000100160010B5FCF7ADFE0122084992040028084B086804D0C018016A1143016210BDC018016A9143016212F06DFA10BD0801000880F03D400949087805280ED182
:406880004A780848084900684018002A03D1416B490849004163C16A01221143C16270470F0100080801000840F03D4001480078704700000F01000802484078022800D0EF
:4068C000012070470D010008012807D0032807D0042803D0052803D0FF207047012070470220704710B5040002D012F083FA207010BD000001494870704700000F010008DA
:4069000010B50446FCF734FB062C01D9FF2C01D102480470FCF710FB10BD00000F01000801494870704700000D010008002070471CB5002469460C700A2001902346054A43
:40694000054800F01DFA04480068401C00D1034C20461CBDA569001014010008FFFF00003EB50F4A01460D4800230124126800290BD0012908D16846009304814381694631
:40698000104600F0F8F980B23EBD68460093048143816946104600F0E9F9F4E7FFFF00001401000810B50089002100280BD0012802D0052807D103E000200DF093FE02E037
:4069C000084600F01DF9002010BD000010B50248006800F073FC10BD14010008FFB581B01F00154606463CD001F0E8F8FCF7C0FA2F49304B4878401CC0B2044606E022018D
:406A0000D218127A202A2AD0641CE4B2202CF6D3002406E02201D218127A202A1FD0641CE4B28442F6D32024202C1AD03470029821490202120A200602432001C618726072
:406A40001F501B4869180078009120280CD0FFF7CDFC0746BD4223D3281AF0601BE04C70E2E7164805B0F0BD13484042854207D9FFF7F6FC014611488142F3D0009807E0B2
:406A8000A8B2FFF7EDFC01460C488142EAD00020F060074804703472FCF74EFA0020E1E7FFF7EEFC781B012100F046F9DCE700001801000898170008C063FFFFFFFF00000B
:406AC00070B5074CA5780D2D07D2FFF787FF002802D1A178491CA17070BD024870BD000018010008FFFF000070B5074CE578002D01D0064870BDFFF771FF0028FAD1E17825
:406B0000491CE17070BD000018010008FFFF0000F8B520280BD2234D07017C19207A202805D001F04BF8E068002802D031E00120F8BDFCF71DFAFFF759FC012100F0FCF805
:406B40000020184EE060FFF79BFCFCF7F5F900F0C1F80546202819D0FCF70AFA280186191148F168814205D90646FFF779FC0021304604E088B2FFF773FC0021F06800F070
:406B8000DBF8FCF7D9F90948057002E00749202008702020034920720020C8516060E060F8BD000098170008409C00001801000810B5074CA178002908D0FFF7A9FF0028D5
:406BC00002D1A078401EA070002010BD014810BD18010008FFFF000010B5074CE178002908D0FFF795FF002802D1E078401EE070002010BD014810BD18010008FFFF0000FB
:406C0000F0B500258BB02E46089500F0D7FF00236A4618462C49040161180C7A202C02D0C96800291DD000211154401CC0B22028F0D300240993099800280FD06846005D97
:406C400000283BD020482101081806684168089100210160202241600272C160002D04D028E0012111540B46DFE700F033F80546202819D0144829010818C7681348874256
:406C800007D90021074600F057F8FCF771F9384606E00021384600F04FF8FCF769F9B8B2FFF7DEFBFCF748F9094805700998002808D00125002E01D00898B047641CE4B2B5
:406CC000202CB8D30BB0F0BD98170008409C00001801000830B50023DB432020094C00210A011219157A202D06D0D268002A03D09A4201D808461346491CC9B22029EFD35F
:406D000030BD00009817000830B50020084C05462023020111190B72A550401C4D60C0B2CD602028F5D303480370457030BD0000981700081801000830B50B4D00231A01BE
:406D40005219147A202C0AD0D468002901D0241804E0844201D9241A00E00024D4605B1CDBB2202BEBD330BD9817000810B50EC900F0BCFA10BD10B50EC900F0EFFA10BD86
:406D800038B50024E443054600290AD0052000904B68097804A000F04DFA2860401C00D00024204638BD00007461736B000000000EB5002005216A460090118150810348AC
:406DC00069460068FFF7D7FF0EBD00001401000810B51C481C4C0178491E0170FF206070FCF706F8002823D0FCF7D6FB01460020FCF708F8FCF75CF8401C022811D862882D
:406E0000124882420AD0124B0021601CFFF76CFE002803D00D2010F068FF10BD0220207010BDFF20F530FBF7D5FF00F075F810BD0548084B02220021401CFFF755FE00283F
:406E4000E8D110BD1B0100081C010008FFFF0000916E0010D16D001010B503480078042801D100F059F810BD1C01000801480078704700001C010008044800210170FF2194
:406E80004170FF21F5314180704700001C01000806490878401E087005480178012901D003210170FF214170704700001B0100081C01000810B505490878401E08700449BC
:406EC000FF20487000F028F810BD00001B0100081C01000801494880704700001C01000801490870704700001C01000810B5054C6078FF2803D000F007F8FF206070002023
:406F0000207010BD1C01000810B502484078FFF763FE10BD1C01000810B5114C6078FF2801D0FFF7F1FFFF22043280210820FBF76DFF002809D00B4B022208E00120207055
:406F400010BD0D2010F0D1FE10BD074B052204480021401CFFF7C8FD0028F2D1EEE700001C010008B56E0010D16D0010C0080A21484380B20849C82801D2084809E00246D3
:406F80001923C83A5B019A4201D2400801E0FF20F5304880704700001C010008FFFF000010B50F4A002313600E4A13600E4B18600E4801600E49012008600E49086088202B
:406FC00090600E490C4808600D49143008609C38506000F0BFF800F0E5F9002010BD000038010008200100084C010008500100083C0100082C010008201A00083001000899
:407000004401000800207047014610B50020002910D0094B1A689C685118A14209D25868196080188A0704D08A07920F891A091D196010BD002010BD20010008F8B5002498
:40704000164E671E321F3D463168136806E01422624310328A58521C1BD0641C9C42F6D36A1C14D02C461422544322460C3288500C214843FFF7C8FF3168002808510AD04A
:4070800031680020103408517068401C70602846F8BD2546E4E73846F8BD000030010008F3B50026F64381B000281BDB1E490968884217D80299002914D01B4F1422044638
:4070C0003F1D54432546396810354859401C09D0FBF74EFF38682F1F4159C359994203DBFBF72AFF3046FEBD214608310091465801590C20704308180C220299FDF7EBFFBF
:407100000948761C001D0068C159B14200D100260549009A091D865008684159491C4151FBF70AFF0020FEBD2C010008002803DB07490968884202D90020C0437047044960
:407140001422091D0968504310300858704700002C010008F0B500200D4A451E0346171F50600FE014260146714314680E1DA3510C4616680834335116680834355114686A
:40718000401C635039688842ECD30020F0BD000030010008F3B50026F64381B0002841DB2349096888423DD8029900293AD0204F142204463F1D54432546396810354859B6
:4071C000401C2FD0FBF7D4FE3868415900292BD0211D009146580C21005971430F46C1190C220298FDF777FF11480021001D0068761C00590C34C0190160416081600C48D0
:40720000001D00680159B14200D100260849009A091D865008684159491E4151FBF78CFE0020FEBD3046FEBDFBF786FEFAE700002C010008FEB504460D4600201E49089E0A
