:020000041008E2
:4000000000780408F90208100D00000061030810610308106103081061030810000000000000000000000000000000005D0308105D030810000000005D0308105D0308104C
:400040005D0308105D0308105D0308105D0308105D0308105D0308105D0308105D0308105D0308105D0308105D0308105D0308105D0308105D0308105D0308105D03081000
:400080005D0308105D0308105D0308105D0308105D0308105D0308105D0308105D0308105D0308105D0308105D0308105D0308105D0308105D0308105D0308105D030810C0
:4000C0005D0308105D0308105D0308105D0308105D0308105D0308105D0308105D0308105D0308105D0308105D0308105D0308105D0308105D0308105D0308105D03081080
:400100005D0308105D0308105D0308105D0308105D0308105D0308105D0308105D0308105D0308105D0308105D0308105D0308105D0308105D0308105D0308105D0308103F
:400140005D0308105D0308105D0308105D0308105D0308105D0308105D0308105D0308105D0308105D0308105D0308105D0308105D0308105D0308105D0308105D030810FF
:400180005D0308105D0308105D0308105D0308105D0308105D0308105D0308105D0308105D0308105D0308105D0308105D0308105D0308105D0308105D0308105D030810BF
:4001C0005D0308105D0308105D0308105D0308105D0308105D0308105D0308105D0308105D0308105D0308105D0308105D0308105D0308105D0308105D0308105D0308107F
:400200005D0308105D0308105D0308105D0308105D0308105D0308105D0308105D0308105D0308105D0308105D0308105D0308105D0308105D0308105D0308105D0308103E
:400240005D0308105D0308105D0308105D0308105D0308105D0308105D0308105D0308105D0308105D0308105D0308105D0308105D0308105D0308105D0308105D030810FE
:400280005D0308105D0308105D03081010B5054C237833B9044B13B10448AFF300800123237010BD6469020800000000B4870810084B10B51BB108490848AFF30080084813
:4002C000036803B910BD074B002BFBD0BDE81040184700BF0000000068690208B487081008460208000000007047EFF3108072B6704780F310887047FFF7F6FF72B6114CEF
:40030000114DAC4209DA21686268A368043BA2BFC858D050FAE70C34F3E70C490C4A00209142BCBF41F8040BFAE70A480A490860BFF34F8F00F022FC00F0FCFB00F01EF87B
:40034000FEE7000008660910206609106469020898D802080040020808ED00E0FEE7FEE700B504207146084202D0EFF3098001E0EFF30880043003F037FFFEE700B583B0AC
:4003800062B600F049F900F007FB00F013F900F035FA00F057F904F03FFE0F4B00934FF48E731A460D490E4803F0B4F901F002FB01F0B6FD00F0A8F800F07AFA01F078FDAC
:4003C0000028F7D101F008FB01F036FC01F01AFC01F0A6FDEEE700BF5CD80208F0D602080000644000B58BB08DF8241000218DF8251006AA0791089109AB06930223ADF899
:400400001C30ADF8200001AB0491059107CA83E80700074B1A88ADF812201B7813B140238DF8143001A804F0D7F90BB05DF804FB8069020800B587B08DF807000E4B5B7830
:400440000E4AD35C13F0FF0F13D100230393049305930DF1070302930123ADF80C300E23ADF81030044B1B88ADF8143002A810F075F907B05DF804FB806902084CD8020841
:4004800008B50021024B99700F20FFF7ABFF08BD8069020808B503681978012904D8034B99700F20FFF79EFF08BD00BF8069020808B545F20103984211D003D8B0F5805F20
:4004C00009D008BD45F2020398420CD045F20C0398420BD008BD01220A4BDA7008BD0A88084B1A8008BDFFF7CBFF08BD0B890F2B02D10846FFF7CEFF024B186810F03CF9A8
:4005000008BD00BF8069020800B583B008F088FA254B1B88ADF80430C3F3072313B9234AD35C00E00023022B14D11F4B1B79022B04D002201C4B187100F0B2F81A4B9B7876
:40054000012B2DD100F002FA03784BB34078FFF771FF25E0164B1B78022B09D1124B1B79012B1DD00120104B187100F099F817E00D4B1B79022B05D103200B4B187100F066
:400580008FF804E00020084B187100F089F8064BDB782BB10020044BD870014604F05EF803B05DF804FB00BF806902083CD802083DD8020808B5024801F0CEF908BD00BF62
:4005C000B10408100122014BDA707047806902080E4B1B78022B09D0002070470C49C95C012901D90132D2B2013301E000221346002BF3D02AB1074B9B78012B03D00120EF
:400600007047012070470020704700BF3BD802083CD802088069020808B5192000F0C2FA012000F0C7FA48B10021012000F0CEFA002000F0BFFA0122014B1A7008BD00BFBA
:400640008569020810B582B00F4B1868019000238DF8003002238DF801300C4B1B788BB10B4C01AA0B49204600F0FCFA6B460A4A0A49204600F00EFB01230222214600201F
:4006800000F0C6FA02B010BD2051081085690208F073020824510810B8420208D467081003282FD8DFE800F028020E1B2022164B5A60802203F5C0639A60144B00221A70DE
:4006C0005A7070472022104B9A60802203F5C0639A600E4B01221A7000225A7070472022094B9A60802203F5C0635A60074B00221A7001225A7070472022034B9A6000222D
:40070000024B1A70704700BF8000324086690208124B1B787BB1114B9B7833B12022104B9A6000220D4B9A7005E020220C4B5A6001220A4B9A70094B5B786BB1074AD3785E
:400740000133DBB2D370052B06D913460022DA705A708022034B9A60704700BF866902088000324080063240054B5B7823B9044B1B781BB101207047012070470020704760
:400780008669020808B50B4B01229A619B690A4BB3F90030002B09DB5A0903F01F03012101FA03F36032054941F82230FFF7B0FF08BD00BF00022640E479081000E100E00E
:4007C00008B50B4B5A6910225A615B69094BB3F90030002B09DB5A0903F01F03012101FA03F36032044941F82230FFF7EBFE08BD00003240EC79081000E100E010B5254CB4
:400800002549204602F008FC01232362234C2449204602F06DF8B4F90030002B08DB5A0903F01F000121814060321E4840F82210002B08DB590903F01F03012202FA03F36D
:40084000184A42F82130134A536943F001035361002003F0ADFC144C1449204602F048F8B4F90030002B08DB5A0903F01F000121814060320B4840F82210002B08DB590974
:4008800003F01F03012202FA03F3064A42F8213010BD00BF00022640F4790810E47908108507081000E100E0EC790810C107081008B5FFF78DFE002840D000F065F8002898
:4008C0003CD0FFF751FFC8B91D4A536923F00103536103F06DFC1B4BB3F90030002B0DDB5A0903F01F03012101FA03F32032164941F82230BFF34F8FBFF36F8F01F08EF808
:40090000002003F0B7FB01F08BF8FFF72DFFA8B90C4BB3F90030002B08DB590903F01F03012202FA03F3084A42F82130044A536943F001035361002003F03AFC08BD00BF8F
:4009400000022640E479081000E100E008B501F0AFFA30B901F040F81922094B1A7001F0DFFA074B5A791B789A4204D0044A53710123137102E00022014B1A71014808BD82
:400980008C6902089069020808B501F091FA08B1002008BD012008BD08B501F00BF808BD704700BF5C4AD2F8803303F00F0303F1D00152F8212002F00702032A04D0042AEA
:4009C00005D092B9554914E0554A116811E003F1C002514951F8222002F01F02112A06D0132A04D04FF4FA4103E04E4901E04FF400418BBB484BD3F8902502F00100D3F8B8
:400A00008825C2F30172D3F8883513F0405F07D0414BD3F88835C3F30173012B02D102E0012300E0002303B108B9032A46D13A48D0F88025C2F31103D0F88425C2F30C02F5
:400A4000D0F88005C0F300600130B1FBF2F202FB03F2B2FBF0F131E0012B2FD12E4BD3F8402602F00100D3F80026C2F30172D3F8003613F0405F07D0274BD3F80036C3F33F
:400A80000173012B02D102E0012300E0002303B108B9032A12D12048D0F8002602F07F02D0F80036C3F30423D0F80006C0F3044002FB01F2B2FBF3F2B2FBF0F1164BD3F890
:400AC0008033C3F3011321FA03F215494A601648D0F89030C3F3072301330069000E0130B2FBF0F08860B2FBF3F3CB600B6103F5742202F23F220D48A0FB0202C2F38742CB
:400B00000A7503F2E7330A4AA2FB03239B098B61DB03CB61704700BF0000264000127A008C42020800366E010000214083DE1B43D34D621008B5104BD3F8802122F04042C7
:400B400042F08042C3F88021D3F8802142F00042C3F88021D3F8802122F00102C3F88021FFF71EFFFFF71EFF00F0DCFE00F0E2FE03F0D2F808BD00BF0000264008B5FFF7F2
:400B8000B4FB074AD2F8883043F47003C2F88830BFF34F8FBFF36F8FFFF7ABFB08BD00BF00ED00E010B5044600F04AF9204600F0EDF910BD08B510B100F082FD01E000F061
:400BC000A1FD08B9012008BD002008BD38B504460D4611B10120FFF7EDFF44B10321002000F000FA0321002000F0FCF909E044B9064C0321204600F0F5F90321204600F016
:400C0000F1F915B10020FFF7D5FF38BDFFFF0F10F8B507460E4614461D4613B10120FFF7C9FF24B93146384600F0EEFB15E0631EDBB2012B11D80021384600F0D3F9012C0F
:400C400007D10121384600F0CDF90221304600F0C9F90321304600F0C5F915B10020FFF7A9FFF8BDF8B507460E46154694780DE02A7804EB4410104480B26B789A1A92B292
:400C80003118384404F009FA0134A4B2EB789C42EED9F8BD2DE9F0478A4680E01D78167AB5426AD25E78577ABE4266D2177992F807E092F805C00EFB06C692F806C006EB16
:400CC000461605FB0C653D44AFB2A4F12105EDB25D2D4ED8213C1EFB0CFE1EFB04FE1FFA8EFC4FF0000E23E01FFA86F81FFA8EF404EB44153D444544ADB209FB04C4444476
:400D0000A4B2917A21B111680C5DE443445503E011B911680C5D44550136F6B200E0002692F806904E45DFD30EF1010E5FFA8EFED479A645F3D320E006EB46143C442C4440
:400D4000A4B292F80AE0BEF1000F04D04FF0FF0E00F804E003E04FF0000E00F804E00135EDB200E000259479A542E5D30136F6B200E00026D479A642F4D31C780134E4B21D
:400D80001C70157AAC4204D300241C705C7801345C705D78547AA54206D80AF1010A9AF80040002C7FF47AAFBDE8F0872DE9F04180460E4615460F4C08276760702000F01D
:400DC0003BFD404600F038FDA7606760722000F033FD05E0771C307800F02EFD25463E466B1E9CB2002DF5D10822024B9A60BDE8F08100BF0006324000B583B002AB03F84E
:400E0000011D01221946FFF7D1FF03B05DF804FBF8B507460E46094C08256560702000F00BFD384600F008FDA5606560732000F003FD304600F030FDA560F8BD00063240A3
:400E400038B50425084B5D60084C402363601023636000F0C1FC0822054B5A6065602023636000F0A3FC38BD00003240800232400006324010B5434C6F220021204604F06E
:400E800017F9631C236704F14E03636704F12203A36700F08BFC03E000F092FC042868D000F02EFD0028F7D100F090FC00217220FFF7AEFF00F00F0002285CD14021FFF71F
:400EC0009BFF00210F20FFF7A3FF10F0800F54D002210B20FFF790FF08222B490120FFF765FFD1210720FFF787FF02210820FFF783FFC2210920FFF77FFF03210420FFF7BB
:400F00007BFF01210320FFF777FF00210320FFF773FF0A2003F034F9002400E01C4601210520FFF769FF642003F02AF903210520FFF762FF322003F023F90F210520FFF79F
:400F40005BFF322003F01CF900210F20FFF760FF10F0400F05D040210220FFF74DFF234603E0631C9BB2042CD8D1032B07D9052010BD012010BD022010BD032010BD002051
:400F800010BD00BF946902088C79081010F1090F0EDB10F1040F0EDB05280FDD0A2810DD0F2811DD142811DD282811DC5A2210E04FF496620DE04FF461720AE04FF416725F
:400FC00007E04FF4A57204E0DC2202E0B42200E03C22034BA3F87C20A3F87E20704700BF946902082DE9F84F06460D46047828B1CA4B984205D10127002403E00127FF240D
:4010000000E0002700F0D2FB4FF00008D0E1C8EBC80AC8EB0A1ADFF80C930AEB090B6F220021584604F044F80BF1010EBC4BC3F870E00AF148004844063058670AF1200A93
:40104000D14409F10209C3F878902022002397E10FB934780136032D00F29081DFE815F004006500C600270100EB030C14F0400F01D0C02100E080218CF8001049B214F0A2
:40108000100F02D04FF0300A01E04FF0200A4AEA01018CF8001014F0040F02D04FF00C0A01E04FF0080A4AEA01018CF8001014F0010F02D04FF0030A01E04FF0020A4AEAE6
:4010C00001018CF800100EEB020C14F0800F01D0032100E002218CF8001049B214F0200F02D04FF00C0A01E04FF0080A4AEA01018CF8001014F0080F02D04FF0300A01E09C
:401100004FF0200A4AEA01018CF80010013A92B214F0020F02D06FF03F0A01E06FF07F0A4AEA01018CF8001028E100EB030C14F0400F01D0802100E040218CF8001049B243
:4011400014F0100F02D04FF0200A01E04FF0100A4AEA01018CF8001014F0040F02D04FF0080A01E04FF0040A4AEA01018CF8001014F0010F02D04FF0020A01E04FF0010A7F
:401180004AEA01018CF800100EEB020C14F0800F01D0022100E001218CF8001049B214F0200F02D04FF0080A01E04FF0040A4AEA01018CF8001014F0080F02D04FF0200AA2
:4011C00001E04FF0100A4AEA01018CF80010013A92B214F0020F02D06FF07F0A01E04FF0400A4AEA01018CF80010C7E000EB030C14F0400F01D0C02100E040218CF80010EE
:4012000049B214F0100F02D04FF0300A01E04FF0100A4AEA01018CF8001014F0040F02D04FF00C0A01E04FF0040A4AEA01018CF8001014F0010F02D04FF0030A01E04FF0B9
:40124000010A4AEA01018CF800100EEB020C14F0800F01D0032100E001218CF8001049B214F0200F02D04FF00C0A01E04FF0040A4AEA01018CF8001014F0080F02D04FF0FB
:40128000300A01E04FF0100A4AEA01018CF80010013A92B214F0020F02D06FF03F0A01E04FF0400A4AEA01018CF8001066E000EB030C14F0400F01D0802100E0C0218CF864
:4012C000001049B214F0100F02D04FF0200A01E04FF0300A4AEA01018CF8001014F0040F02D04FF0080A01E04FF00C0A4AEA01018CF8001014F0010F02D04FF0020A01E015
:401300004FF0030A4AEA01018CF800100EEB020C14F0800F08D0022107E000BFFFFF0F1094690208A08A020803218CF8001049B214F0200F02D04FF0080A01E04FF00C0AC5
:401340004AEA01018CF8001014F0080F02D04FF0200A01E04FF0300A4AEA01018CF80010013A92B214F0020F02D06FF07F0A01E06FF03F0A4AEA01018CF8001001339BB207
:40138000202B7FF665AEC8F1AF031BB299101A4A134003D5013B63F003030133174A02FA83F31B7A09F8013008F101081FFA88F8B8F1AF0F7FF62BAE00240FE0C4EBC403AE
:4013C000C4EB03136F220E4919440A20FFF7EEFC07210220FFF710FD0134A4B2AF2CEDD9084BB3F87C4000F0EBF98442E4D800F0EDF9BDE8F88F00BF030000808C790810EF
:40140000A08A0208946902082DE9F04706460D4600F0CCF9D2210920FFF7EEFC0024C6E0C4EBC407C4EB0717DFF8008207EB08096F220021484603F03BFE09F1010C784B31
:40144000C3F870C007F1480EC6440EF1060EC3F874E02037B84408F10208C3F87880202000218EE0771C32786E1C95F800900EEB010582EA090212F0400F04D019F0400F58
:4014800003D0802302E0402300E0C0232B705BB212F0100F05D019F0100F05D04FF0200A04E04FF0100A01E04FF0300A4AEA03032B7012F0040F05D019F0040F05D04FF024
:4014C000080A04E04FF0040A01E04FF00C0A4AEA03032B7012F0010F05D019F0010F05D04FF0020A04E04FF0010A01E04FF0030A4AEA03032B700CEB000512F0800F04D0ED
:4015000019F0800F03D0022302E0012300E003232B705BB212F0200F05D019F0200F05D04FF0080A04E04FF0040A01E04FF00C0A4AEA03032B7012F0080F05D019F0080FB9
:4015400005D04FF0200A04E04FF0100A01E04FF0300A4AEA03032B70013880B212F0020F05D019F0020F04D06FF07F0203E0402201E06FF03F0213432B70013189B2354601
:401580003E4620297FF66EAFC4F1AF031BB29910244A134003D5013B63F003030133224A02FA83F31B7A08F801300134A4B2AF2C7FF636AF002421E0C4EBC405C4EB0515C3
:4015C0001A4B1D446F2229460A20FFF7EFFB07210220FFF711FCC4F1AF0343F38D032B44002283F822206F2229460A20FFF7DEFB07210220FFF700FC0134A4B2AF2CDBD904
:40160000074BB3F87E4000F0DBF88442D2D800F0DDF8C2210920FFF7EFFBBDE8F08700BF94690208030000808C790810A08A0208002307E01349086F5522C254496FCA5415
:4016400001339BB2202BF5D970B5002416E0A6080C4DAA6F04F003030B490B441B7A93556F2229460A20FFF7A1FB07210220FFF7C3FBAB6F00229A550134A4B2AF2CE6D94D
:4016800070BD00BF946902088C79081008B5002304E00021094AD1540133DBB2152BF8D900210420FFF7A8FB6F2204490A20FFF77DFB07210220FFF79FFB08BD94690208F1
:4016C00038B50E4C1023A360142002F059FD00F09BF808220A4B9A604023A3600425A5600A2002F04DFD65600A2002F049FDA5600A2002F045FDFFF7BDFB38BD80023240DA
:401700000006324038B5FFF793FFFFF7BFFF1E2002F036FD234C40256560322002F030FDA56000210F20FFF773FB10F0400F36D000210B20FFF760FB01210320FFF75CFB5E
:4017400003210520FFF758FB01210520FFF754FB322002F015FD80210420FFF74DFB00210520FFF749FB01210720FFF745FB1E2002F006FD00F056F8102363606560142093
:4017800002F0FEFC0822084B5A60042363602025A5601E2002F0F4FC6560002038BD042038BD00BF800232400006324008B50022024BC3F8082101F061F808BD00003840FD
:4017C000014BD3F808017047000038400122014B5A6070470000384010B5074C074A0849204602F0C9F8236843F0004323600822044B9A6010BD00BF0000674014D802084F
:40180000F87D0810000632400822044B9A60044A136843F000431360704700BF000632400000674008B50249024802F0EBF908BD14D802080000674008B50146154801F00D
:401840000FFD144BD3F8C03F13F0040FF9D0114BD3F8042242F48032C3F80422D3F8042222F48032C3F80422D3F80422D3F8042342F48032C3F80423D3F8042322F480323D
:40188000C3F80423D3F804230422C3F8C02FD3F8C03F08BD0000674008B50146174801F0DFFC164BD3F8C03F13F0040FF9D0134BD3F84003D3F8042242F48032C3F80422EF
:4018C000D3F8042222F48032C3F80422D3F80422D3F8042342F48032C3F80423D3F8042322F48032C3F80423D3F804230422C3F8C02FD3F8C03FC0B208BD00BF00006740DC
:40190000044B1B6913F0080F01D0012070470020704700BF8002324008B5012001F002FB08BD00BF08B500221146042001F06AF808BD00BF10B5064801F020F902F0B1FC4A
:401940000446044801F086F9204602F0AEFC10BD146A02089879081088B108B5094AD062094B1B7833B9104602F028FD0122064B1A7000E0002020B902F044FD08BD03480C
:40198000704708BDC4420208946B02080100160008B5074B1B7833B900F0FCF800F042F90122034B1A7000F03DF800F073FB08BD9C6B020810B5FFF7EBFF044610B900F0E2
:4019C000AFFA044600F074FA0028FBD100F0BCF900F004FA204610BD70B50E4D0026344614E0630904330C4A52F8233004F01F02D34013F0010F07D0284600F04BF8064633
:401A00002946204600F094F81C350134092CE8D9304670BDC07B0810F0D60208704700BF704700BF70B500230AE0124A191D02EB8100002444604FF0FF3042F82100013330
:401A4000002BF2D00C4C0A230FE06668A27E094B2B4400211976012A05D1206918B1228BF17903F025FB1C342B465D1E002BECD170BD00BFF0D60208C07B081030B40B887D
:401A80004A889C1A0025CD800079844200DDCC8030BC70472DE9F84307468468466890F81A900025A8460BE04A462146304600F0ABF9804621463046FFF7E0FF0A340135CC
:401AC0003B8B9D42F0D34046BDE8F883F0B50C8B8D684F680A69012324E010EA030403D17E88B979314402E07988BE79891BEE88B14201D3002100E01946A14202D0167835
:401B0000013E1670A14201D014783CB920EA0300084309B9F97900E0012111705B000A350132744604F1FF3E002CD6D1F0BD00BF38B504468A7E154B03441D7E012A04D123
:401B40002846FFF7C3FF054604E040F22641104802F03AFB0D4B23441D76620904F01F04012303FA04F445B90432084B03EB8202536823EA0404546038BD0432034B03EB27
:401B8000820253681C43546038BD00BFF0D60208847B081038B5194D4FF48E720021284603F086FA4FF22E432B804FF410636B8040F63543AB8008236B84022385F82430B9
:401BC0000F4C8C2204F5927105F1260003F065FA20460C340A230CE0A268238B04E010F8013B53720A320B46591E002BF7D11C342B465D1E002BEFD138BD00BFF0D602086C
:401C0000B47B08100123002006E0111D044B03EB81035B68184313465A1E002BF5D17047F0D602080023024AD380024A13607047F0D60208C86B020870B5002635463F4B48
:401C40001B68032B06D102F02CFB01223C4BDA8002F02BFB3A4BDC88E4B2631E052B23D8DFE803F003070C14191E0125334B1D601AE00022314B1A60012515E0FFF79AFE85
:401C800000222E4B1A60012635460DE002222B4B1A60012508E00022284B1A60012503E00322264B1A6000258DB102F0FAFA244BDB88DBB29C4207D1214AD3886FEA434333
:401CC0006FEA53439BB2D38002F0EFFA00251B4B1B68012BB3D0022B2ED1194A92F81631DBB292F81721D2B2092B25D8C3EBC300810014480144098B8A421DD2104908898D
:401D000080B2B1F8181189B2884215D0C3EBC30399000C4B19448D6802EB8202540002F0C0FA074B1A8992B2A3F818212A5B92B2A3F81A2102F0B9FA304670BDC86B02085D
:401D4000F0D60208C07B0810704700BFC9B2062902D083180021197130F8121000EB42035980024400231372704700BF70B506460D46012305E0224629463046FFF7E6FF5C
:401D800023465C1E002BF6D170BD00BF70B5084DC3001A1A940022462C44A66801EB81014C002A44917E3019FFF7E0FF70BD00BFC07B081038B50546C0EBC0029300064A5B
:401DC00013441B8B04E021462846FFF7DFFF23465C1E002BF7D138BDC07B081010B50A2303E02046FFF7E6FF23465C1E002BF8D110BD00BF00FA03F3C2F5807001FB00F13E
:401E000002FB0310000A70472DE9F04106460D461746012342E035F8140005EB44035988884207D3431A2A194FF0000E82F808E0012201E00B1A002292B996F805E073453B
:401E40000ED92B191B7A327A934205D3224639462846FFF77BFF20E02A19013313721CE096F804E0734504D996F805E0734514D29AB9FBB2062B10D005EB040898F804E0F3
:401E8000082301224EEA0121FFF7B4FFC0F30F2205EB44035A8088F8040023465C1E002BB9D10020BDE8F08100230B73704700BF024BD86800F08000704700BFF0D6020830
:401EC00010B50F4BDB6813F4803F0ED109280ED8430904330A4A52F8233000F01F02D34013F0010F05D1012404E0112402E0012400E000240CB900F097FC204610BD00BFC0
:401F0000F0D6020808B5054BDB6813F4803F03D100F0DAFB002008BD112008BDF0D60208124BDB6813F0800F1AD110B500244FF0FF3312E02046FFF7C3FF034660B9082C5A
:401F400003D801220A4B1A7002E00022084B1A70FFF7D8FF034606E00134092CEAD902E0112318467047184610BD00BFF0D60208CC6B020830B583B00025074C08E0217942
:401F8000002300930E22206801F0ECFE08340135092DF4D903B030BD647D081010B51C4A53780133DBB253705078FFF789FF044650B9174B5B78DBB2092B02D10022144B6D
:401FC0001A70FFF79FFF1FE0114B5B78DBB2092B11D1104B1A8901321A81DA6822F08002DA60DA6822F07F42DA60DA6842EA0064DC60002408E0074BDA6822F07F42DA600C
:40200000DA6842EA0062DA60002CC8D110BD00BFCC6B0208F0D6020810B50146124BB3F90030002B0DDB5A0903F01F03012404FA03F320320D4840F82230BFF34F8FBFF3D8
:402040006F8F094C204600F053FCB4F90030002B08DB590903F01F03012202FA03F3034A42F8213010BD00BFCC79081000E100E010B5002409E0C4EBC4029300044A1344F0
:4020800059682046FFF710FF0134092CF3D910BDC07B081008B5FFF7EBFFFFF76BFF00F09BF9002008BD00BF70B5002514E0C5EBC50293000A4AD658002404E006EBC400F2
:4020C00000F04EFB0134C5EBC5029300044A13441B7E9C42F2D30135092DE8D970BD00BFC07B081010B50B4A536823F0F8535360094C80236360A36A23F0704343F0C04371
:40210000A362012002F054F8A36A23F07043A36210BD00BF70003140800332400F4B1B78C3EBC3039A000E4B1A4453680D4AD2F8D02091B2188801238340013B994206D2CA
:40214000094B1B680949097823F811207047064A12680649097822F811307047CD6B0208C07B0810000036400CD80208B47D081038B5244A1378244CC3EBC30399002144FC
:4021800048681378C3EBC3039A002244127E013A1E4B1B78DBB29A421CD91C4C23780133DBB22370174D2B78C3EBC3039A00164B1A449168237803EB83035A000A44144B11
:4021C0001A6000F0A1F92878217800F0B7FA00F0FDF938BD00220D4B1A700E4AD36823F48033D3600C4B1B78012B02D1FFF7D6FE38BD084BDA6822F08002DA601A890132B1
:402200001A8138BDCD6B0208C07B0810CE6B02080CD80208F0D60208CC6B020810B50C4B1B78C3EBC3039A000A4B9B580A4A147803EBC404094B4FF483721A601B68FFF71D
:402240006DFF204600F08CFAFFF792FF10BD00BFCD6B0208C07B0810CE6B0208F000364001390843014B1860704700BF000236400F4B1B6823F4F8730E4A92F824100E4AC1
:40228000B2FBF1F20D498A4204D843F02003084A136070470A498A4204D843F03003044A1360704743F04003014A1360704700BF04440208F0D6020840787D01001BB70011
:4022C00000366E01044A054B1A604FF0C17203F580731A60704700BF00008301000436400023164A136002F5927213600432136006212C3A11604FF48071083A11600121C2
:40230000903A1160A2F580724FF48371116012680B4A136003220B4B1A604FF47A7300E0013B094A126812F0040F01D1002BF7D113B90822034B1A60704700BF8C013640D0
:40234000F800364040033640F00036401B4B4FF483721A601B681A4BB3F90030002B08DB590903F01F03012202FA03F3154A42F821300023144A13603032136004321360FE
:402380002C3A13605021983A11600121643A11600C3A136002220D4B1A604FF47A7300E0013B0B4AD2F8842012F0070F01D0002BF6D140F20132074B1A607047F000364078
:4023C000CC79081000E100E080023640F8003640000036404003364010B5FFF765FEFFF781FE4FF480323D4B1A603D490B6843F0805343F001030B6000233A4A136002F5EE
:40240000E07213600C32136060321360A2F5CE72136002F582721360083A136032480360A2F5807213604FF0487402F5A87214602E4CA26A22F07042A262A4F58134A4F536
:402440008874626822F0F85242F08062626004F5A02404F50974226842F4805222604FF48074234A14600A6842F0805242F001020A604FF0807204390A6040F64134A1F5D7
:402480008E710C6001F584710B600260FFF71AFF184B93F82430013BFF2B09D81649D1F8002822F47F421B029BB21343C1F80038FFF7DEFE114B1B6843F0004343F4805358
:4024C0000F4A13600F220F4B1A600022A3F588731A600A2203F590731A6010BD04023640A8023640F40036408402364080033240A0023640F0D602080000014004440208FC
:40250000000036400003364038B5054601F0C9FE0D490B6823F07F020C4B1C7825446B7A13430B6001F0C1FE01F0BBFE08490B6823F07F02074B1B681C44637A13430B60E0
:4025400001F0B3FE38BD00BF00043640B47D0810000536400CD8020810B401228A40531E40B10F2904D9A2F10A03B3FBF0F301E0B3FBF0F30BB9012000E018465DF8044B47
:40258000704700BF08B5094B1B78C3EBC3039A00074B1A44536859891B7B1804053B012B01D840F00070FFF75BFE08BDCD6B0208C07B081008B5027B01884089FFF7CCFF19
:4025C00080B2014B186008BD1403364008B50D4BB3F90030002B0DDB5A0903F01F03012101FA03F32032084941F82230BFF34F8FBFF36F8F0122054B1A60FFF771FEFFF74E
:40260000A5FE08BDCC79081000E100E08001364008B5064AD36843F4803343F08003D360172001F0C5FDFFF7D1FF08BDF0D60208F8B5054601F035FE06462F682C79072CE6
:4026400004D94FF464711F4801F0BEFDA400BA6A0F23A34022EA0301062202FA04F30B43BB622C682D79072D04D940F24521154801F0AAFD04F13F4303F54E03DB0903F16F
:40268000806303F544331B01032D0BD81A68ED001F21A94022EA01010B2202FA05F50D431D600BE0043D5A68ED001F21A94022EA01010B2202FA05F50D435D60304601F05A
:4026C000F4FDF8BDB87D081070B5164E3378164CC3EBC3039A0022445068144D00232B703378C3EBC3039A00224491682B7803EB83035A000A440E4B1A60FFF705FF3378B7
:40270000C3EBC3039A00A358287803EBC000094B1860FFF78DFF0848FFF77EFCFFF778FF70BD00BFCD6B0208C07B0810CE6B02080CD8020810D802081D22081008B5C0EB64
:40274000C0008300044AD05800EBC100034B1860FFF76EFF08BD00BFC07B081010D80208F8B5064601F09DFD074634683579072D04D940F24521224801F026FD04F13F4349
:4027800003F54E03DB0903F1806303F544331B01032D08D81A68ED001F2101FA05F522EA05051D6008E0043D5A68ED001F2101FA05F522EA05055D6035683479072C04D909
:4027C0004FF464710E4801F0FFFCA400AA6A0F23A34022EA03010E2202FA04F30B43AB6235683479072C04D940F24731044801F0EBFC0123A3406B60384601F056FDF8BDB3
:40280000B87D081008B5064B1B78012B06D1054B1868FFF7A5FF0022014B1A7008BD00BFCF6B020810D8020870B5104DC0EBC00293002B445C68C0B20D4E3070FFF7E2FF92
:402840003378C3EBC3039A00AA580A4B1A600A4BDA6822F07F02DA603178DA680A43DA602046FFF7A7FEFFF78DFE70BDC07B0810CD6B020810D80208F0D6020808B5084BE2
:402880001B783BB9074A0021074800F037FC0122034B1A70044B01229A609A6108BD00BFD06B02082C7E08100000384038B50C4B9A680C4B9A420ED10D46044619B9FC2164
:4028C000094801F081FC04F11003064A52F8230042F8235038BD1030044B53F8200038BD00ED00E000400208787E08100000081070B338B504460D464368072B03D93621C9
:40290000154801F061FCB4F900306268002B08DB5201D2B203F1604303F5614383F8002305E003F00F035201D2B20C49CA540C4B9A680C4B9A420DD11DB94521064801F076
:4029400043FC2946B4F90000FFF7B0FF002038BD05487047002038BD787E081014ED00E000ED00E0004002080100560038B50369002B0DDA0D4604460B0C1B0423B140F288
:40298000B321044801F020FCA9B26160002038BD014838BDBC7E081001008A0038B50368002B01DA002300E0094B73B90D460446C2600B0C1B0423B140F29A21054801F0C9
:4029C00003FCA9B2A160002038BD014838BD00BF01008A00BC7E081038B504460D4619B99921064801F0F0FB2369002B03DAE3682B60002038BD024838BD00BFFC7E08103E
:402A000001008A000F2840D8F8B515460E46044682B979B90F2804D940F2A911214801F0D3FB600100F1804000F50C101E4B18600020F8BD5DB366B316F01F0F2BD10F2C14
:402A400004D940F2A911174801F0BEFB640104F1804404F50C14144F3C607E60BD60F2080021284602F024FB00212046FFF77EFF3A4652F8040B0021FFF790FF68B90021FE
:402A80003868FFF773FF50B9F8BD084870470748F8BD0648F8BD0548F8BD0548F8BD0448F8BD00BF3C7F0810D46B020803018A0001018A002DE9F0411B4B1B68DC68236849
:402AC00083422CD90D464609A0EB4610012303FA00F819B901F0E5FB074600E00027124B18680368002B01DA002300E00F4B83B9626852F8263018EA030F05D023EA080327
:402B000042F82630002400E0094C0021FFF72EFF00E0084C25B9384601F0C7FB00E0064C2046BDE8F08100BFD46B020801008A00020188000301880004018A000B4B1B6865
:402B4000DB681A6882420CD94109A0EB4110012202FA00F05B6853F82130184203D004487047044870470448704700BFD46B02080101880004018A0000018800024B1B68A3
:402B80000BB9014B18607047E06B02082DE9F8430446884691461E46089F2A4B1B681BB9B421294801F010FB072C03D9B521264801F00AFB234B1B682C2000FB04F01C187F
:402BC000F5B21D50C6F307236360360CA6600F2D04D940F2A9111D4801F0F6FA6D0105F1804505F50C15256165680F2D04D94FF4E271164801F0E8FA154B03EB45156561A3
:402C0000A668330C1B0423B14FF4F1710F4801F0DBFA330C1B0423B140F2E3110B4801F0D3FAB3B243EA0646AE60C4F81C90C4F820800023A36117B1B7F90030A381BDE8E1
:402C4000F88300BFE06B02087C7F08103C7F081000102340F0B58FB0044618B950212C4801F0B2FAA369072B03D95421284801F0ABFAE36A1BB95621254801F0A5FAE36876
:402C8000072B03D95721224801F09EFA236A072B03D958211E4801F097FA236B1BB959211B4801F091FA07AE04F114050FCD0FC62F6802AD26460FCE0FC533682B60079B45
:402CC0001933ADF83030089B0D93A26AE16A0CAD00953B460A98FFF759FF00210091069B0A460598FFF752FF216B2846FFF700FEBDF93030002B08DB590903F01F030122F7
:402D000002FA03F3034A42F821300FB0F0BD00BF7C7F081000E100E0F8B506460F461D4614461AB9FD21264801F04EFA254B1B681BB9FE21224801F047FA072E03D9FF2174
:402D40001F4801F041FA072F04D94FF480711C4801F03AFA1B4B1B682C2101FB063001FB07314B68012202FA03F31B04466802FA06F60269EAB18F69EFB91268002A01DAA2
:402D8000002200E0104AC2B92288134323600369DC6001238B614D620469330C1B0423B140F29A21094801F00FFAB2B2A2600020F8BD0748F8BD0748F8BD0648F8BD00BF76
:402DC0007C7F0810E06B020801008A003C7F081004028A0007028A00F8B505460F461646124B1B6823B940F26111114801F0ECF9072D04D94FF4B1710D4801F0E5F90B4BC2
:402E00001B682C2404FB0534236A23B94FF4B371074801F0D9F9E369B34204D9236A43F826700020F8BD0348F8BD00BFE06B02087C7F08100A028A0038B504460D460B4BB7
:402E40001B6823B940F29311094801F0BDF9072C04D94FF4CA71064801F0B6F9034B1B682C2202FB0434A56238BD00BFE06B02087C7F081070B582B000230193044620B901
:402E80004FF4EA71264801F09FF9236923B940F2D511234801F098F9636923B94FF4EB711F4801F091F9236A23B940F2D7111C4801F08AF96369DD682A0C1CD012041A60C9
:402EC0001B6820690369002B15DA01A9FFF784FD60B9019803681E0CDBB2E269934206D2226A52F8233013B1984700E0002631462069FFF73BFDADB275B16369ADB21D6026
:402F00001B68636A1BB198470023636202E0A36A03B198470023A36163691B6802B070BD7C7F081010B504460B4B1B6823B94FF4DA710A4801F048F9072C04D940F2B511E6
:402F4000064801F041F9044B1B682C2000FB0430FFF790FF10BD00BFE06B02087C7F081010B50446134B1B6823B940F22D21124801F02AF9072C04D940F22E210E4801F080
:402F800023F90C4B1B682C2202FB0434B4F90C30002B0DDB5A0903F01F03012101FA03F32032064941F82230BFF34F8FBFF36F8F002010BDE06B02087C7F081000E100E08F
:402FC00010B50446114B1B6823B940F24D21104801F0FAF8072C04D940F24E210C4801F0F3F80A4B1B682C2202FB0434B4F90C30002B08DB590903F01F03012202FA03F36D
:40300000044A42F82130002010BD00BFE06B02087C7F081000E100E0002867D038B50546002965D00B7A1BB10B88B3FA83F35B090C461BB12F212F4801F0C6F8637A1BB145
:403040006388B3FA83F35B091BB13021294801F0BBF8A3791F2B03D93121264801F0B4F82379032B03D93221224801F0ADF86379032B03D933211F4801F0A6F8E379032B5A
:4030800003D934211B4801F09FF86288238843EA0243EB60A3791B0603F0F851E279130403F480330B43227A920002F004021343627A920202F480621343E27A12B14FF443
:4030C000006200E0002213436279120202F440721343A27A0AB1082200E000221343227902F0030213432B61002038BD02487047014838BDBC7F08100100D60000287DD069
:403100000346002A7CD070B45068000280B29568AD0405F480252843D468240404F4403404431069000600F0E0602043147F0CB1012400E0002420430C1DA4011851D06895
:4031400028B903EB81100024C0F808410CE0012805D1146803EB8110C0F8084104E003EB81100124C0F80841106938B9546903EB8110C0F80C419469C0F81041146803EB3F
:403180008110C0F81441906CB0F1FF3F17D0946A04F00F04166B360206F470663443956B2D0405F470252543146C2403A4B22C430001C0B2204303EB8114C4F82001506A27
:4031C00000F00300D66A360106F030063043556B2D0205F440752843D46BA401E4B20443506C800000F00C00204303EB8113C3F82401126AC3F83821002003E0024870476C
:403200000148704770BC70470100B60010B4D0F8003303F00F03072B06D900230DE0D0F84043CC54013300E000239342F7D306E0D0F8404321F8134001339342F8D35DF808
:40324000044B704710B51446D0F80833C3F308039A4200D31C462246FFF7D8FF204610BD036813F4006F01D0802200E04022D0F80832C3F30803934203D0C0F840120120C0
:4032800070470020704700BF10B4D0F8003203F00F03072B06D900230DE0CC5CC0F84042013300E000239342F7D306E031F81340C0F8404201339342F8D35DF8044B7047DA
:4032C00010B51446036813F4006F01D0802200E04022D0F80832C3F30803D31AA34200D81C462246FFF7D0FF204610BD02E0C0F84012013A002AFAD1704700BF10B5144639
:40330000036813F4006F01D0802200E04022D0F80832C3F30803D31AA34200D81C462246FFF7E4FF204610BD4B6843F020034B60D0F8043343F48033C0F80433D0F8043329
:4033400023F48033C0F80433D0F804330023C0F8C83FC0F8883F70474B6813F0200F0BD0036823F00043036000238366C366036843F00043036003680B78DBB2062B03D1A0
:403380000023C0F8883F06E00023C0F8C83F036E23F4204303664B6823F010034B600B7E83B10B78DBB2062B05D00A69CB689A4203D0022202E0012200E000224B6813436F
:4033C0004B600FE00B78DBB2062B05D04A69CB689A4203D0082202E0042200E000224B6813434B6000230B70704700BF4A7A1AB10B7A5340DB4300E0FF23D0F8102322F4B4
:403400007F025B0403F47F031343C0F81033704738B504460D4601230B764B7A43B3D0F840335B080122C0F8C02FD0F8C02F0A7A934202D04A7A93420FD16A7A934201D1F3
:4034400000232B761023C4F8403FD4F8403F40F25113C4F8483F01220BE040F2AE512C4800F0B2FE40F24113C4F8883E022200E00122D4F8043243F48033C4F80432D4F8CA
:40348000043223F48033C4F80432D4F80432E266012A3CD16B6843F010036B60636E13F0100F16D006232B702B7E3BB16A6A29690A44EA61AB6A5B1A2B6206E02A6B69691F
:4034C0000A44EA616B6B5B1A2B620123C4F8883F38BD02232B702B7E0BB1AB6A00E06B6B2B62236813F4006F01D0802300E0402323B940F25E21064800F066FED4F8043358
:4035000023F0FF03C4F804330123C4F8C83F38BDFC7F081038B505460C460A6A42B1C969FFF7CEFE236A1B1A2362E3691844E061236A23B98022FF212846FFF7DFFE38BD9E
:4035400038B50546802906D9A1F18003802B0ED8A1F181040CE0036E43F40043036609B14C1E00E000240023C5F8C83F00E03F242B6813F4006F01D0802300E040239C429E
:4035800004D340F25E21064800F01EFED5F8041321F0FF03E1B21943C5F8041338BD00BFFC7F081038B505460C460B78023B032B00F28880DFE803F002025B73D0F84033EF
:4035C0008A7A012A0FD10A78D2B2022A07D10122C2661A02CA6003220A70002204E0CA681343012200E00122002A6BD0226A934207D2227E0AB1236100E06361E360012345
:4036000006E0237E0BB1236900E06369E3600223EB66012B56D1237E5BB1626A21690A44E261E36A994201D25B1A00E0002323620AE0226B61690A44E261A36B994201D2E9
:403640005B1A00E000232362637A13B9236A7F2B02D80423237038BD2B6E43F400532B66216A2846FFF76CFF0523237038BDD0F840230B6A6BB10123C366CB691A700B6AEA
:40368000013B0B62CB690133CB61CB680133CB6038BD0223C3660023C0F8C83F38BDD0F80423D2B20132C969FFF7CCFD216A091A2162E3691844E0612846FFF741FFE36881
:4036C0000133E36038BD00BF70B505460C46164611F0800F04D04FF407710D4800F074FD737A9C4204D140F21D21094800F06CFD3472D5F8103323F0FF036400E4B21C43CE
:40370000C5F8104331462846FFF770FE70BD00BF40800810F8B50F461D46069C16462AB121B94FF41A71074800F04EFDAE4204D240F26921034800F047FD6762A662E562E3
:40374000F8BD00BF4080081070B506460D46144611F0800F04D040F28D21084800F034FD237A9D4204D140F28E21044800F02CFD657221463046FFF739FE70BD40800810AD
:4037800000287DD070B5054600297BD0002A7BD00B7913B13E4B984278D116460C4691F90130002B03DA4F213A4800F00DFD94F90230002B03DA5021364800F005FD627868
:4037C000A3789A4203D15121324800F0FDFC2378012B03D952212F4800F0F6FCE378012B03D953212B4800F0EFFC2378012B02D14FF4803200E00022237913B14FF480736E
:4038000000E00023134343F400632B60224B2B6640F20713C5F800330023C5F80433237833B97372324661782846FFF74DFF09E0324661782846FFF747FF3246A178284669
:40384000FFF782FF154BC5F800324023C5F804320020C5F8C80EC5F8880EC5F8C80FC5F8880FC5F8080F40F25113C5F8483F70603070E378B372B062F0623061706170BDAD
:4038800007487047064870BD054870BD044870BD000069404080081000080040070101000100AA0070B504460E46D0F88C3E13F0010F05D001230B70C0F8803ED0F8803E3F
:4038C000D4F84C5F40F201131D420CD031462046FFF72AFD40F20113C4F8403FD4F8403F45F010050BE03378DBB2052B07D115F0100F04D00123C4F8C43FC4F8C83FD4F82B
:40390000CC3F13F0010F08D031462046FFF74AFE0123C4F8C03FD4F8C03F15F0100F0AD031462046FFF718FD1023C4F8403FD4F8403FD4F84C5F15F0400F0DD031462046A8
:40394000FFF766FD0123C4F8803ED4F8803E4023C4F8403FD4F8403FD4F88C3F13F0010F08D031462046FFF7D5FD0123C4F8803FD4F8803F70BD00BF002800F03081F8B52A
:403980000546002900F02D810B78012B03D19948854200F02881087F18B19648854240F0248116460C46012B03D94C21924800F00BFC6378012B07D9052B05D0022B03D087
:4039C0004D218D4800F000FCA378032B03D94E21894800F0F9FB2378012B07D16368023B0E2B03D95021844800F0EEFBA36933F00F0303D05121804800F0E6FBA368043B14
:403A00000C2B03D952217C4800F0DEFBE368043B0C2B03D95321784800F0D6FB6378022B07D0A268E3689A4203D05421724800F0CBFB636A33F06D0303D056216E4800F0C9
:403A4000C3FBE36A33F0730303D057216A4800F0BBFB236B33F4206303D05821664800F0B3FB6378A778052B07D8DFE803F0060305060603022700E00027A368082B04D805
:403A8000E368082B03D9002302E0002300E0012313B14FF4006200E00022217F11B14FF4807300E000231A436368013B03F00F03134343F080732B60236A2A6812F4006F76
:403AC00001D0802200E04022934203D365214A4800F07AFBA36A2A6812F4006F01D0802200E04022934203D36621434800F06CFB237D0BB9012100E000216278052A01D1AA
:403B0000022300E000230B43E17C09B1102100E000210B43617C09B1202100E000210B432178012902D14FF0004100E000210B43BF0007F00C073B43A169090201F47061CA
:403B40000B43120602F0407213432B62237C13B14FF4807200E00022A17C11B14FF4007300E000231A43A368013B03F00F031343C5F8003394F82030C5F80433237C13B104
:403B80004FF4807200E00022E368013B03F00F031343C5F8003294F82830C5F80432636A03F06D03C5F8C83FE36A03F07303C5F8883F236B03F40073C5F8003F236B03F47F
:403BC0000063C5F8403F0023C5F8C83E7EB118463360B361F360F361084B3362F8BD084870470748F8BD0648F8BD0548F8BD0020F8BD00BF0000694084800810EFCDAB00F8
:403C00000140AA00036823F00043036019B100220A60CA608A61036A002B04DB0023C0F8C83FC0F8883F70471F4B98422DD00CD840282ED003D8E8B1102828D02FE0802895
:403C400029D0B0F5807F28D029E0184B984228D006D8B0F1204F0DD0154B984212D01EE0144B98420AD00133984209D0023B984215D101E0002070470F4870470F487047C1
:403C80000F4870474FF4A0007047074870470D4870470D4870470D487047034870470C4870474FF4A400704706005200010000F0090000A0040000F00100520002005200FA
:403CC00003005200010050000200500005005200FF00520008B50C4B1B69002B12DB0B4B1868FFF7A1FF0122094BC3F88C24084BD3F80C34002BFAD1054BD3F88C34002BCC
:403D0000F5D108BD034808BD20002340E46B0208000025400200500000B583B05523ADF80030002301930C496846FEF7E1FDBDF90030002B08DB590903F01F03012202FA09
:403D400003F3064A42F82130022205490120FFF743F803B05DF804FB8946020800E100E05D4602082DE9F04104460D46174698469DF81860072903D9D121344800F024FAAC
:403D800037F00F0303D0D221304800F01DFAB8F1010F03D9D3212D4800F016FA36F01F0303D0D421294800F00FFA22680123AB4022EA030308F0010808FA05F843EA08032A
:403DC0002360A36AA9000F228A4023EA020207F00F0303FA01F71743A762072D04D940F245211B4800F0F0F936F01F0304D040F24621174800F0E8F904F13F4404F54E0490
:403E0000E40904F1806404F544342401032D0DD82268ED001F23AB4022EA030306F01F0606FA05F51D432560BDE8F081043D6268ED001F23AB4022EA030306F01F0606FAF9
:403E400005F51D436560BDE8F08100BFC480081004810810104B03F5F2421268026003F5F0421268426047F604029A58826047F608029A58C26047F60C029A58026147F65D
:403E800010029A58426147F614029A58826147F618029B58C3617047000034404168104B03F5F0421160816847F604029950C16847F608029950016947F60C029950416945
:403EC00047F610029950816947F614029950C16947F618029950026803F5F2431A6070470000344038B5044600F0DBF92CB1184B5B681F2B03D9002302E0002300E001236E
:403F00001D460BB3E368E3B12368E3B1104B99680B46002203E0A34204D01A465B69002BF9D100E000257DB111B9094B9C6000E05461226100236361054A536801335360A1
:403F400002E0002500E0002500F0AFF9284638BDF46B020838B5044600F0A3F9144B5A680AB399680B4602E0A34204D05B69002BFAD1002500E00125B5B1A14206D14B698A
:403F80005BB10B498B600021196106E019695C694C61596909B11B690B61013A044B5A6012B99A6000E0002500F07FF9284638BDF46B020870B584B005460E46042804D992
:403FC00040F69501284800F0FFF8731EDBB2012B08D9042E06D0082E04D040F69601224800F0F2F8042E01D0012E1CD11F4B9C68002013E023799D420FD1A3680BB1334219
:404000000BD1E3685A6802929B68039304A800F80C6D23689847154BDC6064690CB3144B9842E7D11DE0114BDC68022E01D104B12469002011E023799D420DD1A3680BB1B8
:40404000334209D1E3685A6802929B68039304A800F80C6D23689847246914B1044B9842E9D104B070BD00BF44810810F46B0208FF00420070B50546012804D94FF40471A6
:40408000384800F0A1F8384B5B682BB101210846FFF790FF044600E00024002C5AD100F000F90646304B5B681BB104210120FFF781FF2E4BD3F8E03013F0100F02D02C4884
:4040C000FFF7C8FE4FF0B0535B7813F0FF0F04D04FF0B0535B78DBB200E02123212B03D1284601F00DF821E022494FF61C73CB5803F01F024FF0B05393F84037DBB29B1AC3
:4041000018BF01230A6812F4000F07D133B11A4B196847F63073174AD15004E0002147F63073144AD150284600F0F2FF0F4BD3F8E03013F0100F02D00D48FFF7AFFE3046AF
:4041400000F0B3F8084B5B684BB108210120FFF731FF04E002210120FFF72CFF074C204670BD00BF44810810F46B020800000140046C02080000264010180016FF0042004E
:4041800010B5044605E0084B186800F081F8A4F50044B4F5004FF6D8044B186800FB04F000F076F810BD00BFA8420208A442020808B5034B1B7800FB03F000F069F808BDFE
:4041C000A042020801BEFEE738B50D46044C18220146204600F074FFA5610020FFF7F2FFA84A0208FEE700BF08B50268254BDA6142681A6282685A62C2689A620269DA623D
:4042000042691A6382695A63C2699A631E4A916AD963D16A1964516A5964516B9964926BDA64F1EE103A13F0900F27D0026A154B1A65426A5A65826A9A65C26ADA65026B88
:404240001A66426B5A66826B9A66C26BDA66026C1A67426C5A67826C9A67C26CDA67026DC3F88020426DC3F88420826DC3F88820C26DC3F88C20026EC3F89020FFF7B2FFF9
:4042800008BD00BFA84A020800ED00E0000000000230800803D001300238FCD100BF00BF7047EFF3108072B6704780F31088704710B50378012B02D0082B29D02EE01B4BC6
:4042C0001B78012B2CD00320FEF738FC184B984228D0FFF7E6FF174B1860022004F0A2FB044604F0AAFB022C05D1032805D0052805D1002404E0104C02E0002400E00E4C8C
:404300000D4B9C420FD10B4B1868FFF7CEFF0AE0084B1868FFF7C9FF002404E0064C02E0054C00E0044C204610BD00BF3BD8020801018800246C0208FF00420008B50378EA
:40434000022B1CD0082B14D0012B1ED1124B1B78012B1CD0FFF7A5FF104B5860022004F061FB022815D00D4B5868FFF79EFF0C4808BD0A4B5868FFF798FF002008BD074B1F
:404380005868FFF792FF064808BD054808BD044808BD002008BD00BF3BD80208246C0208FF00420010B5044C2046FFF7D3FD04F11800FFF7CFFD10BD0C44020810B580B1B7
:4043C0000A4A9060C36A03B1D3600024084B1C70084B1C70084B1C60084B1C7000F036F900E0074CFDF7A6FA204610BD246C020848D802084CD8020850D802084DD8020869
:404400000100160010B590B02F4B0CAC186859689A68DB680FC42822002102A800F048FE2A4B02930CAB049341F62863ADF8143004238DF81630FB22ADF82020ADF82220AC
:4044400003228DF824208DF8253006238DF8263010238DF829304123ADF82A3001238DF82E301B4C2046FFF73DFD04F11800FFF739FD04F0D3FA08A804F02AFB034600BB31
:40448000144B039302A804F0EBFA0346B0B90122114B1A700023114A1370114A1370114B9B681A6A00929B6ADB88ADF804301223ADF8063068460CF0F9FF034600210A4AC4
:4044C0001160184610B010BD84810810FD4908100C4402083C4B02083BD802083CD802083DD80208246C020850D8020808B5044B1B689847034B1B6803B1984708BD00BF7E
:40450000506C0208346C020808B510B1034A52689047034B1B6803B1984708BD506C0208346C020870B5C0B006460C4615464FF480720849684600F0B0FD05E016F8012B98
:404540006A401DF80250013C002CF7D1284640B070BD00BF9481081008B5FFF7A2FE08BD08B5FFF7A2FE08BD08B50120FEF728FD08BD00BF08B5FFF7F7FF08BD08B501208A
:40458000FEF7EEFC08BD00BF08B5FFF7F7FF08BD08B5094B58601960012208491046FEF71BFC034628B9002205490120FEF714FC0346184608BD00BF506C020809450810FB
:4045C000ED44081038B515460B46024601210020FEF7A2FB044618B129460120FEF72CFC204638BD704700BF704700BF002070470048704711001600004870471100160093
:40460000004870471100160000487047110016000048704711001600004870471100160000487047110016000048704711001600004870471100160000487047110016004A
:404640000048704711001600704700BF08B5024800F0C8FC08BD00BF00440208F8B5022872D8002972D10022134606E03B4CE45C012C01D90132D2B20133002BF6D0012A4E
:404680000CD1374B1B681C6801EB8102930023445B681B79023BDBB2012B59D8314B1B78002B57D1304B1970E0B92D4F3C68236801EB8105AA009D186668C1EBC1014B00AB
:4046C0001E44B18829822168114449686468E45A0C8039680C682244526849680B445B8853801EE001281CD11D4F3C68236801EB8105AA009D186668C1EBC1014B001E44FB
:40470000B1892982216811444D68616819440989298039680C682244526849680B445B895380124B18700E4B1B6818680E4B1B7803EB83039A00104408F0CAFC034650B915
:404740000121084A117006E0094B04E0084B02E0084B00E0084B1846F8BD00BF3CD802082C6C02083DD802083AD802084DD802080100160002001600FF00160070B439B915
:40478000144B1B681B689968CE7F00231D460EE0104B1B681B68D968CE7FF6E7CA5C52B10133CC5C1B2C01D0134400E00125B34201D2002DF2D05DB101338279CA540022D8
:4047C00004E0D4180134855C0D550132052AF8D970BC70472C6C020870B504460CF080FE0546D0B90E4B1968086A228902EB82029300143B03445A6812F0007F0DD0E67BEA
:404800001B695A68CB69D21A06EB8606B318A28821680448184400F040FC284670BD00BF2C6C020840D8020830B587B002891A4B1B685B699B889A4229D1044601AB07C814
:4048400083E807000022ADF81020A289ADF8122040228DF814201846FFF7BEFF054680B923681B7803F002039BB22BB10B4B1B6821460B48984704E0084B1B6821460948FA
:404880009847094A137803F0FE03137000E00025284607B030BD00BF2C6C0208306C0208050001000600010048D802084288531E9BB20F2B1AD84178D1B910B40F4B1868DA
:4048C000046A02EB82029300143B23445A6812F0007F0FD01B695A68C369D31A01EB81011944074B5B5A1380002004E0012070470120704700205DF8044B70472C6C0208D9
:4049000040D8020800B583B00023ADF804308389ADF800300389ADF8023012238DF80430084B1B7813F0010F09D129B18DF8051068460BF0F3FE02E0C0680BF01DFF03B08A
:404940005DF804FB48D8020810B4044688B10023194606E0104A52F82320944200D1012101330D4A1279934206D20029F2D0002003E00021094800E0002050B949B9064BDB
:404980001B792BB9044A42F823400133137100E003485DF8044B704754D80208010016000300160070B506460D460020044606E0084B53F824302946304698470134054BA1
:4049C0001B799C4204D2044B1B7813F0010FEFD170BD00BF54D8020848D8020883792BB100207047C25C32B9013300E00023052BF8D9002070470120704700BF70B58AB0B1
:404A000004460D46BB4A137843F00103137044F20A03984200F0AF8136D842F20403984200F0D98014D841F20103984200F0FD8003D8B0F5805F65D0A5E241F2020398424F
:404A400000F0F68041F20303984200F02A819AE244F20603984200F0DC810AD843F21203984200F0AD8044F20403984200F02C8189E244F20703984200F0808144F20803B2
:404A8000984200F0C2817EE245F20E03984200F067821BD845F20203984200F017820AD844F21003984200F0698145F20103984200F0EE8167E245F20303984200F01F82B8
:404AC00045F20C03984200F024825CE245F21403984200F04E820AD845F20F03984200F0428245F21003984200F040824BE245F21703984200F0408246F20103984200F03B
:404B0000C48140E27C4B1E683046FFF767FF60B1304609F069FB784E00213068FFF72EFE01213068FFF72AFE37E0744B1868836A1B791BB34FF0B05696F8041601F03F03CD
:404B400096F8052602F03F0243EA821196F8033603F01F0341EA033296F8003603F07F0342EA4343026B1370644A1168096BC3F3072048701268126B1B0C93705F4E3368D9
:404B8000186B09F031FB33680021186BFFF7F6FD33680121186BFFF7F1FD584B1B68986A023009F02DFE0023049305937F238DF8103004A809F03CFB0222514B1A70E2E1E1
:404BC00000234F4A13704F4A13700A20FFF7D8FAFFF7E8FBD7E14C4B1B6813F0010F40F0D2810023ADF810308DF81230434E33689B6A93F900308DF8103004A809F032FBD4
:404C000033689B6A93F901308DF8103001238DF81130FF238DF8123004A809F023FB3A4A136843F001031360ADE1FFF7BBFEAAE14978364B1B88ADF81030002319E0344AE7
:404C400032F81320ADF808209DF8092012B93148825C00E00022012A0AD92D4A12F81320914205D12A4A32F81330ADF8103002E00133002BE3D09DF81130FF2B05D104D158
:404C80004FF472712448FFF79FFABDF81030ADF81C30ADF81830C3F3072329781F4AD15471E10B78002B40F06E810B7A33B91C4B0022DA809A801B4A1A604B600D4A1378F8
:404CC00003F0FE0313705EE1CB78002B40F05B8149790E4B1B88ADF81030002333E00C4A32F81320ADF80C209DF80D20E2B90948825C1AE048D802083C4402082C6C02084B
:404D00003BD802083DD8020850D802089482081038D802083CD80208988208104CD802086C6C0208646902080022012A0AD99E4A12F81320914205D19B4A32F81330ADF891
:404D4000103002E00133002BC9D09DF81130FF2B05D104D14FF472719448FFF735FABDF81030ADF82030ADF81030C3F3072301218F4AD15407E1FFF715FE04E12B78002BD4
:404D80003FD1AB78012B02D100228A4B1A706978894B1B88ADF80C30002319E0824A32F81320ADF810209DF8112012B98348825C00E00022012A0AD97B4A12F813209142CE
:404DC00005D1794A32F81330ADF80C3002E00133002BE3D09DF80D30FF2B05D104D14FF472717248FFF7F0F9BDF80C30ADF82430ADF80C30C3F30723FF2B02D0A978704AF0
:404E0000D15402226F4B1A70BDE002226D4B1A70B9E0FFF7C7FD6C4B1B7813F0010F00F0B280644B1B78012B03D10222614B1A70A9E0032B03D100225E4B1A70A3E0022BE4
:404E400040F0A18000225B4B1A70604B1B685B685F4A1178C1EBC10203EB42039A79002A00F091809B88002B00F08D80594B1B78002B40F088800120FFF7F0FB002840F04D
:404E8000828001224B4B1A707DE0FFF78BFD7AE00B88ADF800309DF801301BB90221474AD15405E023B94FF461714048FFF78CF96A7829883C4B23F812106B780021464AD9
:404EC000D15429462046FFF76DFD5CE00B88ADF804309DF805301BB90021384AD15405E023B94FF461713148FFF76EF96B7800212F4AD15429462046FFF754FD43E00B882A
:404F0000ADF810301723ADF8123004A80BF012FC39E00A89531E9BB20F2B13D98B89ADF81030ADF8122012238DF8143001238DF8153004A80BF0F2FB234A137803F0FE03EA
:404F4000137020E00846FFF76FFC014620B929462046FFF727FD01462846FFF7D3FC12E0FFF720FD0FE0FFF71DFD0CE0FFF71AFD09E0FFF717FD06E00846FFF797FC29465A
:404F80002046FFF70FFD104B1B7813F0110F09D00D4A137803F0FE031370104B1B682946204698470AB070BD38D8020898820810646C02083DD80208948208103CD802083C
:404FC000686C02083BD8020848D802082C6C02083AD802084DD802084CD80208306C02080020704730B108B5034A10600348FFF7ABFC08BD02487047786C0208E14F0810B5
:405000000100160008B502490248FEF74BFC08BD5CD802080000644008B5114B1B785BB9104A11491148FEF7ABFB11491148FDF75FFC01220A4B1A700E4BB3F90030002B58
:4050400008DB590903F01F03012202FA03F30A4A42F82130054A136843F00043136008BD7C6C02085CD80208D08208100000644005500810DC79081000E100E010B5013992
:405080000244904207D010F8013B11F8014FA342F7D0181B10BD002010BD10B5431E0A44914204D011F8014B03F8014FF8E710BD02440346934202D003F8011BFAE770477F
:4050C00010B5034642B111F8014B03F8014B013A002CF7D11A4400E010BD934202D003F8014BFAE710BD0000F8B500BFF8BC08BC9E467047F8B500BFF8BC08BC9E4670473F
:4051000001B40248844601BC604700BFA948020801B40248844601BC604700BFA1490208002100B0FFFFF07FFFFFFFFFFFFFFFFFFFFFFFFFFFFFFFFFFFFFFFFFFFFFFFFF82
:40514000FFFFFFFFFFFFFF8007FFFFFFFFFFFFFFFFFFFFFFFFFFFFFFFFFFFFFFFFFFFFFFFFFFFFFFFFFFFFFE0003FFFFFFFFFFFFFFFFFFFFFFFFFFFFFFFFFFFFFFFFFFFFE2
:40518000FFFFFFFFFFFFFFFFF80000FFFFFFFFFFFFFFFFFFFFFFFFFFFFFFFFFFFFFFFFFFFFFFFFFFFFFFFFFFFFF000007FFFFFFFFFFFFFFFFFFFFFFFFFFFFFFFFFFFFFFFC1
:4051C000FFFFFFFFFFFFFFFFFFFFF000003FFFFFFFFFFFFFFFFFFFFFFFFFFFFFFFFFFFFFFFFFFFFFFFFFFFFFFFFFFFE03C001FFFFFFFFFFFFFFFFFFFFFFFFFFFFFFFFFFF7D
:40520000FFFFFFFFFFFFFFFFFFFFFFFFC1FF001FFFFFFFFFF03FFFFFCFFFCFFFFFFFFFFFFFFFF3FFFFFFFFFFFFFFFFFFFFCFFFFFFFFFE0E781F39FFFFFCFFFCEFFF9FFFEBF
:405240007FFFFE73FFFFFFFFFFFFFFFFFFFFFFFFFFEFFFE6679FF39FFFFFFFFFFCFFF9FFFE7FFFFE7FFFFFFFFFFFFFFFFFFFFF83FFFFEFFFE6679FF39861CCCC89C84E790B
:4052800083C41099C41387078FFFFFFFFFFFFFFF80E1FF0FFFE6679FF399CCCCCC44CCCE79999E73999A7333333FFFFFFFFFFFFFFF800F1C7FFFE0E783F039CCE1CCCCCCD5
:4052C000E4F9998E73999E7333331FFFFFFFFFFFFFFF8000B00FFFE6679FF3F9CCF3CCCCCCE4F999C673999E7333338FFFFFFFFFFFFFFF8000600FFFE6679FF3F9CCE1CC50
:40530000CCCCE4F999E673999E733333CFFFFFFFFFFFFFFFC000C00FFFE6679FF3F9CCCCCCCCCCF1F999E673999A733333CFFFFFFFFFFFFFFFC001801FFFE0E081F3F9E1AF
:40534000CCCCCCCE71F9998F13C1C71387331FFFFFFFFFFFFFFFE001001FFFFFFFFFFFFFFFFFFFFFFFF1FFFFFFFFFFFFFFFFFFFFFFFFFFFFFFFFFFF00FFFFFFFFFFFFFFF1C
:40538000FFFFFFFFFFFFF3FFFFFFFFFFFFFFFFFFFFFFFFFFFFFFFFFFFFFFFFFFFFFFFFFFFFFFFFFFFFFFFFC3FFFFFFFFFFFFFFFFFFFFFFFFFFFFFFFFFFF80000FFFFFFFF7A
:4053C000FFFFFFFFFFFFFFFFFFFFFFFFFFFFFFFFFFFFFFFFFFFFFFFFFFFFFC0001FFFFFFFFFFFFFFFFFFFFFFFFFFFFFFFFFFFFFFFFFFFFFFFFFFFFFFFFFFFFFF8007FFFF64
:40540000FFFFFFFFFFFFFFFFFFFFFFFFFFFFFFFFFFFFFFFFFFFFFFFFFFFFFFFFFFF07FFFFFFFFFFFFFFFFFFFFFFFFFFFFFFFFFFFFFFFFFFFFFFFFFFFFFFFFFFFFFFFFFFF3B
:40544000FFFFFFFFFFFFFFFFFFFFFFFFFFFFFFFFFFFFFFFFFFFFFFFFFFFFFFFFFFFFFFFFFFFFFFFFFFFFFFFFFFFFFFFFFFFFFFFFFFFFFFFFFFFFFFFFFFFFFFFFFFFFFFFF6C
:40548000FFFFFFFFFFFFFFFFFFFFFFFFFFFFFFFFFFFFFFFFFFFFFFFFFFFFFFFFFFFFFFFFFFFFFFFFFFFFFFFFFFFFFFFFFFFFFFFFFFFFFFFFFFFFFFFFFFFFFFFFFFFFFFFF2C
:4054C000FFFFFFFFFFFFFFFFFFFFFFFFFFFFFFFFFFFFFFFFFFFFFFFFFFFFFFFFFFFFFFFFFFFFFFFFFFFFFFFFFFFFFFFFFFFFFFFFFFFFFFFFFFFFFFFFFFFFFFFFFFFFFFFFEC
:40550000FFFFFFFFFFFFFFFFFFFFFFFFFFFFFFFFFFFFFFFFFFFFFFFFFFFFFFFFFFFFFFFFFFFFFFFFFFFFFFFFFFFFFFFFFFFFFFFFFFFFFFFFFFFFFFFFFFFFFFFFFFFFFFFFAB
:4067C000FFFFFFFFFFFFFFFFFFFFFFFFFFFFFFFFFFFFFFFF312E204C454420696E6469636174696F6E733A2020202020202020202020202020204C454438284F72616E675E
:406800006529204F6E202D204164766572746973696E67202020204C454438284F72616E67652920426C696E6B73202D20436F6E6E656374656420204C45443928526564B2
:4068400029202020204F6E202D20446973636F6E6E65637465642020202020202020202020202020202020202020202020202020202020202020202020322E20424C45209F
:406880006164766572746973657320666F72203230207365636F6E64732E2050726573732053573220746F2072657374617274206164766572746973696E672020202020C7
:4068C00020202020202020202020202020202020202020202020202020202020332E20436F6E6E656374207573696E67204379536D617274204D6F62696C65202F206465F4
:40690000736B746F702061707020746F206576616C756174652074686520424C452020736572766963652E20526561642074686520636F6465206578616D706C6520202074
:40694000646F63756D656E7420666F72206D6F726520696E737472756374696F6E732E200000000000000180018001800180018001800180018001800000000001800000D1
:4069800000000000000007E007E007E000000000000000000000000000000000000000000000000000000360036003601FF806C006C006C006C03FF00D800D800D800000F4
:4069C00000000000018007F00FB00D800D800F80078003C001E001F001B00DF00FC001800000000000003C306630666066C067803F0006F007980D981998319860F0000085
:406A00000000000000000F8018C018C018C01F801E003F7867B063B061E038E01FF0000000000000000003800380038003800000000000000000000000000000000000002D
:406A400000000000000000C001800300030006000600060006000600060003000300018000C000000000060003000180018000C000C000C000C000C000C0018001800300D4
:406A8000060000000000000003000FC00FC007800FC0000000000000000000000000000000000000000000000000000001800180018001801FF801800180018001800000BA
:406AC0000000000000000000000000000000000000000000000000000000030003000300060000000000000000000000000000000000000007C000000000000000000000C0
:406B00000000000000000000000000000000000000000000000000000000000003000000000000000000003000300060006000C000C00180018003000300060006000C0092
:406B40000C000000000007C00C60183018301830183018301830183018300C6007C000000000000000000180078001800180018001800180018001800180018007E00000EB
:406B800000000000000007800CC018600060006000C00180030006000C0018001FE0000000000000000007C00C600C300030006007C000600030003000300C6007C00000F4
:406BC00000000000000000C001C001C003C006C00CC018C01FF000C000C000C001E000000000000000000FE00C000C000C000F8000C000600060006000600CC007800000C1
:406C000000000000000007E00C30180018001FC01C6018301830183018300C6007C000000000000000000FF00060006000C000C001800180030003000600060006000000FA
:406C400000000000000007E00E700C300C30076007C00DE01870183018301C6007C0000000000000000007C00C6018301830183018300C3007F00030003018601FC0000084
:406C800000000000000000000000000003000000000000000000000000000000030000000000000000000000000000000300000000000000000000000000000003000300C5
:406CC000060000000000000000000000003000E0018007001C000700018000E000300000000000000000000000000000000000001FF0000000001FF0000000000000000024
:406D000000000000000000000000000018000E00030001C0006001C007000C00180000000000000000000FC00C600060006000C001800300060006000000000006000000CC
:406D400000000000000007E00C30181833EC666C6CEC6CCC6FD86FF0300018000FC000000000000000000300070007800D800D800CC018C01FC018603060303078780000FC
:406D80000000000000001FC00C600C300C300C600FC00C600C300C300C300C601FC0000000000000000007E00C70183030003000300030003000300018000C3007E0000064
:406DC0000000000000003FE018301818180C180C180C180C180C180C181818303FE000000000000000001FE00C600C000C000CC00FC00CC00C000C000C000C601FE0000014
:406E00000000000000001FE00C600C000C000CC00FC00CC00C000C000C000C001E00000000000000000007E00C70183030003000300030F83030303018300C3007E000008C
:406E40000000000000003C3C18181818181818181FF8181818181818181818183C3C000000000000000007800300030003000300030003000300030003000300078000002F
:406E800000000000000007C0018001800180018001800180018001800180018001801B001E00000000003CF0186018C019801B001E001F00198018C0186018303CF8000075
:406EC0000000000000001E000C000C000C000C000C000C000C000C000C300C301FF00000000000000000781C38383C383C383C783678367833D833D833983198783C000033
:406F000000000000000038781C301E301E301B301B3019B019B018F0187018703C30000000000000000007E00C301818300C300C300C300C300C300C18180C3007E00000FF
:406F40000000000000001FC00C600C300C300C300C600FC00C000C000C000C001E00000000000000000007E00C301818300C300C300C300C300C300C18180C3007E0003C3F
:406F8000000F000000003F8018C018601860186018C01F80198018C0186018303C38000000000000000007C01C60186018000C00070001C000E0006018601CC00F800000DD
:406FC0000000000000007FE066600600060006000600060006000600060006000F0000000000000000003C781830183018301830183018301830183018300C6007C00000B8
:4070000000000000000078F03060186018C018C018C00D800D800D800700070007000000000000000000F31E630C678C378C379837D83CD83CD81CF01C701C7018700000B4
:407040000000000000003E7818300C6006C006C00380038006C006C00C6018303CF800000000000000003EF018600CC00CC0078007800300030003000300030007800000BE
:407080000000000000001FF01830006000C000C001800300060006000C0018301FF0000000000000000003C0030003000300030003000300030003000300030003000300BF
:4070C00003C0000000000C000C0006000600030003000180018000C000C000600060003000300000000007800180018001800180018001800180018001800180018001806E
:4071000007800000000003000300078007800FC00CC00CC01860186000000000000000000000000000000000000000000000000000000000000000000000000000000FE06E
:40714000000000000000038001C00000000000000000000000000000000000000000000000000000000000000000000007800CC00CC000C007C01CC018C018C00FE00000AA
:407180000000000000001C000C000C000FE00E300C180C180C180C180C180E300FE0000000000000000000000000000003C006600C600C000C000C000C00066003C000009F
:4071C00000000000000000F00030003007F00C70183018301830183018300C7007F8000000000000000000000000000007C00C6018601FE01800180018000C6007C00000C4
:4072000000000000000001F00330030007C00300030003000300030003000300078000000000000000000000000000000FF01CC018C018C01CC00F8018001FC018603060CF
:4072400030E01F8000001C000C000C000FE00E300C300C300C300C300C300C301E78000000000000000003000000000007000300030003000300030003000300078000005A
:4072800000000000000000C00000000001C000C000C000C000C000C000C000C000C000C00CC00F8000001C000C000C000CF00CC00D800F000E000F000D800CC01E7800008E
:4072C0000000000000000700030003000300030003000300030003000300030007800000000000000000000000000000FEF07398631863186318631863186318F7BC000054
:407300000000000000000000000000001FE00E300C300C300C300C300C300C301E78000000000000000000000000000007C00C60183018301830183018300C6007C0000044
:407340000000000000000000000000001FE00E300C180C180C180C180C180E300FE00C000C001E00000000000000000007F00C70183018301830183018300C7007F000303B
:407380000030007800000000000000000FE007600600060006000600060006000F00000000000000000000000000000007C00C600C600E0003C000E00C600E6007C00000AB
:4073C00000000000000000000300030007C0030003000300030003000300030001C000000000000000000000000000001C700C300C300C300C300C300C300C7007F800007B
:407400000000000000000000000000003EF00C600C6006C006C006C003800380038000000000000000000000000000007B3C3318379837981FB01EF01EF00CE00C60000088
:407440000000000000000000000000001F700C6006C00380018003C006C00C601DF000000000000000000000000000003EF00C600C6006C006C006C00380038003000300E1
:4074800006000E0000000000000000001FE0186000C00180030006000C0018601FE000000000000001800300030003000300030003000600030003000300030003000300C9
:4074C0000180000000000180018001800180018001800180018001800180018001800180018000000600030003000300030003000300018003000300030003000300030052
:407500000600000000000000000000000000000000000E301BB018E0000000000000000000000000001010101010000010000000006C484800000000000000000014142898
:407540007C287C2850500000001038404038487010100000002050200C70081408000000000000182020544834000000001010101000000000000000000808101010101053
:407580001008080000202010101010101020200000107C1028280000000000000000101010FE10101000000000000000000000181030200000000000007C0000000000008D
:4075C00000000000000000303000000000040408081010202040000000384444444444443800000000301010101010107C00000000384404081020447C0000000038440467
:407600001804044438000000000C141424447E040E000000003C20203804044438000000001C20407844444438000000007C44040808081010000000003844443844444492
:407640003800000000384444443C04087000000000000030300000303000000000000018180000183020000000000C10608060100C000000000000007C007C00000000004E
:407680000000C02018041820C00000000000182404081000300000003844444C54544C40443800000030102828287C44EE00000000F8444478444444F8000000003C4440B0
:4076C000404040443800000000F0484444444448F000000000FC445070504044FC000000007E22283828202070000000003C4440404E44443800000000EE44447C4444445A
:40770000EE000000007C1010101010107C000000003C0808084848483000000000EE444850704844E600000000702020202024247C00000000EE6C6C54544444EE00000063
:4077400000EE64645454544CEC0000000038444444444444380000000078242424382020700000000038444444444444381C000000F8444444784844E200000000344C40BD
:40778000380404645800000000FE9210101010103800000000EE4444444444443800000000EE4444282828101000000000EE4444545454542800000000C64428101028443D
:4077C000C600000000EE44282810101038000000007C4408101020447C00000000382020202020202020380000402020201010080808000000380808080808080808380019
:407800000010102844000000000000000000000000000000000000FE00100800000000000000000000000038443C44443E00000000C0405864444444F80000000000003C6C
:407840004440404438000000000C04344C4444443E00000000000038447C40403C000000001C207C202020207C000000000000364C4444443C04380000C040586444444478
:40788000EE00000000100070101010107C00000000100078080808080808700000C0405C48705048DC00000000301010101010107C000000000000E854545454FE000000AC
:4078C000000000D864444444EE000000000000384444444438000000000000D8644444447840E000000000364C4444443C040E000000006C302020207C0000000000003C22
:4079000044380444780000000000207C202020221C000000000000CC4444444C36000000000000EE4444282810000000000000EE4454545428000000000000CC48303048CF
:40794000CC000000000000EE44242818101078000000007C481020447C00000000081010101020101010080000101010101010101010000000201010101008101010200071
:407980000000000000245800000000000000007FFFFE0000C0300C0303000000010000000100000000000000050360000400000001000000000000000100000006046000F3
:4079C00008000000746B02081919081031000000070000002F000000070000002C0000000700000013000000050000000000000004000000004000800100100001000000BD
:407A000000000300000010000100002801000000070000000018000000000000020003280100020003000000002A0000000000000300002A01000201030000000D0000004C
:407A40000C430208040003280100020005000000012A0000000000000500012A01000201050000000200000014430208060003280100020007000000042A00000000000046
:407A80000700042A0100020107000000080000001C43020808000028010000000B000000011800000000000009000328010020000B000000052A0000000000000A00052AF8
:407AC000000020010B00000004000000244302080B00022901010A030B000000020000002C4302080C000028010000081000000010000000344302080D00032801001000F3
:407B000010000000100000003C4302080E00A1CA000010091000000001000000444302080F00022901010A030F000000020000004C43020810000129010002011000000027
:407B4000120000005443020831019B5F8000008000100000B5CA030031019B5F8000008000100000A1CA030001000300050007000000000008000A000B0000000C000E00A3
:407B80000F00100047656E6572617465645F536F757263655C50536F43365C43617053656E73655F50726F63657373696E672E6300000000202020202020202020200000A5
:407BC000647D081016D70208A2D7020800000000C46B020801280000010001016C7D081024D70208ACD7020800000000C06B02080128000001000101747D081032D702089D
:407C0000B6D7020800000000BC6B020801280000010001017C7D081040D70208C0D7020800000000B86B02080128000001000101847D08104ED70208CAD702080000000031
:407C4000B46B020801280000010001018C7D08105CD70208D4D7020800000000B06B02080128000001000101947D08106AD70208DED7020800000000AC6B020801280000CE
:407C8000010001019C7D081078D70208E8D7020800000000A86B02080128000001000101A47D081086D70208F2D7020800000000A46B02080128000001000101AC7D08102C
:407CC00094D70208FCD7020800000000A06B020801280000010001011000A00FC8C80A031E20100000001000A00FC8C80A031E20100000001000A00FC8C80A031E201000F3
:407D000000001000A00FC8C80A031E20100000001000A00FC8C80A031E20100000001000A00FC8C80A031E20100000001000A00FC8C80A031E20100000001000A00FC8C84C
:407D40000A031E20100000001000A00FC8C80A031E20100000001000A00FC8C80A031E201000000080043240000000008004324001000000800432400200000000053240F8
:407D8000020000008004324004000000800432400500000080043240060000008004324007000000000532400000000000053240010000000000000047656E6572617465B9
:407DC000645F536F757263655C50536F43365C70646C5C647269766572732F7065726970686572616C2F6770696F2F63795F6770696F2E6800000000010000000600000082
:407E000008000000080000000100000000000000000000000000000000000000000000000000000000000000000000001027000001000000010000000000000000000000F8
:407E40008813000000400000000000000000000003000000FFFFFFFF03000000FFFFFFFF03000000FFFFFFFF03000000FFFFFFFF03000000FFFFFFFF47656E657261746501
:407E8000645F536F757263655C50536F43365C70646C5C647269766572735C7065726970686572616C5C737973696E745C63795F737973696E742E630000000047656E65D1
:407EC00072617465645F536F757263655C50536F43365C70646C5C647269766572735C7065726970686572616C5C6970635C63795F6970635F6472762E68000047656E6511
:407F000072617465645F536F757263655C50536F43365C70646C5C647269766572735C7065726970686572616C5C6970635C63795F6970635F6472762E63000047656E65D5
:407F400072617465645F536F757263655C50536F43365C70646C5C647269766572732F7065726970686572616C2F6970632F63795F6970635F6472762E68000047656E6517
:407F800072617465645F536F757263655C50536F43365C70646C5C647269766572735C7065726970686572616C5C6970635C63795F6970635F706970652E630047656E65F3
:407FC00072617465645F536F757263655C50536F43365C70646C5C647269766572735C7065726970686572616C5C6D637764745C63795F6D637764742E63000047656E65FA
:4080000072617465645F536F757263655C50536F43365C70646C5C647269766572735C7065726970686572616C5C7363625C63795F7363625F636F6D6D6F6E2E6800000019
:4080400047656E6572617465645F536F757263655C50536F43365C70646C5C647269766572735C7065726970686572616C5C7363625C63795F7363625F657A6932632E630B
:408080000000000047656E6572617465645F536F757263655C50536F43365C70646C5C647269766572735C7065726970686572616C5C7363625C63795F7363625F737069ED
:4080C0002E63000047656E6572617465645F536F757263655C50536F43365C70646C5C647269766572735C7065726970686572616C5C6770696F5C63795F6770696F2E6348
:408100000000000047656E6572617465645F536F757263655C50536F43365C70646C5C647269766572735C7065726970686572616C5C6770696F5C63795F6770696F2E6893
:408140000000000047656E6572617465645F536F757263655C50536F43365C70646C5C647269766572735C7065726970686572616C5C737973706D5C63795F737973706DCF
:408180002E6300002400060000000000000000000C00000000316253C4F5A697B988DBEA7D4C1F2E4372211087B6E5D4FACB98A93E0F5C6D86B7E4D5427320113F0E5D6C16
:4081C000FBCA99A8C5F4A796013063527C4D1E2FB889DAEB3D0C5F6EF9C89BAA84B5E6D7407122137E4F1C2DBA8BD8E9C7F6A59403326150BB8AD9E87F4E1D2C023360518F
:40820000C6F7A495F8C99AAB3C0D5E6F4170231285B4E7D67A4B1829BE8FDCEDC3F2A1900736655439085B6AFDCC9FAE80B1E2D344752617FCCD9EAF38095A6B457427164E
:4082400081B0E3D2BF8EDDEC7B4A192806376455C2F3A0914776251483B2E1D0FECF9CAD3A0B586904356657C0F1A293BD8CDFEE79481B2AC1F0A3920534675678491A2B4E
:40828000BC8DDEEF82B3E0D1467724153B0A5968FFCE9DACFFFF000047656E6572617465645F536F757263655C50536F43365C70646C5C6D6964646C65776172655C626C2C
:4082C000655C63795F626C655F6761702E680000000800010000000404000104080002041400030C200004042C00050648000000DDCA081071CF081071CF081071CF08106D
:4083000071CF081039B508100DB6081071CF081071CF081071CF081071CF081071CF081071CF081071CF081071CF081071CF081071CF081005CD081051CD081089C3081010
:408340008DC5081069C9081041A40810000000005C870810FC860810080000001D3D091000000000CC850810188508100F000000000000000000000000000000000000000F
:40838000000000000120000055DC08100620000099DD08100720000069DC08100820000059DD08100920000059DE08100A20000055DB08100B2000001DDE08100C20000051
:4083C000E5DD081010200000B1DB08101120000031DB08101220000035DD081014200000D1DD081015200000C9DB08101720000085DB08100E200000B5DB0810ACFD000005
:408400002BE00810ADFD00001FDF0810A0FD000095E00810A1FD00007FDF0810A2FD0000BBDF0810A5FD00008BE10810A6FD0000EFE00810A8FD0000F1DE0810A9FD0000E8
:40844000C7DE0810AAFD0000E3DF0810ABFD000051E10810AFFD0000E1DF0810C3FD00003DE10810B0FD0000B5E00810B2FD000003E10810051400000FDC08102D0C0000F8
:40848000E9DC08107B0C000097DC08107C0C00008DDE081027200F2028201020292010202B200A202C200B202D200D202E200C204E201720000001000100000100010202CE
